:020000040800F2
:1000000000000220D1D40008BD170008BF17000867
:10001000C1170008C3170008C5170008000000003A
:10002000000000000000000000000000C7170008EA
:10003000C917000800000000CB1700085518000879
:1000400021D5000821D5000821D5000821D50008B8
:1000500021D5000821D5000821D5000821D50008A8
:1000600021D5000821D5000821D5000821D5000898
:100070007D1800085D1800088D1800086D1800082C
:100080009D180008AD18000821D5000821D50008EA
:1000900021D5000821D5000821D5000821D5000868
:1000A00021D5000821D5000821D5000821D5000858
:1000B0008DAE000821D5000821D5000821D5000803
:1000C00021D5000821D5000821D5000821D5000838
:1000D00021D5000821D5000825180008451800087A
:1000E00021D5000821D5000821D5000821D5000818
:1000F00021D5000821D5000821D5000821D5000808
:1001000021D50008ED17000821D5000821D50008E9
:100110003518000821D50008CD17000821D50008A2
:1001200021D50008BD18000821D50008DD170008FA
:1001300021D50008000000000000000021D50008C3
:1001400021D5000821D5000821D50008FD17000899
:1001500021D50008CD1800080D18000821D5000889
:1001600021D5000821D5000821D5000821D5000897
:1001700021D5000821D50008000000000000000083
:0801800021D5000821D500087B
:1001900010B5054C237833B9044B13B10448AFF3C1
:1001A00000800123237010BDF0000020000000003B
:1001B0006C03010808B5034B1BB103490348AFF3B7
:1001C000008008BD00000000F40000206C0301085E
:1001D00010F8012B11F8013B012A28BF9A42F7D0F1
:1001E000D01A7047034613F8012B002AFBD1181AC6
:1001F000013870470000000000000000000000000F
:1002000001F0FF01102A2BDB10F0070F08D010F8C7
:10021000013B013A8B422DD010F0070F42B3F6D1CB
:10022000F0B441EA012141EA014122F007047FF0E4
:1002300000070023F0E80256083C85EA010586EA3B
:10024000010685FA47F5A3FA87F586FA47F6A5FA77
:1002500087F68EB9EED1F0BC01F0FF0102F0070283
:1002600032B110F8013B013A83EA010313B1F8D12E
:100270000020704701387047002D06BF354603380F
:10028000073815F0010F07D1013015F4807F02BF48
:10029000013015F4C03F0130F0BC0138704700BF99
:1002A00081F0004102E000BF83F0004330B54FEA27
:1002B00041044FEA430594EA050F08BF90EA020F94
:1002C0001FBF54EA000C55EA020C7FEA645C7FEA27
:1002D000655C00F0E2804FEA5454D4EB5555B8BF4A
:1002E0006D420CDD2C4480EA020281EA030382EABB
:1002F000000083EA010180EA020281EA0303362D4D
:1003000088BF30BD11F0004F4FEA01314FF4801C1F
:100310004CEA113102D0404261EB410113F0004F31
:100320004FEA03334CEA133302D0524263EB4303E8
:1003300094EA050F00F0A780A4F10104D5F1200E86
:100340000DDB02FA0EFC22FA05F2801841F10001E1
:1003500003FA0EF2801843FA05F359410EE0A5F1B5
:1003600020050EF1200E012A03FA0EFC28BF4CF0E6
:10037000020C43FA05F3C01851EBE37101F000459C
:1003800007D54FF0000EDCF1000C7EEB00006EEBA9
:100390000101B1F5801F1BD3B1F5001F0CD3490833
:1003A0005FEA30004FEA3C0C04F101044FEA44528A
:1003B00012F5800F80F09A80BCF1004F08BF5FEA11
:1003C000500C50F1000041EB045141EA050130BDF1
:1003D0005FEA4C0C404141EB0101013C28BFB1F503
:1003E000801FE9D291F0000F04BF01460020B1FA4E
:1003F00081F308BF2033A3F10B03B3F120020CDA21
:100400000C3208DD02F1140CC2F10C0201FA0CF0FE
:1004100021FA02F10CE002F11402D8BFC2F1200C63
:1004200001FA02F120FA0CFCDCBF41EA0C01904019
:10043000E41AA2BF01EB0451294330BD6FEA040462
:100440001F3C1CDA0C340EDC04F11404C4F120024D
:1004500020FA04F001FA02F340EA030021FA04F35F
:1004600045EA030130BDC4F10C04C4F1200220FAB6
:1004700002F001FA04F340EA0300294630BD21FAF4
:1004800004F0294630BD94F0000F83F4801306BFBA
:1004900081F480110134013D4EE77FEA645C18BFAE
:1004A0007FEA655C29D094EA050F08BF90EA020F45
:1004B00005D054EA000C04BF1946104630BD91EA3D
:1004C000030F1EBF0021002030BD5FEA545C05D140
:1004D0004000494128BF41F0004130BD14F580047F
:1004E0003CBF01F5801130BD01F0004545F0FE41F3
:1004F00041F470014FF0000030BD7FEA645C1ABF28
:10050000194610467FEA655C1CBF0B46024650EA5E
:10051000013406BF52EA033591EA030F41F400218A
:1005200030BD00BF90F0000F04BF0021704730B510
:100530004FF4806404F132044FF000054FF00001E5
:1005400050E700BF90F0000F04BF0021704730B5A6
:100550004FF4806404F1320410F0004548BF40427B
:100560004FF000013EE700BF42004FEAE2014FEAD0
:1005700031014FEA02701FBF12F07F4393F07F4FAB
:1005800081F06051704732F07F4208BF704793F0AE
:100590007F4F04BF41F40021704730B54FF46074C1
:1005A00001F0004521F000411CE700BF50EA0102C4
:1005B00008BF704730B54FF000050AE050EA01026D
:1005C00008BF704730B511F0004502D5404261EBDD
:1005D00041014FF4806404F132045FEA915C3FF41E
:1005E000D8AE4FF003025FEADC0C18BF03325FEABB
:1005F000DC0C18BF033202EBDC02C2F1200300FA6C
:1006000003FC20FA02F001FA03FE40EA0E0021FA90
:1006100002F11444BDE600BF70B54FF0FF0C4CF47E
:10062000E06C1CEA11541DBF1CEA135594EA0C0F30
:1006300095EA0C0F00F0DEF82C4481EA030621EA6B
:100640004C5123EA4C5350EA013518BF52EA0335A6
:1006500041F4801143F4801338D0A0FB02CE4FF058
:100660000005E1FB02E506F00042E0FB03E54FF088
:100670000006E1FB03569CF0000F18BF4EF0010E80
:10068000A4F1FF04B6F5007F64F5407404D25FEA7C
:100690004E0E6D4146EB060642EAC62141EA55512F
:1006A0004FEAC52040EA5E504FEACE2EB4F1FD0C71
:1006B00088BFBCF5E06F1ED8BEF1004F08BF5FEAEF
:1006C000500E50F1000041EB045170BD06F00046A1
:1006D00046EA010140EA020081EA0301B4EB5C044E
:1006E000C2BFD4EB0C0541EA045170BD41F4801146
:1006F0004FF0000E013C00F3AB8014F1360FDEBF6B
:10070000002001F0004170BDC4F10004203C35DA46
:100710000C341BDC04F11404C4F1200500FA05F3C9
:1007200020FA04F001FA05F240EA020001F000426A
:1007300021F0004110EBD37021FA04F642EB0601E0
:100740005EEA430E08BF20EAD37070BDC4F10C040A
:10075000C4F1200500FA04F320FA05F001FA04F2CE
:1007600040EA020001F0004110EBD37041F10001BA
:100770005EEA430E08BF20EAD37070BDC4F12005C5
:1007800000FA05F24EEA020E20FA04F301FA05F22D
:1007900043EA020321FA04F001F0004121FA04F2D5
:1007A00020EA020000EBD3705EEA430E08BF20EAA5
:1007B000D37070BD94F0000F0FD101F000464000DF
:1007C00041EB010111F4801F08BF013CF7D041EA61
:1007D000060195F0000F18BF704703F00046520065
:1007E00043EB030313F4801F08BF013DF7D043EA36
:1007F0000603704794EA0C0F0CEA135518BF95EAEC
:100800000C0F0CD050EA410618BF52EA4306D1D172
:1008100081EA030101F000414FF0000070BD50EA91
:10082000410606BF1046194652EA430619D094EA1B
:100830000C0F02D150EA013613D195EA0C0F05D105
:1008400052EA03361CBF104619460AD181EA030159
:1008500001F0004141F0FE4141F470014FF0000011
:1008600070BD41F0FE4141F4780170BD70B54FF0AC
:10087000FF0C4CF4E06C1CEA11541DBF1CEA13552C
:1008800094EA0C0F95EA0C0F00F0A7F8A4EB05040E
:1008900081EA030E52EA03354FEA013100F0888005
:1008A0004FEA03334FF0805545EA131343EA1263CE
:1008B0004FEA022245EA111545EA10654FEA002683
:1008C0000EF000419D4208BF964244F1FD0404F53C
:1008D000407402D25B084FEA3202B61A65EB030598
:1008E0005B084FEA32024FF480104FF4002CB6EB55
:1008F000020E75EB030E22BFB61A754640EA0C00D5
:100900005B084FEA3202B6EB020E75EB030E22BF14
:10091000B61A754640EA5C005B084FEA3202B6EB55
:10092000020E75EB030E22BFB61A754640EA9C0014
:100930005B084FEA3202B6EB020E75EB030E22BFE4
:10094000B61A754640EADC0055EA060E18D04FEAA2
:10095000051545EA16754FEA06164FEAC30343EA42
:1009600052734FEAC2025FEA1C1CC0D111F4801F0F
:100970000BD141EA00014FF000004FF0004CB6E708
:1009800011F4801F04BF01430020B4F1FD0C88BFA7
:10099000BCF5E06F3FF6AFAEB5EB030C04BFB6EBB2
:1009A000020C5FEA500C50F1000041EB045170BDA5
:1009B0000EF0004E4EEA113114EB5C04C2BFD4EBD2
:1009C0000C0541EA045170BD41F480114FF0000E56
:1009D000013C90E645EA060E8DE60CEA135594EAD2
:1009E0000C0F08BF95EA0C0F3FF43BAF94EA0C0FD5
:1009F0000AD150EA01347FF434AF95EA0C0F7FF44A
:100A000025AF104619462CE795EA0C0F06D152EA9D
:100A100003353FF4FDAE1046194622E750EA410681
:100A200018BF52EA43067FF4C5AE50EA41047FF492
:100A30000DAF52EA43057FF4EBAE12E74A0011D244
:100A400012F5001211D20DD56FF47873B3EB625228
:100A50000ED44FEAC12343F0004343EA505323FA34
:100A600002F070474FF00000704750EA013002D1A9
:100A70004FF0FF3070474FF0000070477BB972B9FC
:100A80000029BEBF00204FF0004106E008BF00284B
:100A90001CBF6FF000414FF0FF3000F0B9B9ADF16D
:100AA000080C6DE904CE002909DB002B1ADB00F0ED
:100AB0004DF8DDF804E0DDE9022304B07047404260
:100AC00061EB4101002B1BDB00F040F8DDF804E096
:100AD000DDE9022304B0404261EB4101524263EB85
:100AE00043037047524263EB430300F02FF8DDF8F5
:100AF00004E0DDE9022304B0404261EB41017047AC
:100B0000524263EB430300F021F8DDF804E0DDE935
:100B1000022304B0524263EB4303704753B94AB90E
:100B2000002908BF00281CBF4FF0FF314FF0FF30F5
:100B300000F06EB9ADF1080C6DE904CE00F006F8D6
:100B4000DDF804E0DDE9022304B070472DE9F04749
:100B5000089D04468C46002B40F083808A4217464D
:100B600047D9B2FA82F242B1C2F1200024FA00F071
:100B70009140974040EA010C94404FEA1748230CFB
:100B8000BCFBF8F61FFA87FE08FB16C143EA0143D7
:100B900006FB0EF1994209D9FB1806F1FF3080F0EF
:100BA0001981994240F21681023E3B445B1AA4B27D
:100BB000B3FBF8F008FB103344EA034400FB0EFEDD
:100BC000A64509D93C1900F1FF3380F00581A645FF
:100BD00040F2028102383C4440EA0640A4EB0E0495
:100BE00000261DB1D4400023C5E900433146BDE8CD
:100BF000F08702B9FFDEB2FA82F2002A50D1CB1B95
:100C00004FEA174E1FFA87F80126B3FBFEFC210CB2
:100C10000EFB1C3341EA034108FB0CF38B4207D95E
:100C200079180CF1FF3002D28B4200F2E980844641
:100C3000C91AA3B2B1FBFEF00EFB101143EA014446
:100C400008FB00F8A04507D93C1900F1FF3302D298
:100C5000A04500F2D9801846A4EB080440EA0C40F5
:100C6000BFE78B4209D9002D00F0B1800026C5E90D
:100C7000000130463146BDE8F087B3FA83F6002E16
:100C80004AD18B4202D3824200F2B880841A61EBCF
:100C9000030101208C46002DA8D0C5E9004CA5E732
:100CA000C2F1200320FA03F6974001FA02F04FEA5E
:100CB000174ED9403043030CB1FBFEF61FFA87F8FC
:100CC0000EFB161143EA014306FB08F1994204FAB0
:100CD00002F409D9FB1806F1FF3C80F08D8099429F
:100CE00040F28A80023E3B445B1A81B2B3FBFEF0C5
:100CF0000EFB103341EA034100FB08F38B4207D996
:100D0000791800F1FF3C73D28B4271D90238394413
:100D1000CB1A40EA064678E7C6F1200C03FA06F43F
:100D200022FA0CF31C4320FA0CF701FA06F34FEAFF
:100D3000144E21FA0CF11F433B0CB1FBFEF91FFAD4
:100D400084F80EFB191143EA014109FB08FA8A45B0
:100D500002FA06F200FA06F308D9611809F1FF3029
:100D600048D28A4546D9A9F102092144A1EB0A01DA
:100D7000BFB2B1FBFEF00EFB101147EA014700FBCA
:100D800008F8B84507D9E71900F1FF312ED2B84568
:100D90002CD90238274440EA0940A7EB0807A0FBFA
:100DA00002894F45C64649461AD317D05DB1B3EB09
:100DB0000E0267EB010707FA0CFCF2404CEA020254
:100DC000F740C5E9002700263146BDE8F0872E46EA
:100DD00028460BE70646E9E61846FDE64345E5D218
:100DE000B8EB020E69EB04010138DFE70846D2E7F1
:100DF00060468DE78146B9E7664675E730464AE7C3
:100E0000ACF1020C394413E702383C4424E700BF3C
:100E1000704700BF054B064A1A6000225A609A606C
:100E2000DA601A615A6105229A617047DC14002069
:100E3000002C014010B582B0002400942A4B1A6B9C
:100E400042F400121A631A6B02F400120092009A24
:100E500001941A6B42F480021A631B6B03F4800343
:100E60000193019B224621463B2003F0AFFA3B2031
:100E700003F0E0FA224605210B2003F0A7FA0B202D
:100E800003F0D8FA224605210C2003F09FFA0C202B
:100E900003F0D0FA224605210E2003F097FA0E2027
:100EA00003F0C8FA22460521112003F08FFA112021
:100EB00003F0C0FA224605213A2003F087FA3A20CF
:100EC00003F0B8FA22460521452003F07FFA4520B9
:100ED00003F0B0FA22460521462003F077FA4620B7
:100EE00003F0A8FA02B010BD0038024008B5084867
:100EF000084B03604FF4E133436000238360C36019
:100F000003610C2242618361C36105F051F808BDA1
:100F1000381100200010014010B50C480C4B036044
:100F20004FF41653436000248460C46004610C23B2
:100F300043618461C46105F03BF822460521262007
:100F400003F044FA262003F075FA10BD3C19002086
:100F50000044004010B50C480C4B03604FF4E133E3
:100F6000436000248460C46004610C234361846195
:100F7000C46105F01DF822460521272003F026FA5A
:100F8000272003F057FA10BDE80600200048004073
:100F900010B50C480C4B03604FF41653436000240B
:100FA0008460C46004610C2343618461C46104F003
:100FB000FFFF22460521342003F008FA342003F015
:100FC00039FA10BDFC180020004C004008B5084854
:100FD000084B03604FF4E133436000238360C36038
:100FE00003610C2242618361C36104F0E1FF08BD2B
:100FF000781500200014014008B50948094B03602A
:101000001023436000238360C36003614361037660
:1010100043768376C3760377437705F0DEF808BD21
:101020007C1900200064004008B50948094B0360A2
:101030001023436000238360C36003614361037630
:1010400043768376C3760377437705F0C6F808BD09
:10105000501000200068004008B509484FF0A04338
:101060000360042343600222C260002303618261A3
:10107000C36103624362C362036301F052F808BDB7
:101080002807002008B50748074B0360002343608A
:101090007F228260FF22C26003614361836105F0A9
:1010A00079F908BDBC1400200028004008B50648A6
:1010B00003F01EFF0AF004FA00F06AFAFFF7AAFE36
:1010C00000F058FA08BD00BFDC14002070B598B0DD
:1010D000302200210DEB02000CF09EFB002407944F
:1010E000089409940A940B94039404940594069428
:1010F0000194214B1A6C42F080521A641B6C03F06D
:1011000080530193019B02941C4B1A6842F4804265
:101110001A601B6803F480430293029B05260C9619
:101120004FF480330D9301230E93022512954FF453
:101130008003139304231493A82315931695072370
:1011400017930CA802F0A4F90F23079308950994AC
:101150004FF4A0530A934FF480530B93314607A8E2
:1011600002F0F2FB03954FF48073069303A802F09C
:10117000DFFC18B070BD00BF0038024000700040B6
:1011800070B586B0002401940294039404940594ED
:101190000F4E224642F20501304602F0FAFE0D4D96
:1011A00022468021284602F0F4FE42F20503019314
:1011B00002940394049401A9304602F063FD802355
:1011C000019301A9284602F05DFD06B070BD00BF85
:1011D000000402400000024000B587B000220192E6
:1011E0001C4B196B41F080011963196B01F08001F0
:1011F000019101990292196B41F004011963196B75
:1012000001F00401029102990392196B41F001016E
:101210001963196B01F00101039103990492196B91
:1012200041F002011963196B01F002010491049964
:1012300005921A6B42F008021A631B6B03F0080355
:101240000593059B0CF0DEF8FFF79AFF07B05DF8F9
:1012500004FB00BF0038024000B585B003F0F8F889
:10126000FFF734FFFFF7B8FFFFF7E4FDFFF7D2FD0C
:1012700000F080F9FFF73AFEFFF74EFEFFF76AFE37
:10128000FFF786FEFFF7B8FEFFF7CEFEFFF79EFEE4
:10129000FFF7E2FEFFF7F6FE2C480BF00FFF0CF015
:1012A0007FF82B4D2B4B03934FF4165602964FF0BD
:1012B00000640194284B00932346284A2849284675
:1012C0000AF070FB274B039302960194264B009380
:1012D0002346264A264927480AF064FB264E274B18
:1012E00003934FF4E13302930194254B009323467B
:1012F000244A254930460AF055FB09F0D1FF0E215A
:1013000030460BF075FA0A2128460AF041FD09F033
:1013100019FD00231A461D490A2009F053FD002338
:101320001A461B49642009F04DFD00231A4619494D
:101330004FF47A7009F046FD00231A4616494FF41F
:101340007A7009F03FFD09F0ABFDFCE73811002091
:1013500078110020E5BA0008A060024088600240D1
:101360000044004081BD00087060024040600240BF
:10137000004C004044030020B8150020C5BE000802
:10138000586002402860024000480040A1B20008B6
:1013900049C7000841D4000889C7000808B5026899
:1013A000034B9A4200D008BD03F06CF8FBE700BF86
:1013B000001000407047000000B583B00093134652
:1013C0000A460146034803F0AFFD00B1012003B017
:1013D0005DF804FBDC14002000B583B000931346D5
:1013E0000A460146034803F0D3FE00B1012003B0D2
:1013F0005DF804FBDC14002008B5034804F00CFA87
:10140000043818BF012008BDDC14002008B50146CF
:10141000014804F09DF908BDDC140020704708B5B0
:10142000FFF7FCFF08BD704708B5FFF7FCFF08BDDC
:10143000704708B5FFF7FCFF08BD82B001238DF8A7
:1014400007309DF8070002B07047000038B5FFF77D
:10145000F4FF012802D00125284638BD044607487C
:1014600004F03CF905460028F6D14FF4006103482A
:1014700004F080F90028EFD02546EDE7DC140020C9
:1014800008B5074B01221A70FFF7B6FF20B9044ACE
:10149000137803F0FE031370014B187808BD00BFEA
:1014A0001800002010B50446074B01221A70FFF700
:1014B000CDFF10B1044B187810BD2046FFF7E0FFB8
:1014C000014B1870F6E700BF1800002008B5FFF7C1
:1014D000D7FF08BD08B5084611461A464FF0FF333E
:1014E000FFF76AFF30B9FFF787FF03460028FAD1FC
:1014F000184608BD0123FBE708B5084611461A4601
:101500004FF0FF33FFF768FF30B9FFF775FF034671
:101510000028FAD1184608BD0123FBE730B589B091
:10152000134B1B7813F001041DD1084615460329FF
:101530001CD8DFE801F0190209106846FFF766FFC2
:10154000069B2B6020460FE06846FFF75FFF079B76
:101550002B80204608E06846FFF758FF079B5B0A90
:101560002B60204600E0032009B030BD0420FBE7DB
:101570001800002008B50349034808F029FF034B71
:10158000187008BD081A002090030108041A0020F2
:1015900008B5034808F040FF024B187008BD00BFB3
:1015A000081A0020041A002030B589B000230393E4
:1015B00004930593069307930368B3F1A04F01D0FA
:1015C00009B030BD00250195174C236B43F0010392
:1015D0002363236B03F001030193019B4FF4C0537A
:1015E0000393022304930595032306930A23079389
:1015F00003A90E4802F046FB636B43F0800363636C
:101600000295636C43F480436364636C03F480432A
:101610000293029B2A462946432002F0D7FE43202C
:1016200002F008FFCCE700BF003802400000024093
:1016300008B500F57171D0F8040408F00BFF08BD7F
:1016400008B5C1EBC10300EB8303D3F80822D0F83F
:10165000040408F02BFF08BD08B5C1EBC10300EB83
:1016600083039A6CD0F8040408F059FF08BD08B54C
:10167000D0F8040408F0EFFF08BD10B50446C368B5
:101680003BB1022B01D1012104E0FFF793FE0121C0
:1016900000E00021D4F8040408F0C6FFD4F80404E4
:1016A00008F099FF10BD000010B50446D0F80404FE
:1016B00008F0BDFF2268D2F8003E43F00103C2F8F3
:1016C000003E236A23B1034A136943F00603136102
:1016D00010BD00BF00ED00E008B5D0F8040408F02C
:1016E000AFFF08BD08B5D0F8040408F0C4FF08BD7A
:1016F00008B5D0F8040408F0BCFF08BD08B5D0F860
:10170000040408F0BAFF08BD08B5D0F8040408F0D6
:10171000B6FF08BDD0F8C43211F0800F08D101F037
:101720007F01C1EBC10103EB810191F8FE0170471C
:1017300001F07F01C1EBC10103EB810191F83E0093
:101740007047032805D8DFE800F0050402050120F2
:1017500070470320704710B514461A462346D0F848
:10176000C40201F07FF8FFF7ECFF10BD08B5D0F818
:10177000C40201F014F9FFF7E4FF08BD08B5D0F882
:10178000C40201F050F9FFF7DCFF08BD08B5D0F83E
:10179000C40201F053F8FFF7D4FF08BD08B5D0F834
:1017A000C40201F0D1F8FFF7CCFF08BD08B5D0F8AE
:1017B000C40201F09AF8FFF7C4FF08BD7047FEE7C6
:1017C000FEE7FEE7FEE770477047704708B502483E
:1017D00004F088F908BD00BF0C1A002008B50248C3
:1017E00002F0F4FC08BD00BFE402002008B5024886
:1017F00004F06CF808BD00BFDC14002008B50248F6
:1018000000F0C6FD08BD00BF2807002008B503484A
:1018100002F0DCFC024809F0CBFF08BD900F00206D
:10182000B864024008B5024809F0FCFE08BD00BFDC
:101830007811002008B5024809F0F4FE08BD00BF89
:101840004403002008B5024809F0ECFE08BD00BFC3
:10185000B815002008B502F015FE08BD08B502480D
:1018600002F0B4FC08BD00BFC401002008B5024866
:1018700002F0ACFC08BD00BFA419002008B5024866
:1018800002F0A4FC08BD00BF8806002008B502488D
:1018900002F09CFC08BD00BF300B002008B50248D8
:1018A00002F094FC08BD00BF2402002008B50248E5
:1018B00002F08CFC08BD00BFD810002008B502481B
:1018C00002F084FC08BD00BF8402002008B5024875
:1018D00002F07CFC08BD00BFF00F002082B00021A8
:1018E00000910B4B5A6C42F480425A645A6C02F4D9
:1018F00080420092009A01911A6C42F080521A6460
:101900001B6C03F080530193019B02B0704700BF32
:101910000038024000B58BB000230593069307936F
:10192000089309930368384A934205D0374A934293
:1019300030D00BB05DF804FB354A136801331360F7
:10194000012B1AD000210191324B1A6B42F0020296
:101950001A631B6B03F002030193019B4FF4407366
:101960000593022306930791032308930923099300
:1019700005A9294802F086F9DBE700230093254BEF
:101980001A6C42F000721A641B6C03F0007300932F
:10199000009BD7E7002302931E4B1A6C42F0806233
:1019A0001A641B6C03F080630293029B184A13684D
:1019B00001331360012B1AD000210491154B1A6BCF
:1019C00042F002021A631B6B03F002030493049BB0
:1019D0004FF4405305930223069307910323089382
:1019E0000923099305A90C4802F04CF9A1E700234B
:1019F0000393084B1A6C42F000721A641B6C03F0DC
:101A000000730393039BD7E7006400400068004025
:101A10000C01002000380240000402400268044B20
:101A20009A4200D07047034B01221A60FAE700BFC8
:101A3000002800403C0E47422DE9F04389B00023C6
:101A4000039304930593069307930268374B9A42D6
:101A500002D009B0BDE8F08304460025009503F5E7
:101A600086335A6C42F400625A645A6C02F4006283
:101A70000092009A01951A6B42F004021A631A6BE5
:101A800002F004020192019A02951A6B42F00802D8
:101A90001A631B6B03F008030293029B4FF4F85385
:101AA00003934FF00209CDF8109005950326069692
:101AB0004FF00C08CDF81C800DEB08011C4802F01B
:101AC000E1F804270397CDF8109005950696CDF818
:101AD0001C800DEB0801174802F0D4F81648174B8C
:101AE00003604FF0006343608560C5604FF480631E
:101AF00003614FF4805343614FF48043836120239B
:101B0000C3610562476286624FF40003C3624FF40B
:101B10000013036302F0AEFA20B9074B23649C6301
:101B2000E36396E7FFF746FCF7E700BF002C0140B0
:101B300000080240000C0240E40200205864024009
:101B400002680D4B9A4200D0704710B504460B4A0C
:101B5000536C23F4006353644FF4F851084802F0C7
:101B600077F90421074802F073F9206C02F0E8FAD3
:101B7000E06B02F0E5FA10BD002C01400038024095
:101B800000080240000C02402DE9F04190B00446EC
:101B900000230B930C930D930E930F930368964AB7
:101BA000934211D0954A93424DD0954A934200F00A
:101BB000B680944A934200F04581934A934200F0E4
:101BC0009A8110B0BDE8F081002501958F4B5A6CC9
:101BD00042F010025A645A6C02F010020192019A0B
:101BE00002951A6B42F001021A631B6B03F00103AA
:101BF0000293029B4FF4C0630B9302230C930D9549
:101C000003230E9307230F930BA9814802F03AF8A0
:101C10008048814B03604FF0006343604023836042
:101C2000C5604FF48063036145618561C5610562EC
:101C3000456202F01FFA18B9764B23639C63C0E734
:101C4000FFF7B8FBF8E74FF00808CDF82C80012328
:101C50000C9300250D9503260E96704F0BA9384660
:101C600002F010F82A464146384602F092F90395F0
:101C7000664B1A6C42F400321A641A6C02F4003299
:101C80000392039A04951A6B42F001021A631B6BCC
:101C900003F001030493049B0C230B9302230C9386
:101CA0000D950E9607230F930BA9594801F0EAFFF3
:101CB0005B485C4B03604FF0006343608560C56028
:101CC0004FF480630361456185614FF48073C361A4
:101CD0000562456202F0CEF9D8B9514B63639C634B
:101CE0005148524B03604FF00063436040238360D0
:101CF0000023C3604FF48062026143618361C3616A
:101D00000362436202F0B6F930B9474B23639C6328
:101D100057E7FFF74FFBE0E7FFF74CFBF5E74FF026
:101D20000408CDF82C8001230C9300250D95032683
:101D30000E963A4F0BA9384601F0A4FF2A464146B9
:101D4000384602F026F90595304B1A6C42F4802291
:101D50001A641A6C02F480220592059A06951A6B91
:101D600042F002021A631B6B03F002030693069B08
:101D70004FF440630B9302230C930D950E960723AB
:101D80000F930BA92A4801F07DFF2A482A4B0360D4
:101D90004FF0006343608560C5604FF4806303616A
:101DA000456185614FF48073C3610562456202F04D
:101DB00061F9D8B91F4B63639C632048204B0360D3
:101DC0004FF000634360402383600023C3604FF4FF
:101DD0008062026143618361C3610362436202F016
:101DE00049F930B9154B23639C63EAE6FFF7E2FA41
:101DF000E0E7FFF7DFFAF5E700100140004400409C
:101E000000480040004C00400014014000380240EF
:101E100000000240900F0020B86402400008024019
:101E20002402002088600240D8100020A0600240F8
:101E3000000402408806002028600240300B002089
:101E40005860024000250795574B1A6C42F4002257
:101E50001A641A6C02F400220792079A08951A6B0A
:101E600042F002021A631B6B03F002030893089B03
:101E700003230B9302220C920D950E9308230F93CC
:101E80000BA94A4801F0FEFE49484A4B03604FF057
:101E9000006343608560C5604FF480630361456102
:101EA00085614FF48073C3610562456202F0E2F818
:101EB000D8B93F4B63639C633F48404B03604FF08E
:101EC00000634360402383600023C3604FF480625B
:101ED000026143618361C3610362436202F0CAF835
:101EE00030B9354B23639C636BE6FFF763FAE0E799
:101EF000FFF760FAF5E7002509952B4B5A6C42F085
:101F000020025A645A6C02F020020992099A0A953A
:101F10001A6B42F004021A631B6B03F004030A936A
:101F20000A9BC0230B9302230C930D9503230E935E
:101F300008230F930BA9224801F0A4FE2148224B4D
:101F400003604FF0206343608560C5604FF4806399
:101F5000036145618561C5610562456202F08AF8E9
:101F6000D8B9184B63639C631848194B03604FF052
:101F700020634360402383600023C3604FF480628A
:101F8000026143618361C3610362436202F072F8DC
:101F900030B90E4B23639C6313E6FFF70BFAE0E7BF
:101FA000FFF708FAF5E700BF0038024000000240E2
:101FB000C401002040600240A4190020706002406B
:101FC000000802408402002028640240F00F002034
:101FD000A064024010B588B001460022362002F00D
:101FE000F5F9362002F026FA00240194144B1A6CFD
:101FF00042F010021A641B6C03F010030193019B62
:1020000002A903A801F076FD01F054FD43000D483C
:10201000A0FB03239B0C013B0B480C4A026040F2DF
:10202000E732C26043600461846003F07DFE10B15A
:10203000012008B010BD044803F03FFDF9E700BFE0
:102040000038024083DE1B430C1A002000100040C1
:102050002DE9F04782B0D0F80080C1EBC10300EB5E
:1020600083035A6D1B6D9A4255D807460C46C146EC
:102070009B1AC1EBC10200EB8202526C9A4200D360
:102080001A4602F1030A4FEA9A0A15E006F1030A1A
:102090004FEA9A0AC4EBC40507EB8505A96C3B7CA3
:1020A0000093B3B2E2B2404600F0D1FFAB6C3344D0
:1020B000AB646B6D1E446E6509EB441303F510634E
:1020C0009B699BB2534512D3C4EBC40207EB820257
:1020D000516D136D99420AD24BB15B1AC4EBC40225
:1020E00007EB8202566C9E42D0D31E46CEE7C4EB6D
:1020F000C40007EB80073A6D7B6D9A420FD804F05D
:102100000F040123A340D8F8344824EA0304C8F894
:102110003448002000E0012002B0BDE8F087002034
:10212000FAE7F0B58BB0002800F08C800546046813
:1021300090F8BD332BB3032385F8BD33E36B13F461
:10214000807F01D100232B61286800F07FFD2C46A1
:1021500054F8107B6E460FCC0FC60FCC0FC694E818
:10216000030086E803002B1D0ECB384600F0B6FCBA
:10217000044658B1022385F8BD33012420460BB034
:10218000F0BD80F8BC33FFF70FFAD4E700212868D0
:1021900000F062FD234616E0C3EBC30205EB8202AA
:1021A000012182F83D1082F83C30A2F84230002133
:1021B00082F83F1051649164C3EBC30205EB8202C5
:1021C00011650133DBB269688B42E5D316E0C4EBDD
:1021D000C40305EB8303002283F8FD2183F8FC414F
:1021E00083F8FF21C3F80422C3F80822C4EBC40318
:1021F00005EB8303C3F810220134E4B2A142E6D810
:102200002C4654F8107B6E460FCC0FC60FCC0FC671
:1022100094E8030086E803002B1D0ECB384600F03F
:1022200061FD044620B1022385F8BD330124A5E7F2
:10223000002385F83830012385F8BD33286801F084
:10224000A3F89BE7012499E770B504460D460068A2
:10225000066C00EB411303F530639A68216901298C
:1022600011D035498E4250D03DB9C5EBC50304EBC2
:102270008303D3F81032002B58D0E9B22046FFF781
:10228000DFF9002070BD12F0080F09D02B498E42F3
:10229000F7D912F4004FF4D04FF400429A60F0E7FF
:1022A00012F0200F02D020229A60EAE712F0280FE5
:1022B000E7D122498E4206D912F4004F03D04FF4E1
:1022C00000429A60DDE7C5EBC50204EB8202D2F85A
:1022D00004121B69C3F31203C91AC2F81412D2F80C
:1022E0000412D2F808320B44C2F8083215B9D2F8F9
:1022F000103223B1E9B22046FFF7A2F9C1E704F595
:102300007172012101F094F8F4E712F4004F03D048
:102310004FF400429A60B4E712F0200F01D020225F
:102320009A60E9B22046FFF78BF9AAE704F57172CB
:10233000002101F07DF8A0E70A31544F0A30544FD4
:1023400038B5044603681D6C03EB4113D3F8081B32
:102350000E4A954207D903F5306311F4004F02D0BD
:102360004FF400429A602046FFF762F9074B9D4206
:1023700002D92369012B01D0002038BD04F5717208
:102380000121206801F054F8F6E700BF0A30544FED
:102390002DE9F04F83B004460568284601F033F874
:1023A00010B103B0BDE8F08F2F460646206800F05C
:1023B000F9FF0028F5D0206800F0F4FF10F0020FBC
:1023C00004D02268536903F002035361206800F0CF
:1023D000E9FF10F0100F14D02268936923F0100366
:1023E0009361D5F8208008F00F09C8F34343022B0E
:1023F00068D0062B00F08D802268936943F01003AB
:102400009361206800F0CEFF10F4002F40F093801D
:10241000206800F0C7FF10F4802F40F0D7802068BC
:1024200000F0C0FF0028C0F24381206800F0BAFF2E
:1024300010F4006F0AD0D5F8083813F0010F40F0FF
:1024400051812268536903F400635361206800F0EE
:10245000A9FF10F4805F40F04981206800F0A2FFDE
:1024600010F4005F40F0A881206800F09BFF10F09E
:10247000080F40F0B981206800F094FF10F4801F2D
:1024800040F0BB81206800F08DFF10F4001F40F089
:10249000BE81206800F086FF10F0804F40F0C181BF
:1024A000206800F07FFF10F0040F3FF47AAF23683C
:1024B0005D6815F0040F40F0BD81226853682B431E
:1024C00053606EE747F6F07318EA030F94D04FEAB3
:1024D000181B4FEAC9030193C9EBC90A04EB8A0A26
:1024E000C8F30A12DAF80812284600F0D1FECBF33E
:1024F0000A0BDAF808325B44CAF80832019BA3EBF6
:10250000090304EB8303D3F814325B44CAF8143292
:1025100072E7082204F57171284600F0B9FEC8F38D
:102520000A18C9EBC90204EB8202D2F81432434400
:10253000C2F8143260E7206800F038FF8046B146E8
:1025400017E007EB49130122C3F8082B4946204640
:10255000FFF77AFE1DE007EB49130822C3F8082BAA
:1025600049462046FFF7ECFE16E009F101094FEA63
:102570005808B8F1000F3FF44BAF18F0010FF4D03A
:102580005FFA89F1206800F021FF824610F0010F08
:10259000D7D11AF0080FDED11AF0100F04D007EBD4
:1025A00049131022C3F8082B1AF0200F04D007EBB0
:1025B00049132022C3F8082B1AF4005FD5D007EB8B
:1025C00049134FF40052C3F8082BCEE7206800F0FF
:1025D000F5FE8046B1462AE059462046FFF73CF812
:1025E0001AF0080F04D007EB49130822C3F8082992
:1025F0001AF0100F04D007EB49131022C3F8082972
:102600001AF0400F04D007EB49134022C3F8082901
:102610001AF0020F04D007EB49130222C3F808296D
:102620001AF0800F3FD109F101094FEA5808B8F1BB
:10263000000F3FF4F4AE18F0010FF4D05FFA89FBFD
:102640005946206800F0CBFE824610F0010FC7D03B
:1026500009F00F03012101FA03F2D7F8343823EA15
:102660000203C7F8343807EB4913C3F80819236984
:102670008B42B1D1C9EBC90304EB8303596C9A6C4B
:102680000A449A64B9F1000FA6D1C9EBC90304EB5F
:1026900083031B6D002B9FD104F57172012120680B
:1026A00000F0C6FE98E749462046FFF7D1FCBAE79E
:1026B000D5F8043823F00103C5F8043894F8F4334E
:1026C000012B08D02046FFF707F82268536903F072
:1026D00000435361A9E6002184F8F413204600F07A
:1026E000DDF9F2E72046FEF7DFFFAAE605F5006810
:1026F000D8F8043023F00103C8F804301021206812
:1027000000F0C2FA20E007EB46134FF67F31C3F822
:102710000819D3F8002922F40012C3F80029D3F8CD
:10272000002942F00062C3F80029C3F8081BD3F85F
:10273000002B22F40012C3F8002BD3F8002B42F038
:102740000062C3F8002B01366368B342DBD8D8F8C7
:102750001C3043F00113C8F81C30236BEBB1D8F8E0
:10276000843043F00B03C8F88430D8F8443043F089
:102770000B03C8F84430D5F8003823F4FE63C5F8DD
:10278000003804F57172217C206800F051FE226847
:10279000536903F4805353615FE6D8F8143043F46F
:1027A000005343F02B03C8F81430D8F8103043F02E
:1027B0000B03C8F81030DEE7206800F028FE206820
:1027C00000F05CFBE060256801F06EF90146227BB9
:1027D000284600F0C9F92046FEF74FFF22685369EA
:1027E00003F4005353613FE62046FEF740FF2268A2
:1027F000536903F0080353613DE600212046FEF7CC
:1028000077FF2268536903F4801353613AE600218D
:102810002046FEF767FF2268536903F400135361F3
:1028200037E62046FEF76AFF2268536903F08043CB
:10283000536135E62046FEF767FF3EE690F8BC336D
:10284000012B0DD010B50446012380F8BC3380F86D
:102850003810006800F088FD002084F8BC0310BD2B
:1028600002207047F8B507460C4611F0800F27D1BB
:1028700001F00F05C5EBC506B60006F5FC7606446B
:10288000311DC5EBC50500EB8505002085F8FD0170
:1028900004F00F040C708A60CB704A7802B1CC80CF
:1028A000022B1DD097F8BC33012B1CD0012387F8D5
:1028B000BC33386800F0F3FA002087F8BC03F8BD99
:1028C00001F00F00C0EBC0018900383139440431F8
:1028D000C0EBC00007EB8000012580F83D50D7E732
:1028E00000230B71DEE70220E9E738B501F00F04A1
:1028F000C4EBC401890001F5FC7101440431C4EB4F
:10290000C40500EB8505C5F80822C5F81032002380
:10291000C5F8143285F8FD3185F8FC410369012BB7
:1029200006D064B9DAB2006800F003FB002038BDBD
:10293000C4EBC40500EB8505C5F80C22F1E7DAB25B
:10294000006800F099FBF1E738B501F00F04C4EB23
:10295000C4018900383101440431C4EBC40500EBE3
:102960008505AA642B6500236B65012385F83D303E
:1029700085F83C400369012B06D05CB9DAB20068E7
:1029800000F0D7FA002038BDC4EBC40500EB850584
:10299000EA64F2E7DAB2006800F06EFBF2E738B5FD
:1029A00001F00F054268954239D804460B4611F0F4
:1029B000800F1FD1C1EBC101890001F5FC710144F9
:1029C0000431C3EBC30300EB8303002283F8FD2132
:1029D00001238B700D7094F8BC33012B21D001239F
:1029E00084F8BC33206800F064FC8DB1002084F8CA
:1029F000BC0338BDC5EBC501890038310144043141
:102A0000C5EBC50300EB8303012283F83D20DFE71C
:102A100004F57172217C206800F00AFDE6E70120D0
:102A2000E7E70220E5E701F00F034268934231D85F
:102A300010B5044611F0800F1ED1C3EBC30189000D
:102A400001F5FC7101440431C3EBC30200EB8202C7
:102A5000002082F8FD0100228A700B7094F8BC33CC
:102A6000012B19D0012384F8BC33206800F04EFC00
:102A7000002084F8BC0310BDC3EBC30189003831CA
:102A800001440431C3EBC30200EB8202012082F84F
:102A90003D00E0E7012070470220ECE770470000AE
:102AA000002301330C4A934211D80269002AF8DA54
:102AB000036943F00103036100230133064A934293
:102AC00007D8026912F0010FF7D1002070470320E8
:102AD00070470320704700BF400D030084B010B55D
:102AE000044603A880E80E00089B012B1FD1A36BAE
:102AF00023F48033A363E36823F4840323F04003C7
:102B0000E360E36823F44013E3600F9B012B09D0DB
:102B10002046FFF7C5FF069B012B1BD0BDE81040E8
:102B200004B07047E36843F48013E360F0E7E368C0
:102B300043F04003E3602046FFF7B2FF0C9B23B94C
:102B4000A36B43F48033A363E5E7A36B23F48033E3
:102B5000A363E0E7A36843F00603A360A36843F020
:102B60002003A360DAE70000022A0AD00921C26824
:102B700022F47052C260C36843EA8123C36000201C
:102B80007047234B0B44234A93422FD9224B0B44CB
:102B9000224A93422CD9A1F57403A3F51053204A7D
:102BA000934227D9A1F18373A3F5E7431D4A9342CA
:102BB00022D31D4B0B441D4A93421FD91C4B0B447F
:102BC0001C4A93421CD31C4B0B441C4A934219D3FE
:102BD000A1F1B773A3F55853194A934214D3194B73
:102BE0000B44194A934211D20721C0E70F21BEE7D7
:102BF0000E21BCE70D21BAE70C21B8E70B21B6E79F
:102C00000A21B4E70921B2E70821B0E70621AEE7BF
:102C1000405327FFFF340C00401E1BFF3F420F00B4
:102C20007F4F120020D6130060B6E5FE5FE316006A
:102C300000D3CEFE40771B00C05BB3FEC0912100E5
:102C400020753800E05459FEE09C4100836823F071
:102C5000010383600020704708B5C36823F0C043B8
:102C6000C360012909D069B9C36843F08043C360D8
:102C7000322001F019FC002008BDC36843F0005366
:102C8000C360F5E70120F7E7890141F02001016108
:102C900000230133054A934205D8026912F0200F40
:102CA000F7D1002070470320704700BF400D03009C
:102CB0001023036100230133054A934205D80269BA
:102CC00012F0100FF7D1002070470320704700BFAB
:102CD000400D0300D0F800381943C0F80018002058
:102CE0007047000084B02DE9F843044609A880E845
:102CF0000E002546002306E003F1400204EB8202A9
:102D00000021516001330E2BF6D9DDF84C80B8F16B
:102D1000000F24D1D4F8043843F00203C4F8043877
:102D2000A36B43F40013A363A36B23F40023A363F7
:102D3000A36B23F48023A3630023C4F8003E04F5AF
:102D40000066D4F80038C4F800380E9B012B14D16B
:102D50000B9B6BB900212046FFF7BCFF11E0A36B72
:102D600023F40013A363A36B43F40023A363E3E7FB
:102D700001212046FFF7AEFF03E003212046FFF7C5
:102D8000A9FF10212046FFF77FFF814608B14FF0D1
:102D900001092046FFF78CFF08B14FF0010900231D
:102DA00033617361F3610AE0C3B94FF00060C2F8A8
:102DB000000900220A614FF67F328A600133099FC1
:102DC0009F4210D905EB431202F51061D2F80009B9
:102DD0000028E9DB0020C2F80009EAE74FF0904044
:102DE000C2F80009E5E700230AE0BBB14FF09040CC
:102DF000C2F8000B00220A614FF67F328A6001336D
:102E00009F4210D905EB431202F53061D2F8000B56
:102E10000028EADB0020C2F8000BEBE74FF000606F
:102E2000C2F8000BE6E7336923F4807333610023B3
:102E3000A3616FF0804363610C9B1BB9A36943F0EE
:102E40001003A361A2690C4B1343A3610F9B1BB139
:102E5000A36943F00803A361B8F1010F04D0484609
:102E6000BDE8F84304B07047A36943F0804343F0E2
:102E70000403A361F3E700BF00383C80D0F80838B2
:102E800013F0060307D0022B07D0062B01D00F202A
:102E9000704702207047002070470220704770B4CE
:102EA0000C784B78012B22D0D0F81C3804F00F0698
:102EB0000122B24043EA0243C0F81C3800EB441040
:102EC000D0F8003B13F4004F0ED1D0F8003B8A68D5
:102ED000C2F30A02C97842EA8142134343F08053A5
:102EE00043F40043C0F8003B002070BC7047D0F8AA
:102EF0001C2804F00F06B3409BB21343C0F81C38E3
:102F000000EB4410D0F8003913F4004FECD1D0F8A6
:102F100000398A68C2F30A02C97842EA814242EA69
:102F200084541C4344F0805444F40044C0F80049E5
:102F3000DAE770B40B784C78012C26D000EB431004
:102F400000F530631C69E40CE4041C611C6924F086
:102F5000FF5424F4C0141C614C690CB18C684C61A2
:102F60001C6944F400241C611C698D68C5F31205BA
:102F70002C431C61012A65D0D0F8003B43F0044388
:102F8000C0F8003B002070BC70474C696CBB00EB84
:102F90004314D4F8105925F0FF5525F4C015C4F892
:102FA0001059D4F8105945F40025C4F81059D4F834
:102FB0001059ED0CED04C4F81059012A33D000EB80
:102FC0004313D3F8002942F00442C3F800294B69A7
:102FD000002BD7D0D0F834380A7802F00F01012244
:102FE0008A401343C0F83438CCE700EB431404F5AF
:102FF00010642569ED0CED042561256925F0FF5568
:1030000025F4C01525614E698D68AE4200D94D6129
:10301000256945F40025256125694E69C6F3120628
:1030200035432561C9E70A691AB100EB4311C1F8BC
:10303000142900EB4310D0F8002942F00442C0F8F4
:1030400000299FE7CA68002A96D05A6194E770B4B5
:103050009DF80C4064B903339D08AC4208D200EBE4
:10306000023303F5805351F8046B1E600134F4E71A
:10307000002070BC70470000F0B583B00B784C782E
:10308000012C2BD000EB431303F530642569ED0CC4
:10309000ED042561256925F0FF5525F4C01525614E
:1030A0004D69002D40F0C38025698E68C6F3120675
:1030B00035432561256945F400252561012A00F085
:1030C000CB80CA78012A00F0CD80D3F8002B42F0E3
:1030D0000442C3F8002B002003B0F0BD4C6984BB50
:1030E00000EB4314D4F8105925F0FF5525F4C01512
:1030F000C4F81059D4F8105945F40025C4F81059F3
:10310000D4F81059ED0CED04C4F81059012A4CD034
:1031100000EB4313D3F8004944F00444C3F80049DA
:10312000CC78012C6AD04B69002BD4D0D0F834284D
:10313000097801F00F040121A1400A43C0F83428A6
:10314000C9E700EB4314D4F81059ED0CED04C4F8B2
:103150001059D4F8105925F0FF5525F4C015C4F8BE
:103160001059D4F810694D698F683D44013DB5FB95
:10317000F7F5464F07EAC5453543C4F81059D4F86A
:1031800010594E69C6F312063543C4F8105904F5B8
:103190001064CD78012DB9D1256925F0C045256190
:1031A000256945F000552561B0E70A691AB100EBC1
:1031B0004314C4F81429CA78012A08D000EB431339
:1031C000D3F8002942F00442C3F8002983E7D0F87D
:1031D000082812F4807F08D100EB4311D1F80029B0
:1031E00042F00052C1F80029E8E700EB4311D1F8A2
:1031F000002942F08052C1F80029DFE7D0F80848E2
:1032000014F4807F0CD1D3F8004944F00054C3F883
:10321000004900928B8A0A78C968FFF718FF5AE7BD
:10322000D3F8004944F08054C3F80049F1E78E68B0
:103230003544013DB5FBF6F52669144F07EAC5474D
:103240003E43266127698E68ADB206FB05F5C5F3DE
:1032500012053D43256131E7CA68002A3FF431AFCA
:1032600062612EE7D0F8082812F4807F06D1D3F8E7
:10327000002B42F00052C3F8002B26E7D3F8002BB6
:1032800042F08052C3F8002B1FE700BF0000F81F78
:1032900010B4033294080023A34206D200F58052F2
:1032A000126841F8042B0133F6E708465DF8044B39
:1032B00070470B784A78012A14D000EB4310D0F8FD
:1032C000002B002A06DB2BB1D0F8003B23F0804313
:1032D000C0F8003BD0F8003B43F40013C0F8003BBB
:1032E0000020704700EB4310D0F80029002A06DBCD
:1032F0002BB1D0F8003923F08043C0F80039D0F862
:10330000003943F40013C0F80039E9E70B784A7834
:10331000012A0ED000EB4310D0F8003B23F4001339
:10332000C0F8003BCB78023BDBB2012B15D9002063
:10333000704700EB4310D0F8003923F40013C0F8B5
:103340000039CB78023BDBB2012BF0D8D0F8003942
:1033500043F08053C0F80039E9E7D0F8003B43F070
:103360008053C0F8003BE2E7D0F8003823F4FE6356
:10337000C0F80038D0F80038090101F4FE611943A3
:10338000C0F8001800207047D0F8003E23F0030377
:10339000C0F8003ED0F8043843F00203C0F8043807
:1033A000002070474269806910407047D0F8183893
:1033B00000F50060C0691840000C7047D0F818385C
:1033C00000F50060C069184080B2704700EB411101
:1033D000D1F8082B00F5006040691040704710B428
:1033E000D0F81048D0F8343801F00F02D340DB0198
:1033F000DBB2234300EB411000F5106080681840F9
:103400005DF8044B7047406900F001007047D0F848
:10341000003923F4FF6323F00703C0F80039D0F824
:10342000043843F48073C0F804380020704700006B
:1034300010B4046C154B9C4203D9D0F8003B002B10
:1034400016DB0024C0F8104BD0F8104B44F40024D5
:10345000C0F8104BD0F8104B44F01804C0F8104BD3
:10346000D0F8104B44F0C044C0F8104B012903D0F1
:1034700000205DF8044B7047C0F8142BD0F8003BD7
:1034800043F08023C0F8003BF2E700BF0A30544FFE
:10349000002800F0D98170B582B00446036813F0AB
:1034A000010F3BD0A64B9B6803F00C03042B2CD0E0
:1034B000A34B9B6803F00C03082B21D06368B3F582
:1034C000803F4FD0B3F5A02F52D09D4B1A6822F405
:1034D00080321A601A6822F480221A606368002B16
:1034E00050D000F0DBFF0546954B1B6813F4003FFE
:1034F00014D100F0D3FF401B6428F5D90320AAE1C2
:103500008F4B5B6813F4800FD8D08D4B1B6813F47E
:10351000003F03D06368002B00F09881236813F00C
:10352000020F54D0864B9B6813F00C0F3ED0844B97
:103530009B6803F00C03082B33D0E368002B67D0A3
:10354000804B01221A6000F0A9FF05467C4B1B68E6
:1035500013F0020F53D100F0A1FF401B0228F5D950
:10356000032078E1764A136843F480331360B5E7AB
:10357000734B1A6842F480221A601A6842F480324F
:103580001A60ABE700F08AFF05466D4B1B6813F429
:10359000003FC3D000F082FF401B6428F5D9032010
:1035A00059E1674B5B6813F4800FC6D1644B1B680D
:1035B00013F0020F03D0E368012B40F04981604A09
:1035C000136823F0F803216943EAC10313602368F9
:1035D00013F0080F40D0636963B35B4B01221A609C
:1035E00000F05CFF0546564B5B6F13F0020F33D1C2
:1035F00000F054FF401B0228F5D903202BE1504A6C
:10360000136823F0F803216943EAC1031360DEE77E
:103610004C4B00221A6000F041FF0546484B1B68E6
:1036200013F0020FD3D000F039FF401B0228F5D968
:10363000032010E1444B00221A6000F02FFF0546E2
:103640003F4B5B6F13F0020F06D000F027FF401BCB
:103650000228F5D90320FEE0236813F0040F78D088
:10366000374B1B6C13F0805F0DD100230193344B5B
:103670001A6C42F080521A641B6C03F08053019361
:10368000019B012500E00025304B1B6813F4807F6F
:1036900021D0A368012B32D0052B36D0284B1A6FCE
:1036A00022F001021A671A6F22F004021A67A36857
:1036B000002B34D000F0F2FE0646214B1B6F13F0B6
:1036C000020F45D100F0EAFE801B41F28833984298
:1036D000F3D90320BFE01D4A136843F480731360DD
:1036E00000F0DCFE0646194B1B6813F4807FD0D136
:1036F00000F0D4FE801B0228F5D90320ABE0104A6D
:10370000136F43F001031367D1E70D4B1A6F42F0BB
:1037100004021A671A6F42F001021A67C7E700F045
:10372000BDFE0646064B1B6F13F0020F10D000F0D3
:10373000B5FE801B41F288339842F3D903208AE01A
:103740000038024000004742800E474200700040AF
:10375000E5B9A369002B7DD0464A926802F00C02BD
:10376000082A51D0022B17D0434B00221A6000F0D8
:1037700095FE04463F4B1B6813F0007F42D000F0DB
:103780008DFE001B0228F5D9032064E0394A136C32
:1037900023F080531364DCE7374B00221A6000F0FB
:1037A0007DFE0546334B1B6813F0007F06D000F00A
:1037B00075FE401B0228F5D903204CE0E369226A1C
:1037C0001343626A43EA8213A26A5208013A43EA47
:1037D0000243E26A43EA0263264A5360264B01220F
:1037E0001A6000F05BFE0446224B1B6813F0007F5A
:1037F00006D100F053FE001B0228F5D903202AE071
:10380000002028E0002026E0012B26D0194B5B6821
:1038100003F48001E269914221D103F03F02216A61
:103820008A421ED1616A47F6C0721A408A421AD192
:1038300003F44032A16A8A4217D103F07063E26A4E
:10384000934214D1002006E001207047012002E0DD
:10385000012000E0002002B070BD0120FBE7012044
:10386000F9E70120F7E70120F5E70120F3E7012060
:10387000F1E700BF0038024060004742F8B52F4B27
:103880009B6803F00C03042B53D0082B53D12B4B14
:103890005A6802F03F025B6813F4800F28D0274B70
:1038A0005B68C3F3881358010021C01A61F100015D
:1038B0008E0146EA906687013C1A66EB0105E90035
:1038C00041EA5471E000C01841F100014B0243EAA3
:1038D000D0534402204619460023FDF71FF9174B29
:1038E0005B68C3F3014301335B00B0FBF3F023E0FB
:1038F000124B5B68C3F388135C010025E41A65F181
:103900000005AE0146EA9466A701381B66EB050187
:10391000CC0044EA5074C500E81844F100018B0261
:1039200043EA90538402204619460023FDF7F6F837
:10393000D5E7034800E00348F8BD00BF0038024067
:1039400000127A000024F400002800F09B8070B57B
:103950000D4604464F4B1B6803F00F038B4208D201
:10396000CBB24C4A1370136803F00F038B4240F044
:103970008B80236813F0020F17D013F0040F04D0CC
:10398000454A936843F4E0539360236813F0080FAB
:1039900004D0414A936843F4604393603E4A93687D
:1039A00023F0F003A1680B439360236813F0010F29
:1039B00032D06368012B21D09A1E012A25D9364ABC
:1039C000126812F0020F61D033498A6822F00302B4
:1039D00013438B6000F062FD06462F4B9B6803F09B
:1039E0000C036268B3EB820F16D000F057FD801B0A
:1039F00041F288339842F0D9032042E0264A126807
:103A000012F4003FE0D101203BE0234A126812F09B
:103A1000007FD9D1012034E01E4B1B6803F00F0357
:103A2000AB4207D9EAB21B4B1A701B6803F00F03B5
:103A3000AB422DD1236813F0040F06D0164A9368C9
:103A400023F4E053E1680B439360236813F0080FFD
:103A500007D0114A936823F46043216943EAC10304
:103A60009360FFF70BFF0C4B9B68C3F303130B4AE8
:103A7000D35CD8400A4B18600A4B1868FEF7AAFAC4
:103A8000002070BD012070470120FAE70120F8E70F
:103A90000120F6E7003C024000380240AC03010878
:103AA000200000201C000020014B1868704700BF58
:103AB0002000002008B5FFF7F7FF044B9B68C3F315
:103AC0008223034AD35CD84008BD00BF00380240BF
:103AD000BC03010808B5FFF7E7FF044B9B68C3F37D
:103AE0004233034AD35CD84008BD00BF00380240CF
:103AF000BC0301080F2303600B4B9A6802F003021A
:103B000042609A6802F0F00282609A6802F4E05221
:103B1000C2609B68DB0803F4E0530361034B1B683E
:103B200003F00F030B60704700380240003C024076
:103B300030B583B00446036813F0050F06D123683F
:103B400013F0020F2ED1002003B030BD494B0022EC
:103B50001A6000F0A3FC0546474B1B6813F0006F8A
:103B600006D000F09BFC431B022BF5D90320EBE7AA
:103B70006268A3681B0743EA82133F4AC2F8843095
:103B80003C4B01221A6000F089FC05463A4B1B6849
:103B900013F0006FD3D100F081FC431B022BF5D949
:103BA0000320D1E700230193334B1A6C42F080527B
:103BB0001A641B6C03F080530193019B2F4A136816
:103BC00043F48073136000F069FC05462B4B1B68BF
:103BD00013F4807F06D100F061FC431B022BF5D962
:103BE0000320B1E7244B1B6F13F4407312D0E2683B
:103BF00002F440729A420DD01F4B1A6F22F44072A9
:103C00001F4901200860002008601A671B6F13F02D
:103C1000010F13D1E36803F44072B2F5407F1ED068
:103C2000154A936823F4F813936013490B6FE26805
:103C3000C2F30B0213430B67002085E700F02EFC54
:103C400005460D4B1B6F13F0020FE3D100F026FC6D
:103C5000401B41F288339842F3D9032074E70649A8
:103C60008A6822F4F81223F0704323F4407313435C
:103C70008B60DAE76800474200380240007000407D
:103C8000400E474200230F2B00F2D980F0B583B0DD
:103C900039E0072200E00022B2403A430234684E85
:103CA00046F82420674A1468EA4324EA05064F6868
:103CB00017F4803F01D045EA0406624C2660646830
:103CC00002EA04064F6817F4003F01D045EA0406F3
:103CD0005C4C6660A46802EA04064F6817F4801F13
:103CE00001D045EA0406574CA660E46822404E68BD
:103CF00016F4001F01D045EA0402524CE260013381
:103D00000F2B00F29A8001229A400C6804EA020507
:103D100032EA0404F3D14C68661E012E03D9112C3B
:103D200001D0122C12D186685F000324BC4026EA21
:103D30000406CC68BC4034438460466826EA020628
:103D40004C68C4F300129A4032434260C7685E0078
:103D50000324B440E24327EA04078C68B4403C43A0
:103D6000C4604C68022C01D0122C13D1DF08083734
:103D700050F827E003F007044FEA840C0F2404FAFC
:103D80000CF42EEA040E0C6904FA0CF444EA0E0456
:103D900040F82740046814404A6802F00302B24029
:103DA000224302604A6812F0805FA8D0002201928C
:103DB000254A546C44F480445464526C02F48042AA
:103DC0000192019A9C08A61C1D4A52F8267003F025
:103DD000030296000F22B24027EA02071B4A9042D4
:103DE0003FF459AF02F5806290421AD002F580622A
:103DF000904218D002F58062904216D002F580629F
:103E0000904214D002F58062904212D002F5806296
:103E1000904210D002F5806290423FF43AAF0822FF
:103E20003AE7012238E7022236E7032234E7042288
:103E300032E7052230E706222EE703B0F0BD7047D7
:103E400000380140003C01400038024000000240C0
:103E500000230F2B00F28F80F0B52DE0072600E045
:103E6000002606FA04F4AC4269D005685C0003261B
:103E700006FA04F425EA0405056023FA06F5083578
:103E800050F8256003F007074FEA870C0F2707FA61
:103E90000CF726EA070640F82560C56825EA040500
:103EA000C560456825EA02024260826822EA04048D
:103EB000846001330F2B5DD801229A4002EA01078A
:103EC00032EA0104F5D14FEA930C0CF102052A4CB9
:103ED00054F8255003F00304A4000F2606FA04FE4C
:103EE0000EEA0505254EB042BAD006F58066B0420E
:103EF00019D006F58066B04217D006F58066B0424C
:103F000015D006F58066B04213D006F58066B04243
:103F100011D006F58066B0420FD006F58066B0423B
:103F20009CD008269DE701269BE7022699E70326F9
:103F300097E7042695E7052693E7062691E7104CB8
:103F4000256825EA07052560656825EA0705656097
:103F5000A56825EA0705A560E56825EA0707E76083
:103F6000054D0CF1020455F8246026EA0E0645F8CA
:103F700024607AE7F0BD704700380140000002403D
:103F8000003C01400369194201D001207047002024
:103F900070470AB181617047090481617047000070
:103FA00010B40368D9B210390C4AA2FB01421209BD
:103FB0000B4CA25CC2655F2909D923F47F7323F0FF
:103FC000030304338365806D5DF8044B704723F46D
:103FD0007F7323F003038365F5E700BFABAAAAAAAA
:103FE000A4030108836A826992B9012B0AD0022BCB
:103FF00002D00BB100207047C36A13F0807F28D134
:1040000000207047C36AB3F1C07F24D000207047FE
:10401000B2F5005F09D0022B25D9032B25D1C36A45
:1040200013F0807F23D100207047032B03D8DFE8F3
:1040300003F01404140A00207047C36A13F0807F51
:104040000DD100207047C36AB3F1C07F09D00020B2
:104050007047012070470120704701207047012000
:1040600070470120704701207047002070470120F1
:104070007047000070B5044600F010FA002C5BD0C9
:104080000546002384F83430022384F83530226852
:10409000136823F00103136023681A6812F0010FFC
:1040A0000AD000F0FBF9431B052BF5D920236365EB
:1040B000032084F8350070BD1A68204810406168FC
:1040C000A2680A43E1680A4321690A4361690A4315
:1040D000A1690A43E1690A43216A0A430243616A0A
:1040E00004291ED01A602668756925F00705636AE1
:1040F0001D43042B07D1A36A1D43E36A1BB120466D
:10410000FFF770FF90B975612046FFF749FFE26D38
:104110003F239340836000206065012384F835309D
:10412000C9E7E16A206B01430A43DBE7402363658B
:10413000012084F83500BEE70120BCE73F8010F085
:1041400000282DD038B5054690F83500C0B20228B9
:1041500025D02A68136823F0010313602B6800241C
:104160001C602B685C602B689C602B68DC602B6893
:104170001C612B6821225A612846FFF711FFEC636E
:104180002C646C64AC64EC642C65EA6D3F23934052
:1041900083606C6585F8354085F83440204638BD2D
:1041A0000120704790F83530DBB2022B03D080231A
:1041B000436501207047052380F835300268136895
:1041C00023F001031360002070470000F0B583B0B6
:1041D000044600230193724B1D68724BA3FB053507
:1041E000AD0A876D3E68C26D08239340334210D0FC
:1041F00003681A6812F0040F0BD01A6822F0040248
:104200001A60C26D08239340BB60436D43F0010305
:104210004365E26D01239340334209D0226852691D
:1042200012F0800F04D0BB60636D43F0020363653E
:10423000E26D04239340334209D02268126812F0E1
:10424000020F04D0BB60636D43F004036365E26D4D
:1042500010239340334224D02268126812F0080FD2
:104260001FD0BB6023681A6812F4802F0DD01B6822
:1042700013F4002F04D1236C9BB12046984710E023
:10428000A36C73B1204698470BE01A6812F4807F44
:1042900003D11A6822F008021A60236C0BB1204681
:1042A0009847E26D20239340334255D0226812682C
:1042B00012F0100F50D0BB6094F83530DBB2052BF4
:1042C0000ED023681A6812F4802F33D01B6813F4C1
:1042D000002F2AD1636C002B3ED0204698473BE04C
:1042E0002268136823F0160313602268536923F0D1
:1042F00080035361236CA3B12268136823F0080381
:104300001360E26D3F239340BB60002384F8343098
:10431000012384F83530236D002B3FD02046984789
:104320003CE0A36C002BE7D1EBE7E36BA3B12046A5
:10433000984711E01A6812F4807F09D11A6822F0B8
:1043400010021A60002384F83430012384F83530D9
:10435000E36B0BB120469847636DFBB1636D13F0BF
:10436000010F17D0052384F835302268136823F035
:1043700001031360019B01330193AB4204D823680E
:104380001B6813F0010FF5D1002384F834300123AA
:1043900084F83530E36C0BB12046984703B0F0BD8C
:1043A00020000020B5814E1B074AD36823F4E06348
:1043B0001B041B0C000200F4E060034343F0BF63E6
:1043C00043F40033D360704700ED00E030B4174B86
:1043D000DB68C3F30223C3F10704042C28BF0424C1
:1043E0001D1D062D18D9033B4FF0FF3505FA04F4C7
:1043F00021EA0401994005FA03F322EA0303194371
:1044000000280BDB0901C9B200F1604000F56140F2
:1044100080F8001330BC70470023E5E700F00F0080
:104420000901C9B2024B1954F4E700BF00ED00E0E6
:1044300014ED00E0002807DB00F01F024009012313
:104440009340024A42F82030704700BF00E100E08C
:1044500008B50B4B1A6842F400721A601A6842F4ED
:1044600080621A601A6842F480721A600320FFF7B3
:104470009BFF0020FDF7AEFDFDF730FA002008BDE0
:10448000003C0240034A1168034B1B780B44136045
:10449000704700BF4C1A002019000020014B18681B
:1044A000704700BF4C1A002038B50446FFF7F6FFEE
:1044B0000546B4F1FF3F02D0044B1B781C44FFF7C4
:1044C000EDFF401BA042FAD338BD00BF1900002009
:1044D0000B4B1B680B4AA2FB03235A0A41F2883399
:1044E00003FB02F31A46013B3AB1426B12F0800F14
:1044F000F8D0C5238363002070474FF00040704719
:1045000020000020D34D62100146144B1B68144A52
:10451000A2FB03235A0A41F2883303FB02F31A4633
:10452000013BBAB14A6B12F0450FF8D012F4006F9C
:10453000F5D14B6B13F0040F06D1486B10F001005E
:1045400005D1C5238B637047042088637047012021
:10455000886370474FF00040704700BF2000002084
:10456000D34D62100146104B1B68104AA2FB032377
:104570005A0A41F2883303FB02F31A46013B82B127
:104580004A6B12F0450FF8D012F4006FF5D1486B6A
:1045900010F0040002D1C5238B63704704208863A8
:1045A00070474FF00040704720000020D34D62104C
:1045B0000146164B1B68164AA2FB03235A0A41F216
:1045C000883303FB02F31A46013BE2B14A6B12F057
:1045D000450FF8D012F4006FF5D14B6B13F0040FB8
:1045E0000BD14B6B13F001030AD1486B10F0400064
:1045F0000BD040228A6318467047042088637047B6
:104600000120886370474FF0004070472000002071
:10461000D34D621084B010B402AC84E80E000B4697
:10462000039A1343049A1343059A1343069A1343B8
:10463000079A1343426822F4FD4222F07F0213439B
:10464000436000205DF8044B04B07047D0F8800050
:1046500070470B68C0F880300020704708B503230E
:1046600003600220FFF720FF002008BD0346002062
:1046700018607047006800F0030070470B688360A3
:104680004B688A681343CA6813430A691343C268B4
:1046900022F47F6222F00F021343C36000207047B0
:1046A0000069C0B2704714304058704738B50446AE
:1046B0000D46504B1B685049A1FB03135B0A02FBDC
:1046C00003F21346013A002B5DD0636B13F0450FE4
:1046D000F7D013F4006FF4D1636B13F0040F06D11D
:1046E000636B13F0010F05D00120A0634DE004209F
:1046F000A0634AE0C523A3632046FFF7D1FFA84289
:1047000001D0012041E000212046FFF7CCFF034605
:104710003A481840C8B3002B38DB13F0804F38D12B
:1047200013F0005F37D113F0805F36D113F0006FC4
:1047300036D113F0806F36D113F0807F36D113F469
:10474000000F36D113F4800F36D113F4001F36D189
:1047500013F4801F36D113F4802F36D113F4003FA9
:1047600036D113F4803F36D113F4004F36D113F411
:10477000804F36D113F4005F36D113F0080F36D0D6
:104780004FF4000001E04FF0004038BD4FF00070E2
:10479000FBE74020F9E78020F7E74FF48070F4E76B
:1047A0004FF40070F1E74FF48060EEE74FF40060E3
:1047B000EBE74FF48050E8E74FF40050E5E74FF4A3
:1047C0008040E2E74FF40040DFE74FF40030DCE7E1
:1047D0004FF48020D9E74FF40020D6E74FF4801043
:1047E000D3E74FF40010D0E74FF48000CDE74FF44B
:1047F0008030CAE720000020D34D621008E0FFFDA2
:10480000F8B505460E461746234B1B682348A0FB08
:104810000323580A41F2883303FB00F31C46013B93
:104820008CB36C6B14F0450FF8D014F4006FF5D115
:104830006B6B13F0040F06D16B6B13F0010F05D0F7
:104840000120A86321E00420A8631EE02846FFF7AA
:1048500027FFB04201D0012017E0C523AB63002140
:104860002846FFF720FF034610F4604008D013F4F9
:10487000804F0BD113F4004F0BD04FF4805004E065
:104880001B0C3B8001E04FF00040F8BD4FF400509E
:10489000FBE74FF48030F8E720000020D34D621092
:1048A0000B6843624B6883628B68CA6813430A696A
:1048B00013434A691343C26A22F0F7021343C362E7
:1048C0000020704730B587B004460191102502954D
:1048D00040230393002304934FF48063059301A9BD
:1048E000FFF7CCFE41F2883229462046FFF7DEFE74
:1048F00007B030BD30B587B004460191112502954F
:1049000040230393002304934FF48063059301A98C
:10491000FFF7B4FE41F2883229462046FFF7C6FE73
:1049200007B030BD30B587B004460191122502951D
:1049300040230393002304934FF48063059301A95C
:10494000FFF79CFE41F2883229462046FFF7AEFE73
:1049500007B030BD30B587B00446019118250295E7
:1049600040230393002304934FF48063059301A92C
:10497000FFF784FE41F2883229462046FFF796FE73
:1049800007B030BD30B587B00446019119250295B6
:1049900040230393002304934FF48063059301A9FC
:1049A000FFF76CFE41F2883229462046FFF77EFE73
:1049B00007B030BD30B587B00446002301930C2505
:1049C00002954022039204934FF48063059301A95A
:1049D000FFF754FE034A29462046FFF767FE07B05B
:1049E00030BD00BF00E1F50530B587B00446019247
:1049F0000725029540230393002304934FF480631B
:104A0000059301A9FFF73AFE41F288322946204674
:104A1000FFF74CFE07B030BD10B586B0044600234A
:104A200001930293039304934FF48063059301A9C8
:104A3000FFF724FE2046FFF74BFD06B010BD10B572
:104A400086B004464FF4D5730193082302934023A4
:104A50000393002304934FF48063059301A9FFF7A8
:104A60000DFE2046FFF7A4FD06B010BD30B587B09F
:104A700004460191372502954023039300230493B4
:104A80004FF48063059301A9FFF7F8FD41F28832E6
:104A900029462046FFF70AFE07B030BD10B586B0A4
:104AA000044641F0004141F4801101912923029311
:104AB00040230393002304934FF48063059301A9DB
:104AC000FFF7DCFD2046FFF74DFD06B010BD30B509
:104AD00087B00446019106250295402303930023E5
:104AE00004934FF48063059301A9FFF7C7FD41F2DA
:104AF000883229462046FFF7D9FD07B030BD30B5D2
:104B000087B0044600230193332502954022039287
:104B100004934FF48063059301A9FFF7AFFD41F2C1
:104B2000883229462046FFF7C1FD07B030BD10B5D9
:104B300086B004460023019302220292C02203920F
:104B400004934FF48063059301A9FFF797FD204676
:104B5000FFF7DAFC06B010BD10B586B0044601912F
:104B600009230293C0230393002304934FF480632B
:104B7000059301A9FFF782FD2046FFF7C5FC06B0AB
:104B800010BD70B586B004460D4600230193032680
:104B900002964022039204934FF48063059301A987
:104BA000FFF76CFD2A4631462046FFF729FE06B086
:104BB00070BD30B587B0044601910D2502954023A4
:104BC0000393002304934FF48063059301A9FFF737
:104BD00055FD41F2883229462046FFF767FD07B0B0
:104BE00030BD704770B582B0044600230193006861
:104BF000FFF712FF054610B1284602B070BD2068CD
:104C0000FFF71DFF38B90123A364A36C012B0BD060
:104C10002E46284614E00023A3642068FFF7FCFE1C
:104C20000028F2D00546E7E700212068FFF71EFFC5
:104C30000028EDD04FF08055DEE7019B0133019352
:104C4000019A4FF6FE739A4213D896B90021206854
:104C5000FFF70CFFE0B912492068FFF71FFF064677
:104C6000C0B900212068FFF71EFDC30FE5D01E4626
:104C7000E3E7019A4FF6FE739A420ED810F0804394
:104C800002D001236364B7E7002262641D46B3E7E4
:104C90000546B1E74FF08055AEE74FF08075ABE7C2
:104CA000000010C108B50068FFF7E0FC08BDF8B5CA
:104CB000846AC66AAEB1074600250EE03868FFF781
:104CC000C5FC2070C0F307236370C0F30743A370D3
:104CD000000EE0700434043E0135072DEED9BC62AD
:104CE000FE62F8BDF0B583B0046A466ADEB10746DD
:104CF000002514E023780193627843EA02230193AC
:104D0000A27843EA02430193E27843EA0263019303
:104D10000434043E01A93868FFF79BFC0135072DD8
:104D2000E8D93C627E6203B0F0BDF0B589B00446BC
:104D30000F46FFF7B3FB06460023009301930821BB
:104D40002068FFF7BFFD054610B1284609B0F0BD49
:104D5000216D09042068FFF789FE05460028F4D17B
:104D60004FF0FF330293082303933023049302236D
:104D70000593002306930123079302A92068FFF7F8
:104D80008FFD2068FFF7BBFE054658B1DDE7FFF752
:104D90005DFC4DF825000135FFF780FB831BB3F167
:104DA000FF3F3DD02068426B40F22A431A4204D1B3
:104DB000436B13F4001FEFD0E9E7436B13F0080FC8
:104DC00025D1436B13F0020F24D1456B15F020055C
:104DD00023D140F23A538363019A130203F47F0311
:104DE00043EA0263110A01F47F410B4343EA126371
:104DF0003B60009A130203F47F0343EA0263110A43
:104E000001F47F410B4343EA12637B609DE7082571
:104E100085639AE70225856397E72025856394E7F4
:104E20004FF0004591E710B582B004460021009193
:104E300001910068FFF737FC10F0007F13D169463D
:104E40002046FFF772FF80B9019B13F4802F0ED02C
:104E5000216D09042068FFF709FE30B9022120689E
:104E6000FFF735FE01E04FF4006002B010BD4FF0D7
:104E70008060FAE710B582B00446002100910191EC
:104E80000068FFF710FC10F0007F13D16946204640
:104E9000FFF74BFF80B9019B13F4803F0ED0216DCB
:104EA00009042068FFF7E2FD30B900212068FFF710
:104EB0000EFE01E04FF4006002B010BD4FF08060C4
:104EC000FAE770B581B104460E46016D0904006829
:104ED000FFF76FFE054608B1284670BD0021206827
:104EE000FFF7E1FB3060F7E74FF00065F4E7000003
:104EF000B0B110B50446032380F83430FFF7D2FE7A
:104F0000D4F8983043B1D4F8983020469847002020
:104F1000A06384F8340010BD024BC4F89830F2E767
:104F200001207047411B00082DE9F04F87B004466F
:104F30000D4616469946DDF840A0FFF7AFFA3DB39F
:104F4000804694F83470FFB2012F40F015810023A1
:104F5000A36306EB0903E26D93421FD8032384F891
:104F6000343023680022DA62636C012B00D07602B1
:104F70004FF400712068FFF7A5FCA0B123688349B6
:104F80009963A36B0343A363012384F83430F8E0EF
:104F9000A36B43F00063A3630127F2E0A36B43F02C
:104FA0000073A363EDE04FF0FF3300934FEA492312
:104FB000019390230293022303930023049301237C
:104FC000059369462068FFF76BFCB9F1010F09D919
:104FD0000223236331462068FFF7A4FC48B9DDF8BB
:104FE00004B02DE00123236331462068FFF782FCE3
:104FF000F4E72368654A9A63A36B1843A06301230F
:1050000084F8343000232363BBE02068FFF71EFBE5
:105010002870C0F307236B70C0F30743AB70000E1A
:10502000E8700435ABF1040B0136072EEDD9FFF71C
:1050300035FAA0EB0800504510D2BAF1000F0DD0A0
:105040002068466B40F22A331E4015D1436B13F49F
:10505000004FECD0BBF1000FE9D0E6E723684B4AE4
:105060009A63A36B43F00043A363012384F83430B5
:1050700000232363032784E0436B13F4807F05D070
:10508000B9F1010F02D9636C032B38D123685A6B35
:1050900012F0080F44D15A6B12F0020F4CD15A6B28
:1050A00012F0200F54D12068436B13F4001F5BD023
:1050B000BBF1000F58D0FFF7C9FA2870C0F30723DF
:1050C0006B70C0F30743AB70000EE8700435ABF1B2
:1050D000040BFFF7E3F9A0EB0800504502D2BAF148
:1050E000000FE0D12368294A9A63A36B43F0004381
:1050F000A363012384F834300023236341E0FFF7E6
:1051000059FC03460028C1D0226820499163A26B54
:105110001343A363012384F834300023236330E076
:105120001A4A9A63A36B43F00803A363012384F82C
:1051300034300023236324E0144A9A63A36B43F0C2
:105140000203A363012384F834300023236318E0AF
:105150000E4A9A63A36B43F02003A363012384F8F0
:105160003430002323630CE040F23A53836301237D
:1051700084F83430002704E0A36B43F00053A363AA
:105180000127384607B0BDE8F08F00BFFF0540009B
:105190002DE9F04F89B004460D4616469946FFF7B3
:1051A0007DF93DB3804694F83470FFB2012F40F092
:1051B000EF800023A36306EB0903E26D93421FD83F
:1051C000032384F8343023680022DA62636C012BF5
:1051D00000D076024FF400712068FFF773FBA0B196
:1051E000236870499963A36B0343A363012384F885
:1051F0003430D2E0A36B43F00063A3630127CCE01B
:10520000A36B43F00073A363C7E04FF0FF33029337
:105210004FEA4923039390230493002305930693B5
:105220000123079302A92068FFF73AFBB9F1010FA8
:105230000CD92023236331462068FFF7A3FB824665
:10524000BAF1000F0AD1DDF80CB031E0102323636E
:1052500031462068FFF77EFB8246F1E72368514A1A
:105260009A63A06B40EA0A00A063012384F83430FB
:105270000023236391E02B786A7843EA0223AA781B
:1052800043EA0243EA7843EA026301930435ABF14F
:10529000040B01A92068FFF7DCF90136072EEAD9D3
:1052A000FFF7FCF8A0EB0800129B98420ED26BB1FE
:1052B0002068466B40F21A331E4015D1436B13F43D
:1052C000804FEDD0BBF1000FEAD0E7E72368354A05
:1052D0009A63A06B40EA0A00A063012384F834308B
:1052E00000232363032758E0436B13F4807F05D02A
:1052F000B9F1010F02D9636C032B18D123685A6BE3
:1053000012F0080F24D15A6B12F0020F2CD15A6BF5
:1053100012F0100F34D0234A9A63A36B43F01003AA
:10532000A363012384F834300023236335E0FFF7BF
:1053300041FB03460028E1D022681A499163A26B21
:105340001343A363012384F834300023236324E050
:10535000144A9A63A36B43F00803A363012384F800
:1053600034300023236318E00E4A9A63A36B43F0A2
:105370000203A363012384F83430002323630CE089
:1053800040F23A529A63012384F83430002704E053
:10539000A36B43F00053A3630127384609B0BDE86F
:1053A000F08F00BFFF05400010B4436E9B0F0B70E1
:1053B000436EC3F383634B7090F8673003F00303CD
:1053C0008B7090F86630CB7090F865300B7190F868
:1053D00064304B71836E1B0DCB80B0F86A3003F0E4
:1053E0000F030B72836EC3F3C0334B72836EC3F330
:1053F00080338B72836EC3F34033CB72836EC3F3FF
:1054000000330B7300234B73436C002B40F08880F8
:10541000826E40F6FC7303EA8203C26E43EA927323
:105420000B61C36EC3F3C2630B7590F86F3003F06A
:1054300007034B75C36EC3F342538B75C36EC3F33F
:105440008243CB75C36EC3F3C2330B760B69013352
:1054500043650A7E02F00702023203FA02F2426555
:105460000B7A03F00F040123A34083655B0A03FB5F
:1054700002F3C3654FF400730366C36EC3F3803356
:105480004B76C36EC3F3C6138B76C36E03F07F03F4
:10549000CB76036FDB0F0B77036FC3F341734B774F
:1054A000036FC3F382638B77036FC3F38353CB77AD
:1054B000036FC3F3405381F82030002381F821307B
:1054C000B0F8722002F0010281F82220026FC2F3CC
:1054D000C03281F82320026FC2F3803281F8242089
:1054E000026FC2F3403281F82520026FC2F300320E
:1054F00081F82620026FC2F3812281F82720026FF3
:10550000C2F3012281F82820026FC2F3460281F81B
:105510002920012281F82A2018465DF8044B7047A3
:10552000012B11D1836E1B0403F47C13B0F86E20A1
:1055300013430B610B6901339B024365C3654FF451
:1055400000738365036698E70368054A9A63836B73
:1055500043F080538363012380F834301846DCE73E
:10556000FF05400070B590B004460123ADF812303D
:105570000068FFF77FF800286CD0636C032B45D1DF
:10558000636C032B5DD1636C032B1DD0BDF812102F
:10559000216509042068FFF7DFFA054600285BD182
:1055A00000212068FFF77FF8606604212068FFF77C
:1055B0007AF8A06608212068FFF775F8E0660C21EC
:1055C0002068FFF770F8206704212068FFF76BF868
:1055D000000DE06405A92046FFF7E6FE00283ED155
:1055E000226D120400232068FFF7FEF9054698BBE0
:1055F000234653F8106B93E807008DE80700043446
:1056000094E80E003046FFF705F825E02068FFF724
:105610008EFA054600BB00212068FFF744F860675A
:1056200004212068FFF73FF8A06708212068FFF7F2
:105630003AF8E0670C212068FFF735F8C4F88000DD
:105640009EE70DF112012068FFF79BFA054600283E
:1056500099D001E04FF08065284610B070BD4FF042
:105660008055F9E770B58AB004460023049305938A
:10567000069307930893762309930AAB13E907006F
:105680008DE8070004AB0ECB2068FEF7C3FF18B10E
:10569000012528460AB070BD05460F4E0023336031
:1056A0002068FEF7DBFF012333602046FFF79AFAFC
:1056B00030B1012584F83450A36B0343A363E8E7BA
:1056C0002046FFF74FFF0028E3D0012584F834502F
:1056D000A36B0343A363DCE7A080254248B310B566
:1056E000044690F834309BB90377144BC0F88430EB
:1056F000134BC0F88830134BC0F88C30124BC0F8F5
:105700009030D0F8943083B1D4F894302046984744
:10571000032384F834302046FFF7A4FF58B9A06370
:105720002063012384F8343010BD084BC0F8943056
:10573000EAE7012070470120F6E700BF29140008BE
:1057400033140008E34B00081F140008391A00083E
:10575000436C0B60836C4B60C36C8B60036DCB60E0
:10576000436D0B61836D4B61C36D8B61036ECB61C8
:105770000020704730B58BB004460D46032380F8F7
:105780003430436C032B1CD0B1F5805F08D0B1F5E9
:10579000006F0AD079B1836B43F00063836314E038
:1057A000836B43F0805383630FE0FFF73CFBA36BF5
:1057B0000343A36309E0FFF75DFBA36B0343A3630C
:1057C00003E0836B43F080538363A36B3BB1236897
:1057D000104A9A63012084F834000BB030BD63682E
:1057E0000493A3680593E368069307956369089398
:1057F000A36909930AAB13E907008DE8070004AB1E
:105800000ECB2068FEF706FF012384F83430002019
:10581000E3E700BFFF05400010B582B00446002357
:10582000019301A9FFF74DFB10B1A36B0343A363E1
:105830000198C0F3432002B010BD10B5846B2368FB
:1058400040F23A529A632046FFF7E6FF012384F8BC
:105850003430002323630538012806D9A36B5BB9D4
:10586000D4F890302046984710BD2068FFF7A2F882
:10587000A36B0343A363F1E7D4F88C302046984729
:10588000F2E710B5846B236840F23A529A632046DF
:10589000FFF7C2FF012384F8343000232363053867
:1058A000012806D9A36B5BB9D4F8903020469847FD
:1058B00010BD2068FFF77EF8A36B0343A363F1E7F5
:1058C000D4F88C3020469847F2E7000038B50446FB
:1058D000056B03685A6B12F4004F02D015F0080FE5
:1058E00029D15A6B12F4807F5DD04FF480729A6395
:1058F0002268D36B23F4434323F03A03D363226833
:10590000D36A23F00103D36215F0080F28D015F0F5
:10591000220F13D1236840F23A529A63012384F88C
:1059200034300023236315F0030F14D0D4F88830EB
:105930002046984701E0FFF7BAF938BD2068FFF725
:1059400039F80028E6D0A36B0343A363D4F88C3066
:1059500020469847DEE7D4F8843020469847ECE7A5
:1059600015F0800FE9D015F0200F0FD115F0030FBF
:10597000E3D12268D36A23F00803D362012384F8B9
:105980003430D4F8843020469847D6E72068FFF7B3
:1059900011F80028EAD0A36B0343A363D4F88C303A
:1059A00020469847E2E75A6B12F4804F02D015F078
:1059B000080F49D1596B40F23A221142BDD05A6BBF
:1059C00012F0020F03D0A26B42F00202A2635A6BE4
:1059D00012F0080F03D0A26B42F00802A2635A6BC8
:1059E00012F0200F03D0A26B42F02002A2635A6B88
:1059F00012F0100F03D0A26B42F01002A2635A6B98
:105A000012F4007F03D0A26B42F00802A26340F2BE
:105A10003A729A632268D36B23F44E7323F0020325
:105A2000D3632068FEF7C6FFA36B0343A36315F09F
:105A3000080F0DD0012384F8343000232363D4F8F9
:105A40008C302046984778E72046FFF74BF974E7FB
:105A500015F0800F3FF471AF15F0300F0DD115F038
:105A6000030F17D10023A363012284F8342023639A
:105A7000D4F89030204698475FE7E36B0C4A1A65EC
:105A8000E06BFEF78FFB00283FF457AFE06BFFF7AA
:105A9000D4FE52E7236C074A1A65206CFEF782FB9E
:105AA00000283FF44AAF206CFFF7EBFE45E700BF4C
:105AB0003B5800088358000870470268D36843F0D9
:105AC0000103D3600268936803F00703062B03D039
:105AD000136843F00103136000207047704770475C
:105AE0007047704710B5044603681A6912F0020F38
:105AF00011D0DA6812F0020F0DD06FF002021A61B5
:105B00000123037703689B6913F0030F70D0FFF73D
:105B1000E6FF0023237723681A6912F0040F12D0DE
:105B2000DA6812F0040F0ED06FF004021A6102233B
:105B3000237723689B6913F4407F5FD02046FFF7EB
:105B4000CEFF0023237723681A6912F0080F12D0C2
:105B5000DA6812F0080F0ED06FF008021A61042301
:105B600023772368DB6913F0030F4ED02046FFF73D
:105B7000B6FF0023237723681A6912F0100F12D0A2
:105B8000DA6812F0100F0ED06FF010021A610823BD
:105B900023772368DB6913F4407F3DD02046FFF76D
:105BA0009EFF0023237723681A6912F0010F03D0A8
:105BB000DA6812F0010F36D123681A6912F0800FEB
:105BC00003D0DA6812F0800F34D123681A6912F01A
:105BD000400F03D0DA6812F0400F32D123681A69FF
:105BE00012F0200F03D0DA6812F0200F30D110BD70
:105BF000FFF774FF2046FFF773FF8AE72046FFF7A1
:105C00006DFF2046FFF76CFF9BE72046FFF766FF1E
:105C10002046FFF765FFACE72046FFF75FFF204611
:105C2000FFF75EFFBDE76FF001021A612046FBF748
:105C3000B5FBC1E76FF080021A61204600F08FF8D3
:105C4000C3E76FF040021A612046FFF74AFFC5E73D
:105C50006FF020021A61204600F080F8C7E70000CC
:105C60000368304A904212D0B0F1804F0FD0A2F5B5
:105C70007C4290420BD002F58062904207D002F540
:105C80008062904203D002F57842904203D123F023
:105C900070034A681343234A90422AD0B0F1804FE0
:105CA00027D0A2F57C42904223D002F58062904238
:105CB0001FD002F5806290421BD002F578429042DC
:105CC00017D002F57052904213D002F580629042D4
:105CD0000FD002F5806290420BD0A2F5983290422C
:105CE00007D002F58062904203D002F580629042B4
:105CF00003D123F44073CA68134323F080034A6935
:105D0000134303608B68C3620B688362054B984240
:105D100003D003F58063984201D10B69036301232B
:105D20004361704700000140B0B110B5044690F8DF
:105D30003D3063B1022384F83D30214651F8040B15
:105D4000FFF78EFF012384F83D30002010BD80F85E
:105D50003C30FFF7B1FEEDE7012070477047704718
:105D600070B504460268136923F44053C1680B43BD
:105D7000136183680269134342691343C2691A437A
:105D80000168CB6823F4164323F00C031343CB6064
:105D90000268536923F4407381690B435361C369FB
:105DA000B3F5004F36D00368654A934200F09A80FD
:105DB00002F58062934200F09580FDF77BFE00269D
:105DC000051846EB06012D1846EB0101CB0043EA0E
:105DD0005573EA001546194663689A009B0F281808
:105DE00046EB0101FAF79AFE564DA5FB0032510928
:105DF000642303FB11031B013233A5FB03235B095F
:105E000003F0F00202EB011203F00F0321681344C8
:105E10008B6093E003684A4A934233D002F5806274
:105E200093422FD0FDF746FE0026051846EB0601EB
:105E30002D1846EB0101CB0043EA5573EA001546E5
:105E4000194662683346921846EB0303281846EB5E
:105E50000101FAF763FE3B4DA5FB003251096423B3
:105E600003FB1103DB003233A5FB03235B095A005C
:105E700002F4F87202EB011203F0070321681344E5
:105E80008B605BE0FDF726FE0026051846EB060159
:105E90002D1846EB0101CB0043EA5573EA00154685
:105EA000194662683346921846EB0303281846EBFE
:105EB0000101FAF733FE234DA5FB0032510964239B
:105EC00003FB1103DB003233A5FB03235B095A00FC
:105ED00002F4F87202EB011203F007032168134485
:105EE0008B602BE0FDF7F6FD0026051846EB06015A
:105EF0002D1846EB0101CB0043EA5573EA00154625
:105F0000194663689A009B0F281846EB0101FAF7BF
:105F100005FE0C4DA5FB00325109642303FB110360
:105F20001B013233A5FB03235B0903F0F00202EBF4
:105F3000011203F00F03216813448B6070BD00BF92
:105F4000001001401F85EB512DE9F84305460F462F
:105F500016469946DDF820802C68246837EA040349
:105F60000CBF01240024B4421FD1B8F1FF3FF3D08D
:105F7000B8F1000F05D0FEF791FAA0EB09004045FB
:105F8000EAD92A68D36823F4D073D3602A685369A6
:105F900023F001035361202385F8393085F83A3026
:105FA000002385F83830032000E00020BDE8F883A6
:105FB00058B310B5044690F839300BB3242384F855
:105FC00039302268D36823F40053D3602046FFF7AA
:105FD000C7FE2268136923F4904313612268536952
:105FE00023F02A0353612268D36843F40053D3603B
:105FF0000020E063202384F8393084F83A3010BD63
:1060000080F83830FBF7C0FDD8E7012070472DE954
:10601000F04383B01E4690F83930DBB2202B59D1C3
:1060200004460D469046002958D0002A58D090F8D2
:106030003830012B56D0012380F838304FF000095A
:10604000C0F83C90212380F83930FEF727FA074644
:10605000A4F82480A4F8268084F8389017E00096ED
:106060003B46002280212046FFF76EFF00283BD1EF
:106070002B882268C3F30803536023690BB90235E8
:1060800005E0013503E015F8012B23685A60E38C25
:106090009BB29BB1E28C92B2013A92B2E284A368C5
:1060A000B3F5805FDBD000963B460022802120467E
:1060B000FFF74AFF0028E6D003200CE000963B469D
:1060C000002240212046FFF73FFF78B9202384F8C3
:1060D000393000E0022003B0BDE8F0830120FAE788
:1060E0000120F8E70220F6E70320F4E70320F2E7B7
:1060F0002DE9F04383B01E4690F83A30DBB2202BF6
:106100005DD104460D46904600295CD0002A5CD043
:1061100090F83830012B5AD0012380F838304FF0F6
:106120000009C0F83C90222380F83A30FEF7B6F917
:106130000746A4F82C80A4F82E8084F838901DE03F
:1061400000963B46002220212046FFF7FDFE002856
:106150003FD1236933B923685B68C3F3080325F88B
:10616000023B0BE023685B68DBB225F8013B05E0EE
:1061700023685B6803F07F0305F8013BE38D9BB266
:10618000C3B1E28D92B2013A92B2E285A368B3F54F
:10619000805FD5D000963B46002220212046FFF7A5
:1061A000D3FEC0B92369002BE2D123685B6805F8F0
:1061B000013BE3E7202384F83A30002000E002208E
:1061C00003B0BDE8F0830120FAE70120F8E70220E0
:1061D000F6E70320F4E70320F2E7002800F0A180AF
:1061E00038B5044690F82030D3B12268136823F004
:1061F00002031360FEF752F9054623685A6812F04D
:10620000020F10D0FEF74AF9401B0A28F5D9636A3D
:1062100043F400336362052384F82030012038BD45
:10622000FBF778FBE1E71A6842F001021A60FEF71B
:1062300035F9054623685A6812F0010F0DD1FEF7B3
:106240002DF9401B0A28F5D9636A43F400336362D1
:10625000052384F820300120E1E7227E012A3DD089
:106260001A6822F080021A60637E012B3BD02268FC
:10627000136823F040031360A37E012B39D02268FA
:10628000136823F020031360E37E012B37D02268CC
:10629000136843F010031360237F012B35D022686D
:1062A000136823F008031360637F012B33D0226847
:1062B000136823F004031360A368E26813432269A0
:1062C0001343626913436268013A21681343CB6147
:1062D00000206062012384F82030A0E71A6842F0B1
:1062E00080021A60C0E72268136843F0400313601D
:1062F000C2E72268136843F020031360C4E72268F2
:10630000136823F010031360C6E72268136843F094
:1063100008031360C8E72268136843F0040313609E
:10632000CAE70120704738B504460268D36823F0F5
:10633000A003D360FEF7B2F805462368DB6813F0CC
:10634000200F07D1FEF7AAF8401BB0F57A7FF4D9E9
:10635000032000E0002038BD38B50368DA6812F089
:10636000400F01D0002038BD04464FF0FF32DA6004
:10637000FEF794F805462368DB6813F0400F07D159
:10638000FEF78CF8431BB3F57A7FF4D90320EAE7D4
:106390000020E8E738B500285CD00446437F002B96
:1063A00041D0022363772368CA225A6223685322AA
:1063B0005A622046FFF7D0FF0546002837D12268F1
:1063C000936823F4E00323F04003936021688A6814
:1063D0006368206903436069034313438B60236848
:1063E000E2681A6122681369A16843EA01431361F4
:1063F0002268D36823F08003D36023689B6813F07E
:10640000200F1BD02268136C23F4802313642268AE
:10641000136CA1690B4313642368FF225A620123A2
:106420006377284638BD0377FBF7F8FAB9E72368A6
:10643000FF225A62042363770125F2E72046FFF723
:1064400072FF0028DED02368FF225A62042363779C
:106450000125E6E70125E4E70023092803D90133F4
:106460000A38C0B2F9E71B01DBB218437047F8B530
:10647000037F012B78D004460E46012303770223C5
:106480004377002A47D103689B6813F0400F01D17E
:106490000023CB703078FFF7DFFF05047078FFF73B
:1064A000DBFF45EA0025B078FFF7D6FF0543F0781B
:1064B00045EA00452368CA225A62236853225A6279
:1064C0002046FFF749FF0746002836D1236805F02C
:1064D0007F3525F0FE451D602268936823F48023F4
:1064E000936021688B68F2683069024313438B60C4
:1064F0002268D36823F08003D36023689B6813F07D
:10650000200F23D02368FF225A62012363770023E0
:1065100023773846F8BD03689B6813F0400F01D11C
:106520000023CB7035787078000240EA0540B578DA
:106530002843F57840EA0545BCE72368FF225A6204
:1065400004236377002323770127E2E72046FFF740
:10655000EAFE0028D6D02368FF225A62042363771C
:10656000002323770127D4E70227D2E770B5037F02
:10657000012B66D004460E4601230377022343779E
:106580003AB94B7813F0100F03D003F0EF030A333E
:106590004B70002A33D1F078FFF75EFF0504707866
:1065A000FFF75AFF45EA0025B078FFF755FF05438E
:1065B000307845EA40352368CA225A62236853225C
:1065C0005A622046FFF7C8FE064618BB236825F02E
:1065D0007F4525F0C0055D602268D36823F0800305
:1065E000D36023689B6813F0200F1CD02368FF2220
:1065F0005A620123637700232377304670BDF57814
:106600007078000240EA0540B5782843357840EAC2
:106610004535D0E72368FF225A62042363770023BD
:1066200023770126E9E72046FFF77DFE0028DDD02D
:106630002368FF225A62042363770023237701260D
:10664000DBE70226D9E7030903EB830300F00F0021
:1066500000EB4300C0B2704770B50C4603689B6AFC
:106660004B6003681B69C3F30E038B6003681D68EE
:10667000C5F30641C5F305402070C5F306266670D4
:1066800005F07F05A57001F04003E37052B9FFF7F4
:10669000DAFF20703046FFF7D6FF60702846FFF71C
:1066A000D2FFA070002070BD70B503685B68C3F3B3
:1066B0000740C870C3F304264E7003F03F058D7089
:1066C000C3F342330B705AB90C46FFF7BCFFE070BE
:1066D0003046FFF7B8FF60702846FFF7B4FFA070A0
:1066E000002070BD0368503343F82120704700003C
:1066F0004A4B5A6822F440325A605A6841680A4349
:106700005A600268536823F48073536002685368C8
:10671000016943EA012353600268536823F0407320
:1067200053600268536881680B4353600268936842
:1067300023F40063936002689368C1680B4393601D
:10674000826A374B9A4257D00268936823F070638D
:10675000936002689368816A0B4393600268936850
:1067600023F04053936002689368C16A0B439360BF
:106770000268936823F00203936002689368017EC5
:1067800043EA4103936090F82030002B3FD0026829
:10679000536843F4006353600268536823F4604312
:1067A000536001684B68426A013A43EA42334B60E6
:1067B0000268D36A23F47003D3620168CB6AC269AA
:1067C000013A43EA0253CB620268936823F40073F0
:1067D00093600268936890F8301043EA4123936015
:1067E0000268936823F48063936002689368416948
:1067F00043EA8123936070470268936823F07063D3
:1068000093600268936823F040539360B0E7026896
:10681000536823F400635360CAE700BF00230140BC
:106820000100000F704738B310B50446036C43B144
:10683000236C13F0100F0BD00120002384F83C30A0
:1068400010BDFFF7EFFF0023636484F83C30EFE7EF
:10685000236C23F4885323F0020343F002032364E0
:106860002046FFF745FF00206064236C23F00303FC
:1068700043F001032364E0E70120704730B482B0A5
:106880000023019390F83C30012B00F0B7800123E6
:1068900080F83C300B68092B3ED90568EA689BB24A
:1068A00003EB43031E3B072404FA03F322EA03032A
:1068B000EB600568EA688C680B8803EB43031E3BBA
:1068C00004FA03F31343EB604B68062B3AD80568D0
:1068D0006A6B03EB8303053B1F2404FA03F322EAEC
:1068E00003036B6305686A6B4B6803EB8303053B2B
:1068F0000C8804FA03F313436B630268404B9A421B
:1069000050D002683E4B9A4255D0002380F83C306C
:10691000184602B030BC704705682A699BB203EB89
:106920004303072404FA03F322EA03032B610568F7
:106930002A698C680B8803EB430304FA03F31343BF
:106940002B61C1E70C2B16D805682A6B03EB830378
:10695000233B1F2404FA03F322EA03032B63056895
:106960002A6B4B6803EB8303233B0C8804FA03F385
:1069700013432B63C1E70568EA6A03EB8303413BDA
:106980001F2404FA03F322EA0303EB620568EA6AB0
:106990004B6803EB8303413B0C8804FA03F3134376
:1069A000EB62AAE70B68122BABD1164A536843F48B
:1069B00080035360A5E70B68103B012BA5D8114A53
:1069C000536843F4000353600B68102B9DD10E4BAA
:1069D0001B6802F1467202F52E3202F28332A2FBEC
:1069E00003239B0C03EB83035B00019302E0019BF9
:1069F000013B0193019B002BF9D186E7022088E738
:106A0000002001400023014020000020054BD3F866
:106A1000882042F47002C3F888204FF000629A6028
:106A2000704700BF00ED00E008B5044B03EB8002A7
:106A3000526852680344187A904708BD78010020D4
:106A400008B5084B1B5C53B9064B01221A5403EBE3
:106A50008002526812681844007A904708BD0020EE
:106A6000FCE700BF7801002038B5044C04EB80053A
:106A70006D68AD680444207AA84738BD78010020CD
:106A800038B5044C04EB80056D68ED680444207A49
:106A9000A84738BD7801002010B5044B03EB8004F3
:106AA000646824690344187AA04710BD7801002067
:106AB0004278007840EA02207047C278837843EA3F
:106AC0000222437843EA0223007840EA0320704719
:106AD00030B4C479827942EA0422447944EA02213A
:106AE000C2F30743047944EA01211B0243EA11631C
:106AF000C47844EA01211B0243EA1163847844EA22
:106B000001211B0243EA1163447844EA01211B027C
:106B1000047844EA012043EA116130BC70470170F7
:106B2000090A417070470170C1F307234370C1F334
:106B300007438370090EC17070470270C2F30721CA
:106B40004170C2F307418170120EC2700371C3F32A
:106B500007224271C3F3074282711B0EC371704753
:106B600010B414462AB10A78013102700130013C98
:106B7000F9D15DF8044B704701700130013AFBD147
:106B8000704710B40446207801340B780131C01AE4
:106B9000013A01D00028F6D05DF8044B7047034657
:106BA000187818B1884201D00133F9E77047000026
:106BB00030B400252B4601E001250133052B15D803
:106BC0001A01174CA258002AF6D00468A242F4D148
:106BD000134A02EB0312546882689442EDD1104AC2
:106BE00002EB03129468026B9442E6D1062B0AD0A2
:106BF000A1B90B4A02EB03139B89B3F5807F0BD03D
:106C0000002030BC70472DB9022901D01220F8E7CE
:106C10000020F6E70020F4E71020F2E71020F0E76C
:106C200014010020002000E00130052804D80301F1
:106C3000034AD358002BF7D1063818BF01207047FC
:106C40001401002070B4002300E00133052B13D899
:106C50001A01244CA45802689442F6D1214A02EB4E
:106C60000312546882689442EFD11E4A02EB031269
:106C70009468026B9442E8D1062B2AD021B1194ABC
:106C800002EB031292895ABB29BB164A02EB03128C
:106C90009189013189B2134A02EB03129181581C88
:106CA00070BC70470133052B04D81A010D4CA25853
:106CB000002AF7D1062B11D006680A4D1C0105EBFE
:106CC00003122E5184685460006B90600020908104
:106CD000D4E70023E7E74FF48071DCE70020DFE72B
:106CE0000020DDE7140100200138052815D80D4BE0
:106CF00003EB00139B89B3F5807F03D01BB1013BED
:106D00009BB200E00023074A02EB0012938133B9E3
:106D100003010020034AD050704702207047002032
:106D2000704700BF14010020002303E05DF8044B0E
:106D300070470133052B11D81A0109498A5882423C
:106D4000F7D110B41A0100248C500133052BEDD873
:106D50001A0103498A588242F7D1F3E7704700BF0E
:106D6000140100200239C36A023B8B4204D94389D3
:106D7000006C01FB030070470020704710B51946F6
:106D80000368046D0434500A5A89002340EAC15054
:106D9000490AF9F7C3FE0246206830B1824202D3A5
:106DA000121A0834F8E76068104410BD70B5064642
:106DB0000D4601F11A00FFF77BFE3378032B00D05C
:106DC00070BD044605F11400FFF772FE44EA00406E
:106DD000F6E770B506460C46154691B204F11A0066
:106DE000FFF79DFE3378032B00D070BD290C04F112
:106DF0001400FFF794FEF8E72DE9F04180460E46B7
:106E000001F11A00FFF754FE60BB357825F040050C
:106E1000013D05EB450305EB83050127002404E054
:106E200028F815000746013501340C2C0FD8114BFA
:106E3000185D3044FFF73CFE1FB1FE2DF0D9002055
:106E400011E04FF6FF739842EED000200BE033784C
:106E500013F0400F09D0FE2D09D8002328F8153073
:106E6000012000E00020BDE8F0810120FBE70020C8
:106E7000F9E700BF680401082DE9F84380460F4692
:106E800091464B730F23CB7200240C73214607F1FC
:106E90001A00FFF744FE09F1FF3606EB460306EB46
:106EA0008306254602E001340C2C11D84FF6FF73FF
:106EB0009D4202D038F8165001360C4B185D294619
:106EC0003844FFF72CFE002DEDD14FF6FF75EAE7B1
:106ED0004FF6FF739D4202D038F816300BB949F0D7
:106EE000400987F80090BDE8F88300BF68040108F6
:106EF000F0B583B0064617461C460B22FFF730FE5E
:106F0000052C11D807231FE001310F290CD803F0FD
:106F1000010505EB44045B0814F4803FF4D084F4CD
:106F2000883484F02104EFE73B88002BEAD0023755
:106F30000021EAE75A1E02A8034403F8081C2109AD
:106F40000F2C0AD913460C4604F00F0202F130014F
:106F50003929EFD902F13701ECE77E2103461344CA
:106F600003F8081C002300E00133934209D2F15CCE
:106F70002029F9D105E02020591CF054072908D810
:106F80000B46072AF7D802A9114411F8080C013260
:106F9000F2E703B0F0BD10B401460B240020C3019A
:106FA00043EA50030878013150FA83F3D8B2013C28
:106FB000F5D15DF8044B704730B405464178013196
:106FC00049010020034607E0420802EBC032EC5CB6
:106FD00014FA82F290B201338B4203D2022BF3D126
:106FE0000133F8E730BC7047016819B170B4054649
:106FF0000A4603E04FF0FF307047013213781F2B31
:1070000001D93A2BF9D13A2B02D0002070BC70473D
:107010000B4613F8010B3038092801D89A4202D0E8
:107020000132124806E0D0B901322A60EEE76EB1B3
:10703000B3420BD1067801300B780131A3F1610422
:10704000E4B2192CF3D8203BDBB2F0E756B98A4200
:1070500002D04FF0FF30D9E72A600020D6E74FF08A
:10706000FF30D3E74FF0FF30D0E700BFC403010883
:107070000160002343608360704738B50D460446C5
:1070800098B103689BB11A78A2B18188DA889142DD
:1070900003D0092000242C6038BD5878FFF7C4FCC9
:1070A00010F0010009D12468F5E70920F3E71C4638
:1070B0000920F0E709200024EDE709200024EAE791
:1070C0002DE9F041C57815B92846BDE8F0810446A0
:1070D000476C00F1480801233A4641464078FFF7E3
:1070E000CFFC054698B90023E370A36BFB1A226B13
:1070F0009342E9D2A678012EE6D9236B1F440123DF
:107100003A4641466078FFF7BBFC013EF3E70125B4
:10711000DAE770B5436C8B4202D10026304670BD71
:1071200004460D46FFF7CCFF06460028F6D10123A2
:107130002A4604F148016078FFF796FC10B1012659
:107140004FF0FF356564E9E738B504460023C370A6
:107150004FF0FF334364FFF7DCFF60BB054604F2EA
:107160004620FFF7A5FC4AF65523984225D194F80E
:107170004830E92B0ED0A36C03F0FF13114A934261
:1071800008D00B22104904F14800FFF7FAFCB8B10F
:10719000022513E004F17E00FFF78FFC20F07F4012
:1071A0000A4B98420AD004F19A00FFF786FC084B7C
:1071B0009842E6D102E0042500E00325284638BDC8
:1071C0000125FBE7EB009000C8030108464154008D
:1071D000464154332DE9F04F87B00D461646002343
:1071E0000B60FFF701FF071EC0F2B681CD4B53F8CD
:1071F0002740002C00F0B5812C6006F0FE062378B5
:1072000073B16078FFF710FC10F0010508D1002E73
:1072100000F0A38110F0040F00F09F810A259CE18B
:1072200000232370F8B26070FFF70AFC10F001052C
:1072300040F099811EB110F0040F40F096810021BA
:107240002046FFF781FF022800F0BA8000260428BC
:1072500000F08D81012800F28C8100F0428104F160
:107260005300FFF725FCB0F5007F40F0988104F152
:107270005E00FFF71DFC804620B904F16C00FFF7AB
:107280001CFC8046C4F8308094F85870A7707B1EB0
:10729000DBB2012B00F2858108FB07F794F855B0AB
:1072A000A4F80AB0BBF1000F00F07D810BF1FF33B1
:1072B0001BEA030F40F0798104F15900FFF7F8FB56
:1072C0008146208110F00F0F40F0718104F15B00C6
:1072D000FFF7EEFB824620B904F16800FFF7EDFBF3
:1072E000824604F15600FFF7E3FB0246002800F057
:1072F0006081C31903EB19139A45C0F05C81AAEBB6
:10730000030ABAFBFBF1DA45C0F057814FF6F5707E
:10731000814240F204814FF0030B40F6F570814248
:1073200001D84FF0010B01F1020AC4F82CA06663EA
:107330003244A2631E442664BBF1030F00F0F880C0
:10734000B9F1000F00F03F813A44E263BBF1020F54
:1073500000F0FF800AEB4A030AF0010A0AEB530A25
:107360000AF2FF13B8EB532FC0F02F814FF0FF3319
:10737000A36163618023237184F800B06A4A138893
:1073800001339BB21380E3800023E3612046FFF7C3
:10739000CBFCE2E0002006AB03EB860343F8100CC5
:1073A0000136032E0ED804F14800330103F5DF73D4
:1073B00018440379002BEDD00830FFF77EFBEAE795
:1073C0000026EEE700270AE031462046FFF7BCFE24
:1073D00001287FF63CAF0137032F3FF638AF06ABED
:1073E00003EB870353F8106C002EEDD10320F2E776
:1073F00001333F2B04D8E21892F84820002AF7D036
:107400003F2B40F2B88004F1B000FFF751FBB0F51C
:10741000807F40F0B28094F8B430092B40F0AF8008
:1074200004F19000FFF754FB10EB060841F100094E
:10743000B9F1010F08BFB8F1000F80F0A28004F18C
:107440009C00FFF73AFB206394F8B6B084F802B0D2
:10745000BBF1010F40F0978094F8B5304FF0010A6E
:107460000AFA03FA1FFA8AFAA4F80AA0BAF1000F7E
:1074700000F08B8004F1A400FFF71FFB07462B4BA5
:10748000984200F28480831CE362666304F1A000EA
:10749000FFF713FB83190193236404F19800FFF7AE
:1074A0000CFB0644A66307FB0AF2002311461A46AA
:1074B000019BC91842F10002914508BF884568D375
:1074C00004F1A800FFF7F9FA0146E0632046FFF750
:1074D00049FC01462046FFF71CFE00285BD1002630
:1074E00002E00B2385E72036B6F5007F0DD2A31905
:1074F00093F84830812BF6D104F1480306F11400CB
:107500001844FFF7DAFA0228EDD1B6F5007F44D02F
:107510004FF0FF33A36163614FF0040B2CE74FF092
:10752000020BFAE61001002074010020FDFFFF7F2E
:1075300004F17200FFF7BCFA002840D1B9F1000F46
:107540003FD104F17400FFF7B8FAE0634FEA8A0A0A
:1075500006E74FEA4A0A03E70B25284607B0BDE8CD
:10756000F08F0C25F9E70325F7E70A25F5E7012554
:10757000F3E70D25F1E70D25EFE70D25EDE70D25E7
:10758000EBE70D25E9E70D25E7E70D25E5E70D25F7
:10759000E3E70D25E1E75D46DFE70D25DDE70D2596
:1075A000DBE70D25D9E70D25D7E70D25D5E70D2517
:1075B000D3E70D25D1E70D25CFE70D25CDE70D2527
:1075C000CBE70D25C9E70D25C7E70D25C5E700BFAA
:1075D0002DE9F843054691468F1EC36A023BBB4224
:1075E00000D80027B8463C460026296C01EB143130
:1075F0002846FFF78EFD844640BBC4F3C80004F064
:10760000070201239340DBB209E0A0460026A7420F
:107610001FD023B90130B0F5007FE6D201232A182C
:1076200092F848201A405B00DBB20134E96A023963
:10763000A14203D8634600244FF40070002AE4D12D
:1076400001364E45E3D108F1020003E04FF0FF3070
:1076500000E00020BDE8F8832DE9F8430646174610
:1076600098468C1E016C01EB1431C4F3C80504F07C
:107670000704012303FA04F4E4B201F101093046DE
:10768000FFF747FD024610B101221EE001247319E5
:1076900093F84810214214BF01230023434513D01F
:1076A0007319614083F848100123F370013F0CD037
:1076B0009C4014F0FF04EAD11D441C46B5F5007F40
:1076C000E4D349460025D8E702221046BDE8F883F6
:1076D0002DE9F047012940F2878005460C46164601
:1076E000C36A8B4240F284800378022B69D036D87B
:1076F000012B32D101EB5108816B01EB5821FFF7CF
:1077000008FD0746002870D105F1480A08F1010973
:10771000C8F3080814F0010448D01AF9083003F03F
:107720000F03320102F47F621343DBB20AF8083020
:107730000123EB70A96B01EB59212846FFF7E9FC07
:107740000746002851D1C9F308098CB3C6F30716C0
:107750000AF809600123EB7047E0022745E0033B8C
:10776000DBB2012B46D8816B01EBD411FFF7D1FCC2
:107770000746D0BB2B78042B0CD026F0704605F1C1
:107780004800A30003F4FE731844FFF796F900F0D5
:107790007040064305F14800A40004F4FE7431462D
:1077A0002044FFF7C0F90123EB701EE0F3B2BDE700
:1077B0001AF9093023F00F03C6F303261E43F6B26D
:1077C000C6E7816B01EB1421FFF7A3FC074660B904
:1077D00005F14800640004F4FF74B1B22044FFF7DF
:1077E0009EF90123EB7000E002273846BDE8F087E0
:1077F0000227FAE70227F8E770B504460D46164659
:1078000007E03246FFF764FF034658B9E369013BDE
:10781000E361E36933B12068EA1A511C012BF0D906
:107820000232EFE7184670BDC379032B02D0002364
:107830001846704770B50646816884694CB14D1C86
:107840002A463068FFF744FF034620B9013C294629
:10785000F4E70023F371184670BDF8B505680129F7
:1078600040F294800C46EB6A8B4240F291802B7878
:10787000013B032B00F28E80DFE803F0022B3C4F2C
:1078800001EB5106A96B01EB56212846FFF741FC9D
:1078900010B14FF0FF307AE0771CC6F308062E4493
:1078A00096F84860A96B01EB57212846FFF731FC99
:1078B000002871D1C7F30800284490F8480046EA30
:1078C000002014F0010F01D0000960E0C0F30B00AC
:1078D0005DE0A96B01EB14212846FFF71AFC002894
:1078E0005DD105F14800640004F4FF742044FFF703
:1078F000DFF84CE0A96B01EBD4112846FFF709FC37
:1079000000284FD105F14800A40004F4FE7420447F
:10791000FFF7D3F820F0704039E0D0E9046756EA69
:10792000070342D08168611A16F1FF3247F1FF3632
:10793000530A43EAC6536A89B3FBF2F3C279022AB7
:1079400008D0032A0BD0022A34D0C36963B16FF088
:1079500000401CE09942F4D829D0601C17E08369EC
:107960008B42F0D9601C12E0A96B01EBD4112846C0
:10797000FFF7CFFB00BB05F14800A30003F4FE7343
:107980001844FFF79AF820F0004000E00120F8BD0D
:107990000120FCE70120FAE74FF0FF30F7E74FF056
:1079A000FF30F4E74FF0FF30F1E70120EFE76FF031
:1079B0000040ECE70120EAE74FF0FF30E7E72DE970
:1079C000F8430746D0F80080894641B9D8F81460DA
:1079D000B6B1D8F82C30B34213D8012611E0FFF726
:1079E0003CFF0546012840F2A080B0F1FF3F00F0C7
:1079F000A680D8F82C30834200F2A1804E4600E0E9
:107A0000012698F80030042B01D0344652E00122C0
:107A100031464046FFF7DCFD0546431E13F1030FD8
:107A200000F28D8001231A4601464046FFF714FEFE
:107A3000034602287BD001287BD0B9F1000F18D172
:107A40000222FA71FA79022A64D009F10102AA42EB
:107A50001BD0FB690BB90123FB612A464946384616
:107A6000FFF7CAFE0346002856D10122FA612C46D0
:107A700034E0FA79022AE5D1721CAA42E2D0BA684F
:107A8000B21ABA610322FA71DCE7FA691AB101325B
:107A9000FA612C4622E00222FAE721463846FFF737
:107AA000DCFE054678B1012849D0B0F1FF3F46D051
:107AB000B44243D00134D8F82C30A342EDD8012E83
:107AC0003AD90224E9E74FF0FF3221464046FFF75A
:107AD000FFFD034610B9B9F1000F14D1F3B9C8F88E
:107AE0001440D8F81820D8F82C30023B9A4202D81B
:107AF000013AC8F8182098F8043043F0010388F8D8
:107B0000043025461BE0224649464046FFF7E0FD8B
:107B10000346E3E72C46E1E72C46DFE7012B01D0E3
:107B200001250CE04FF0FF3509E0012507E00125B4
:107B300005E04FF0FF3502E0002500E00025284673
:107B4000BDE8F8832DE9F04106460F46D0F80080E5
:107B500098F80030042B29D04FF40013BB4245D9CC
:107B600017F01F0F44D13763B4683CB998F8003060
:107B7000022B03D9D8F83C400023F371CCB9B8F8F4
:107B80000830B3EB571F35D9D8F83C30B363746372
:107B9000B36BABB303EB5723B36308F14803C7F3ED
:107BA00008011944F1630020BDE8F0814FF08053D3
:107BB000D4E7B8F80A506D0200E07F1BAF420FD344
:107BC00021463046FFF749FE0446B0F1FF3F13D08F
:107BD000012813D9D8F82C308342EED80220E3E7ED
:107BE00021464046FFF7BEF8B063D0E70220DBE74E
:107BF0000220D9E70220D7E70120D5E70220D3E70A
:107C00000220D1E72DE9F843056801296BD9074621
:107C10000C469146EB6A8B4267D972B12B78042BE4
:107C200002D1C379022B08D04FF0FF3249462846D3
:107C3000FFF74EFD0346002858D1A04611E0002270
:107C400031462846FFF744FD0346C8B14EE0731C99
:107C5000A34203D02B78042B1ED0A046EB6AA3428C
:107C600026D9264621463846FFF7F7FD0446F8B1E7
:107C700001283ED0B0F1FF3F3DD02B78042BDED160
:107C8000AA69EB6A023B9A42E1D20132AA612B79DE
:107C900043F001032B71DAE7A6EB0802002301325F
:107CA00041462846FFF7D8FC0346F8B9A046D5E779
:107CB0002B78042B01D0002318E0B9F1000F02D17A
:107CC0000023FB7112E0FB79032B01D000230DE0B0
:107CD000BB684B4511D8BA6913444B450FD30223F7
:107CE000FB71002302E0022300E002231846BDE8F6
:107CF000F8830223FAE70123F8E70023F6E70023DD
:107D0000F4E72DE9F0470668056B836B002B78D00C
:107D10000446884620353278042A16D04FF40012E3
:107D2000AA4270D9C5F308073FB90133A363616B59
:107D300091B93389B3EB551F0AD9256306F148037E
:107D40003B44E3630020BDE8F0874FF08052E7E753
:107D50000023A3630420F6E77389013B13EA552946
:107D6000EBD12046FFF779FD824601284DD9B0F1CD
:107D7000FF3F4CD0F36A83423BD8B8F1000F15D0D7
:107D8000616B2046FFF71BFE8246002841D0012888
:107D900041D0B0F1FF3F40D0E37943F00403E371F9
:107DA0003046FFF78DF928B10120CCE70023A3630B
:107DB0000420C8E74FF40072002106F14800FEF7E6
:107DC000DBFE51463046FEF7CDFF706473894B45AC
:107DD0000BD90123F3703046FFF772F9F8B909F1B6
:107DE0000109736C01337364F0E7736CA3EB09034F
:107DF0007364C4F834A051463046FEF7B3FFA06365
:107E00009BE704209FE704209DE702209BE70120D9
:107E100099E7072097E7022095E7012093E70120E3
:107E200091E700002DE9F041044600680769A16B65
:107E3000FFF76FF9054620B9E16B0B78852B03D06E
:107E400002252846BDE8F08120223846FEF788FE4C
:107E50007E7801367601A6F16003B3F5007F51D834
:107E600000212046FFF74DFF05460028E9D1A16B10
:107E70002068FFF74EF905460028E2D1E16B0B7848
:107E8000C02B01D00225DCE72022B818FEF768FEDF
:107E900097F823302C331E4AA2FB0323DB08B6EBF2
:107EA000431F31D34FF0400803E008F12008464556
:107EB0001AD900212046FFF724FF05460028C0D12B
:107EC000A16B2068FFF725F905460028B9D1E16BC1
:107ED0000B78C12B1AD1B8F5187FE6D2202207EB18
:107EE0000800FEF73DFEE0E7B8F5187FA9D8384650
:107EF000FFF762F80446B81CFEF7DAFD8442A0D012
:107F000002259EE702259CE702259AE7022598E7CD
:107F10008988888810B504460B6803600B6A836003
:107F200091F82430C3714B6A23F0FF0303610023EF
:107F30004361896AC164FFF705FE00B110BD2046A8
:107F4000FFF770FFFAE72DE9F84304468846066814
:107F50004FF0FF094F46042508E0852B28D000216B
:107F60002046FFF7CEFE054600285BD1A16B002915
:107F700058D03046FFF7CDF80546002852D1E16BC6
:107F80000B78002B4DD03278042AE6D0CA7A02F062
:107F90003F02A271E52B3ED02E2B3ED022F02000D6
:107FA000082814BF0020012040450ED0FF27D6E747
:107FB000236BE3642046FFF735FF054690BB33692A
:107FC0001B7903F03F03A3712CE00F2A19D113F0A2
:107FD000400F06D091F80D9003F0BF03226BE264CE
:107FE0001F46BB4201D0FF27B9E74B7B4B4501D071
:107FF000FF27B4E7F068FEF7FFFE80B1013FFFB254
:10800000ADE727B90846FEF7C6FF48450AD04FF04E
:10801000FF33E36406E0FF27A1E7FF279FE7FF2781
:108020009DE704250DB10023A3632846BDE8F8832E
:10803000F8B504460F4606680021FFF783FD0246A7
:1080400030BB00250EE0E36B93F90030DB43DB0F20
:10805000E3B10135BD421BD001212046FFF751FE9F
:108060000246A8B9A16B3046FFF753F8024678B92B
:108070003378042BE7D0E36B1B78E52B02D01BB9D8
:108080000123E5E70123E3E70023E1E70025E3E738
:10809000042A01D01046F8BD0722FBE7F8B50446D4
:1080A00003681E693046FEF787FF0146B01CFEF7E5
:1080B00036FD77780137E16C2046FFF743FD054632
:1080C00005E0203600212046FFF71BFE05467DB95E
:1080D000A16B2068FFF71DF8054648B920223146FC
:1080E000E06BFEF73DFD23680122DA70013FE8D125
:1080F000022D28BF0225E8B2F8BD70B50446056818
:10810000066BC16CB1F1FF3F12D0FFF71BFD0346B8
:10811000F8B90DE0E26BE52111700122EA70226BE3
:10812000B24214D200212046FFF7EBFD034670B99E
:10813000A16B2846FEF7EDFF034640B92A78042AD2
:10814000E8D1E16B0A7802F07F020A70E5E7042BC0
:1081500001D0184670BD0223FBE700002DE9F04F67
:1081600083B006468A46D1F800900368DD68002493
:10817000234624E0013719F807302F2BFAD05C2B67
:10818000F8D04F44CAF800701F2835D84FF00408C3
:10819000012C34D0022C50D104F10043013B35F8BE
:1081A00013302E2B49D104F10043023B35F8133034
:1081B0002E2B42D12AE025F8148001343B465F1C67
:1081C00019F803001F28DCD92F28D4D05C28D2D07E
:1081D000FE2C00F2FC80012104F04CFE80460028B9
:1081E00000F0F7807F28E6D801467C48FEF7D7FCF0
:1081F0000028E0D00620A2E04FF00008C8E704F114
:108200000043013B35F813302E2BC3D1002325F852
:10821000143004E02021F21882F8401001330A2BB8
:1082200003D8A342F6D22E21F5E7334448F02008C4
:1082300083F84080002082E0013C44B104F1004317
:10824000013B35F81330202BF6D02E2BF4D0002331
:1082500025F81430002C00F0BE800B22202106F1FE
:108260004000FEF789FC002300E0013335F81320BD
:10827000202AFAD02E2AF8D01BB148F0030800E0DB
:10828000013C6CB104F10042013A35F812202E2A6B
:10829000F6D14FF0080B4FF0000ACDF804A00AE029
:1082A000A2464FF0080B0022019204E04C450BD08F
:1082B00048F003084B4603F1010935F81370FFB18C
:1082C000202FF5D02E2FF1D0DA4510D24C450ED00C
:1082D0007F2F44D8002F4FD148F003085F2706EBCB
:1082E0000A0383F840704B460AF1010AE3E7BBF149
:1082F0000B0F27D04C4501D048F003084C4524D241
:1083000096F84030E52B53D0BBF1080F54D0019BB9
:1083100003F00C020C2A03D003F00303032B01D15A
:1083200048F0020818F0020F06D1019B03F0030386
:10833000012B46D0042A47D086F84B80002003B09A
:10834000BDE8F08F48F00308DAE7019B9B00DBB241
:10835000019323464FF00B0B4FF0080AABE70021C7
:10836000384604F087FD074618B1A0F180071C4B82
:10837000DF5D48F00208ADE739461A48FEF70FFC0A
:108380000028A9D1A7F141039BB2192B04D8019B66
:1083900043F002030193A2E7A7F161039BB2192BFB
:1083A0009DD8019B43F001030193203FBFB296E7A4
:1083B000052386F84030A7E7019B9B00DBB20193C1
:1083C000A5E748F01008B5E748F00808B4E706202C
:1083D000B5E70620B3E70620B1E700BFD4030108E4
:1083E000E8030108E00301082DE9F041074688464B
:1083F0000026402435460EE03819FEF759FB0021CF
:1084000004F038FD80B1FE2D25D808EB05029076EA
:1084100002340136013597F82330B34205D914F000
:108420001F0FE9D10234E7E7002525B908EB050362
:108430003F229A76013545440023AB7688F80D300B
:108440003B7988F80C3013F0100F06D107F1380093
:10845000FEF73EFB03E00025E7E700200146C8F8F1
:108460000000C8F8041007F10C00FEF721FBA8F883
:108470000A0007F10E00FEF71BFBA8F80800BDE894
:10848000F0812DE9F041D0F8008000238B76836BDA
:10849000002B75D006460C4698F80030042B16D0F9
:1084A000C36CB3F1FF3F1BD000231D46D8F80C204E
:1084B0005F1C32F8130080B1002104F0DBFC58B1DE
:1084C000FE2D11D8621990763B460135EEE7D8F8BB
:1084D0001000FFF789FF53E0002525440023AB7609
:1084E000A57E0022134612E00025F6E7E52317E0FB
:1084F00015B9A0182E278776A0182E2747730132AA
:1085000010E010201CE0A018837601320B460A2BE5
:108510001BD8F06B591CC35C202BF7D0052BE5D082
:108520000929E5D0A0184373002DEED1A3F1410035
:10853000C0B21928E7D8F06B077B0829E1D80820DA
:108540000742E0D02033DBB2DDE735B9A3180021C4
:108550009976F36B1B7B03B90A46224400255573B9
:10856000F36BDB7A2373F06B1C30FEF7A6FA206006
:108570006560F06B1630FEF7A0FA6081000C208178
:10858000BDE8F08138B50446002534F8020B90B1FF
:1085900004F08EFC6B0803EBC533C2B212FA83F30E
:1085A0009AB2C3F34E0303EBC233C0F30F2010FAA9
:1085B00083F39DB2E9E7284638BD2DE9F843074625
:1085C000884640220021FEF7D7FA85233B70C0235E
:1085D00087F8203001250026A946402417E02946C7
:1085E0003819FEF79CFA023414F01F0F08D0002D42
:1085F000F5D038F81650002DF1D00136F6B2EEE77E
:1086000009F101095FFA89F938F8163033B1631CB2
:10861000C1223A550022FA540234E8E787F8236071
:1086200087F801904046FFF7ADFF014607F12400AF
:10863000FEF775FABDE8F8832DE9F04781460F464D
:1086400001F11A00FEF734FAC8BB3E7806F03F0687
:10865000013E06EB460306EB83064FF001080025BA
:1086600006E000202CE04FF6FF7398422AD1013536
:108670000C2D18D8174B585D3844FEF719FA0446EC
:10868000B8F1000FEFD0FE2EEBD804F011FC8046BD
:1086900006F1010A39F8160004F00AFC8045E0D121
:1086A000A0465646E3E73B7813F0400F0CD0B8F1F4
:1086B000000F0BD039F8163053B9012000E000202C
:1086C000BDE8F0870020FBE70120F9E70120F7E78C
:1086D0000020F5E7680401082DE9F84F0446076813
:1086E0000021FFF72FFA0646002840F0AB803B78C8
:1086F000042B06D04FF0FF33E3644FF0FF09C84668
:1087000046E0F868FFF73EFF834620E038694044C2
:10871000FEF7CEF904F0CCFB8146FB6833F81A0073
:1087200004F0C6FB81450CD1013DEDB208F1020811
:108730000AF1010A2DB118F01F0FE7D108F1020864
:10874000E4E725B9FB6833F81A30002B7AD0002112
:108750002046FFF7F8FB0646002873D13D6905F176
:108760002400FEF7A5F95845F1D195F823504FF0B4
:10877000000A4FF04008DDE74FF0FF33E3644FF0AD
:10878000FF0800212046FFF7BCFA0646002859D111
:10879000A16B3846FEF7BDFC0646002852D1E56BBA
:1087A0002B78002B4DD0E97A01F03F02A271E52B26
:1087B000E2D011F0080F01D00F2ADDD10F2A19D015
:1087C000B8F1000F04D12846FEF7E5FB484539D043
:1087D00094F84B3013F0010F06D10B2204F1400145
:1087E0002846FEF7CEF968B34FF0FF33E3644FF04D
:1087F000FF08C6E794F84B2012F0400FC1D113F0E8
:10880000400F06D095F80D9003F0BF03226BE26491
:108810009846434502D04FF0FF08B2E76B7B4B45CB
:1088200002D04FF0FF08ACE72946F868FFF704FFD5
:1088300020B108F1FF385FFA88F8A2E74FF0FF088F
:108840009FE704263046BDE8F88F70B596B0044621
:10885000019105680B782F2B06D05C2B04D0EB69B7
:10886000836009E001330193019B1A782F2AF9D024
:108870005C2AF7D00023A3600023E3612B78042B4C
:108880001ED0019B1B781F2B38D901A92046FFF76A
:1088900065FC064688B92046FFF71EFF94F84B306A
:1088A000002839D0042868D113F0200F2FD013F0FE
:1088B000040FEAD0802384F84B30304616B070BDE8
:1088C000A368002BDDD02B6A23626B6A6362AB6AFC
:1088D000A362214602A8FFF71DFB06460028ECD143
:1088E00028693830FEF7E9F82061002363612B69BD
:1088F00093F8213003F00203E371C2E7802384F888
:108900004B3000212046FFF71DF90646D5E713F04E
:10891000040F34D00646D0E713F0040F31D1A37909
:1089200013F0100F2FD02B78042B0AD005F148013B
:10893000236BC3F3080319442846FEF737FAA060F7
:10894000A3E7A3682362236923F0FF03E2791343BB
:108950006362E36CA36228693430FEF7AEF8A0606E
:108960002B6993F8213003F00203E3712869383052
:10897000FEF7AEF8C4E9040187E706469DE7052641
:108980009BE7064699E7052697E700002DE9F043A7
:1089900099B0056890F84B3013F0A00F40F0E980D3
:1089A0000646002400E00134EB6833F81430002B55
:1089B000F9D12B78042B22D006F140070C2239463E
:1089C00015A8FEF7CDF89DF85F3013F0010F74D0B5
:1089D000402386F84B304FF00108B8F1630F62D89E
:1089E0004346EA6815A93846FEF782FA3046FFF793
:1089F00073FE8146002856D108F10108EDE70E34D8
:108A00005F4BA3FB0434E408A11C3046FFF710FBC6
:108A10008146002869D1336B0134A3EB4414F4641C
:108A2000B3681BB1F37913F0040F04D1E968286926
:108A3000FFF7C3FD59E069894902D6E904235218BA
:108A400043F10003C6E904233046FEF7EDFE08B10A
:108A500081464AE04FF0FF32716B3046FEF7CCFEA4
:108A600008B1814641E031466846FFF753FA08B144
:108A700081463AE02869D6E904233830FEF75DF8EC
:108A80002869D6E904232830FEF757F8F3792A69D4
:108A900043F0010382F821306846FFF7FFFA00280F
:108AA000C4D0814621E0B8F1640F65D0B9F1040F5C
:108AB0001BD19DF85F3086F84B309DF85F3013F086
:108AC000020F06D00C342F4BA3FB0434A40801344E
:108AD00000E0012421463046FFF7AAFA814608B992
:108AE000013C06D1B9F1000F29D0484619B0BDE8C4
:108AF000F083316BA1EB44113046FFF723F8814638
:108B00000028EFD13846FEF746FA8046B16B28467A
:108B1000FEF7FFFA81460028E4D14346E2B2F16B4A
:108B2000E868FEF7A9F90123EB7000213046FFF752
:108B3000E8F881460028D5D1013CE7D1D2E7B16BF6
:108B40002846FEF7E6FA81460028CED120220021F1
:108B5000F06BFEF711F80B223946F06BFEF700F8C8
:108B600096F84B30F26B03F0180313730123EB708C
:108B7000BBE74FF00609B8E74FF00709B5E700BFBC
:108B8000898888884FECC44E70B50446FEF798FA81
:108B9000054648B92378032B08D000221146607897
:108BA000FDF77AFF00B10125284670BD2379012B1E
:108BB000F3D104F148064FF4007200213046FDF76E
:108BC000DBFF4AF6552104F24620FDF7A8FF0F49C6
:108BD0003046FDF7A8FF0E4904F50B70FDF7A3FF23
:108BE000A16904F50C70FDF79EFF616904F50D7035
:108BF000FDF799FF626B01326264012331466078B0
:108C0000FDF73EFF00232371C7E700BF52526141C9
:108C10007272416170B584B0019000911646039163
:108C200003A8FEF7E1F9041E1CDB104B53F8245097
:108C300025B12846FEF778F800232B70019B0BB175
:108C400000221A70019B094A42F8243063B1012EB8
:108C500002D0002004B070BD002201A96846FEF7D2
:108C6000B9FAF7E70B20F5E70020F3E71001002041
:108C70002DE9F04F99B00191002800F0A881164627
:108C8000054602F03F073A4603A901A8FEF7A2FAFB
:108C9000044630B10CB100232B60204619B0BDE86A
:108CA000F08F039B04934FF48C6001F0BAFB824673
:108CB000002800F08E81039BD86000F500721A61D5
:108CC000019904A8FFF7C1FD044660B99DF95B3026
:108CD000002B58DB37F0010314BF0121002104A849
:108CE000FDF766FF044616F01C0F00F0B280002C62
:108CF00055D0042C49D047F00807002C40F0B8802C
:108D000017F0080F00F0B480039E3378042B50D086
:108D1000B14E314613980E30FDF705FF31461398DA
:108D20001630FDF700FF139B2022DA72DDF80C806D
:108D3000DDF84C9049464046FEF738F806460022DA
:108D400049464046FEF745F8002113981C30FDF7D0
:108D5000EAFE039B0122DA70002E00F08980039B5B
:108D6000D3F844800022314604A8FEF74BFF0446A6
:108D700000287DD141460398FEF7CBF90446013E19
:108D8000039B5E6174E00624ADE7FDF74BFF08B975
:108D90001224B0E704A8FFF7F9FD0446ABE79DF8FD
:108DA000163013F0110F62D116F0040FA5D008246D
:108DB0005EE02E6030693430FDF77FFEA8603069D8
:108DC0003830FDF785FEC5E90401336993F8213099
:108DD00003F00203EB71EC6130697F4E31460830DD
:108DE000FDF7A1FE039B1A691475186931460C3012
:108DF000FDF799FE039B1A6954751A6920211171B8
:108E0000186921463430FDF78EFE039B1869002255
:108E100000233830FDF791FE039B186900220023E0
:108E20002830FDF78AFE039B1B69012283F821206D
:108E300004A8FFF733F90446D0B9A968C1B10022EC
:108E40002846FEF7DFFE0446AB68013B039A5361F8
:108E50000EE06CB99DF8163013F0100F5CD116F0CF
:108E6000020F05D013F0010F02D0072417E00724EA
:108E7000ACB917F0080F01D047F04007039B5B6CBB
:108E8000AB64139BEB6437F0010314BF0121002195
:108E900004A8FDF7D7FEE862002800F09380002CBC
:108EA00040F09180039E3378042B37D0DDF84C805E
:108EB00041463046FDF77AFFA86008F11C00FDF737
:108EC000FCFD286100236B61002129652E60039B56
:108ED000DB88AB8085F8307085F83110696400223A
:108EE0000023C5E90E2305F1540300934FF40072EB
:108EF0001846FDF741FE17F0200F64D0D5E904674E
:108F000056EA07035FD0C5E90E67039BB3F80AB0C2
:108F10004FEA4B2BA96825E00424C0E7069B2B628F
:108F2000089B23F0FF039DF8172013436B62179BE8
:108F3000AB6230693430FDF7C0FDA860306938306D
:108F4000FDF7C6FDC5E90401336993F8213003F04C
:108F50000203EB71B8E7B1F1FF3F13D0B6EB08069F
:108F600067EB090784B9D8464FF00009B94508BF37
:108F7000B34509D22846FEF770FC01460128EAD81D
:108F80000224E8E70124E9E72964E4B9C6F308020A
:108F90000023134317D0DDF80C804046FDF7E2FEB6
:108FA000024608B902240EE0730A43EAC7531A4482
:108FB0006A640123009998F80100FDF755FD10B18E
:108FC000012400E00224504601F02FFA62E6092451
:108FD00063E6112461E600BF000069532DE9F04FFC
:108FE00087B004460F4616469A460023CAF800305A
:108FF000039005A9FEF741F80290002840F0BE80DA
:1090000094F831300293002B40F0B88094F830305F
:1090100013F0010F00F0CF8022696069A36BE16B50
:10902000B2EB030860EB01090023994508BFB04586
:109030005FD246465DE0216D19B12046FDF79EFEE8
:1090400072E0216C0398FEF708FC6DE0022384F8BF
:109050003130029392E0012384F8313002938DE0A5
:10906000022384F83130029388E094F93030002BE9
:1090700001DB6D022FE0606CA0EB0900A842F8D282
:109080004FF4007204F1540107EB4020FDF768FD36
:10909000EFE7626C4A450DD094F93030002B71DB5C
:1090A00001234A4604F1540105984078FDF7DCFCA1
:1090B00000287BD1C4F84490A36BC3F30803C3F525
:1090C0000075AE4200D2354604F154012A461944D7
:1090D0003846FDF745FD2F44D4E90E23521943F1DC
:1090E0000003C4E90E23DAF800302B44CAF800303C
:1090F000761B002E42D0D4E90E23C2F30801009162
:1091000000210191DDE900010143D5D14FEA522848
:1091100048EAC35805994989013918EA010809D173
:1091200052EA030187D1A06801288FD9B0F1FF3F2F
:1091300091D02064DDF814B0216C5846FDF712FE82
:10914000814600288CD0C144750AB6F5007FA0D3B3
:1091500008EB0503BBF80A20934201D9A2EB0805EE
:109160002B464A4639469BF80100FDF77DFC002856
:109170003FF47BAF012384F831300293029807B0AB
:10918000BDE8F08F012304F154019BF80100FDF7C5
:1091900077FC30B994F8303003F07F0384F8303036
:1091A0007EE7012384F831300293E7E7012384F856
:1091B00031300293E2E707230293DFE72DE9F04F16
:1091C00087B004468B4615469A460023CAF80030FD
:1091D000039005A9FDF751FF029000284BD194F8A8
:1091E00031300293002B46D194F8303013F0020F47
:1091F00000F0FA80059B1B78042B00F0BC80A36B69
:10920000EB42C0F0B880DD43B5E0216D002936D0D7
:109210002046FDF7B3FD002800F0DF80012833D0A1
:10922000B0F1FF3F35D02064A36803B9A06094F982
:109230003030002B32DB059E216C3046FDF792FD6D
:10924000074600283FD04F444FEA5528B5F5007F28
:1092500054D309EB08037289934201D9A2EB0908A0
:1092600043463A4659467078FDF70AFC80B301231D
:1092700084F831300293029807B0BDE8F08F216C7A
:109280000398FEF79CFBC6E7022384F83130029373
:10929000F1E7012384F831300293ECE70123626C9B
:1092A00004F1540105984078FDF7EAFB30B994F8D1
:1092B000303003F07F0384F83030BCE7012384F8BA
:1092C00031300293D7E7022384F831300293D2E79A
:1092D000616CC91B414502D34FEA48282FE04FF487
:1092E00000720BEB412104F15400FDF739FC94F8B6
:1092F000303003F07F0384F83030EDE7636CBB421D
:1093000007D0D4E90E01D4E90423994208BF904262
:1093100055D36764A36BC3F30803C3F500784545D1
:1093200000D2A84604F15400424659461844FDF7BD
:1093300017FC94F8303063F07F0384F83030C34476
:10934000D4E90E2312EB080243F10003C4E90E2313
:10935000D4E9040117461E468B4208BF824201D25F
:1093600007460E4627616661DAF800304344CAF8C2
:109370000030A5EB080585B3D4E90E23C2F308013C
:10938000009100210191DDE900010143C2D14FEAC2
:10939000522949EAC35905994989013919EA01094C
:1093A0007FF445AF52EA03017FF42FAFA068002895
:1093B0007FF431AF00210398FEF701FB2BE7012377
:1093C0003A4604F154017078FDF74EFB0028A0D016
:1093D000012384F8313002934DE794F8303043F0A4
:1093E000400384F8303046E70723029343E770B523
:1093F00082B004460D460A290DD06368002B08DBB5
:109400005E1C23441D733C2E09DC6660A368013397
:10941000A36002B070BD0D21FFF7E9FFEDE7214623
:1094200051F80C0B01AB3246FFF7C8FE019B9E4280
:1094300002D04FF0FF36E8E70026E6E74268002A50
:1094400010DB10B582B00446014651F80C0B01AB9D
:10945000FFF7B4FE48B96268019B9A4208D1A06840
:1094600002B010BD4FF0FF3070474FF0FF30F7E70C
:109470004FF0FF30F4E7000070B596B0044615A930
:10948000FDF7FBFD054688B994F8303013F0400F26
:109490000CD013F0800F0CD115980378042B1AD040
:1094A000A16CFDF736FE0546002877D0284616B099
:1094B00070BD0123626C04F1540115984078FDF7EA
:1094C000DFFA002840F0918094F8303003F07F03F9
:1094D00084F83030E0E72046FEF7A6F90546B8B13B
:1094E000002DE3D14FF48C6000F09BFF064600286E
:1094F0007DD0159BD86000F500721A612146684640
:10950000FEF708FD054658B1304600F08EFFCDE766
:109510004FF0FF32216C2046FEF76EF90546DFE77B
:10952000159B19690A7942F020020A71E2791969DA
:1095300042F0010281F821201869A1683430FDF75A
:10954000F2FA159B1869D4E904233830FDF7F5FACF
:10955000159B1869D4E904232830FDF7EEFA159B12
:10956000186924490C30FDF7DEFA159B1A690021B1
:10957000517518691030FDF7D6FA6846FEF78EFD72
:1095800005460028C0D11598FFF7FEFA054694F865
:10959000303023F0400384F83030B5E7E56CEB7AE7
:1095A00043F02003EB72A26829462068FDF711FC06
:1095B000216905F11C00FDF7B6FA0E4905F1160008
:1095C000FDF7B1FA002105F11200FDF7A8FA159B8D
:1095D0000122DA701598FFF7D7FA054694F8303073
:1095E00023F0400384F8303060E701255EE7112561
:1095F0005CE700BF0000695310B582B00446FFF776
:109600003BFF08B102B010BD01A92046FDF735FDB2
:109610000028F7D1E06AFDF767FB0028F2D120604F
:10962000F0E72DE9F04F89B0044692469B46009042
:1096300007A9FDF722FD054608B994F831501DB978
:10964000079B1B78042B1ED0CDB9236D002B00F097
:10965000B380BBF1FF3F08BFBAF1FF3F1BD0D4E995
:109660000423CDE900235B4508BF524501D3CDE972
:1096700000ABDDE90023C4E90E2313434DD1284696
:1096800009B0BDE8F08F4FF0FF32216C2046FEF7A5
:10969000B3F80546D8E7984658F804BBD4F808A0B4
:1096A000BAF1000F2DD04FF00209009F009509F18B
:1096B00002095146002601360D463846FEF7CDF820
:1096C0000146012813D9B0F1FF3F14D0013585427E
:1096D000F1D0CB4505D3434643F8086BC8F804A046
:1096E0009846079BDB6A8B4209D98A46DFE7022549
:1096F00084F83150C3E7012584F83150BFE7009D5D
:1097000001E04FF00209236DC3F80090D94500F243
:1097100070810023C8F80030B1E7DDE9001211F1D3
:10972000FF3842F1FF3A424653462046FDF726FBFA
:1097300001462064DDF81C904846FDF713FB00B39A
:109740004FEA582242EACA52B9F80A30013B1A409D
:1097500017180099C1F30802002313438FD0626CDD
:10976000BA428CD094F93030002B0EDB01233A46FC
:1097700004F1540107984078FDF776F9C0B96764A1
:109780007DE7022584F8315079E7012304F1540183
:1097900099F80100FDF774F930B994F8303003F00E
:1097A0007F0384F83030E1E7012584F8315066E723
:1097B000012584F8315062E7079B1A78042A09D002
:1097C000BBF1010F08BFBAF1000F03D34FF0FF3A0E
:1097D0004FF0000BD4E90401594508BF504506D2AB
:1097E00094F8302012F0020F01D182468B46D4E962
:1097F0000E12CDE9021200200021C4E90E015AEA3E
:109800000B0200F0B3805F897F02DDE9021251EAAA
:10981000020328D03A4600231AF1FF304BF1FF3102
:10982000F7F77CF904900591DDE9021211F1FF369A
:1098300042F1FF3319463A46002330460291F7F7CA
:109840006DF9DDE904238B4208BF82420BD37942D4
:109850000B463340029AA363E263BAEB030A6BEB55
:10986000020B266C02E0A66836B12664002E7ED07C
:1098700031462E46009D23E000212046FEF79FF84A
:109880000646012804D0B0F1FF3F05D0A060ECE708
:10989000022584F83150F2E6012584F83150EEE6D5
:1098A0002846FEF78CF80146002854D0B1F1FF3F5E
:1098B0002FD0012931D9079BDB6A8B422DD9216436
:1098C0003A4600235B4508BF57452AD2BAEB020A45
:1098D0006BEB030BA06B12EB0008E06B43EB000992
:1098E000C4E90E8994F8300010F0020F0CD0D4E9CE
:1098F00004234B4508BF4245D2D2C4E9048940F055
:10990000400084F83000CBE72846FDF7A6FF01466B
:10991000CCE7012584F83150B1E6022584F83150B6
:10992000ADE635460E46A36BE26B13EB0A0342EB42
:109930000B02A363E263CAF30802002313433FD080
:1099400031460798FDF70EFA60B14FEA5A2646EA0B
:10995000CB5606440BE0354606464FF0000A4FF062
:10996000000BE0E7022584F8315088E60026D4E9B0
:109970000E01D4E904238B4208BF824207D2C4E916
:10998000040194F8303043F0400384F83030C0F3E1
:109990000802002313433FF472AE626CB2423FF4FC
:1099A0006EAE94F93030002B0CDB0123324604F10B
:1099B000540107984078FDF757F8B0B966645EE641
:1099C0000026D4E7012304F1540107984078FDF7FD
:1099D00057F830B994F8303003F07F0384F8303012
:1099E000E3E7012584F8315049E6012584F8315038
:1099F00045E6112543E670B584B0019100286DD08D
:109A00000546002203A901A8FDF7E4FB044628B19E
:109A10000CB100232B60204604B070BD039B2B606B
:109A20004FF48C6000F0FDFC0646002858D0039BE4
:109A3000D86000F500721A6101992846FEF705FF0B
:109A40000446002843D195F94B30002B0CDBAB7951
:109A500013F0100F3AD0039C2378042B12D0E96B3B
:109A60002046FDF7A3F9A860039BDB88AB800021AB
:109A70002846FEF767F8044648BBAB68F3B90023F5
:109A8000EB6224E0AB682B622B6923F0FF03EA79D9
:109A900013436B62EB6CAB6220693430FDF70DF859
:109AA000A86020693830FDF713F8C5E9040123697F
:109AB00093F8213003F00203EB71D5E7002128462B
:109AC000FDF7C0F8E86210B9122400E00524304622
:109AD00000F0ABFC042C9BD105249AE709249AE7FB
:109AE000112498E710B582B0044601A9FDF7C5FA24
:109AF00020B9E36A23B908B90023236002B010BD7E
:109B00001846FDF7F1F8F6E7F0B583B006460D46C6
:109B100001A9FDF7B2FA044640BBEDB14FF48C60E9
:109B200000F07FFC074620B3019BD86000F500726F
:109B30001A6100213046FEF706FA042800D088B9E1
:109B400029463046FEF79DFC00213046FEF7D9F845
:109B5000042808D0044606E000213046FDF7F2FF55
:109B6000044603E00446384600F05FFC204603B09C
:109B7000F0BD1124FAE770B596B001900D460022B1
:109B800002A901A8FDF726FB044610B1204616B035
:109B900070BD4FF48C6000F044FC0646C8B1029BD7
:109BA000D86000F500721A61019902A8FEF74DFE17
:109BB000044650B99DF95330002B05DB2DB12946E1
:109BC00002A8FEF75EFC00E00624304600F02DFC03
:109BD000DCE71124DAE72DE9F043B9B00190022265
:109BE0000FA901A8FDF7F6FA0F9B2493044618B1BC
:109BF000204639B0BDE8F0834FF48C6000F011FCD2
:109C00000546002800F087800F9BD86000F50072A1
:109C10001A61019924A8FEF718FE044620B99DF8A0
:109C2000DB3013F0200F34D124B9022124A8FCF733
:109C3000BFFF0446002C57D19DF9DB30002B49DBD8
:109C40009DF8968018F0010F52D10F9F02973B7834
:109C5000042B20D033993846FDF7A8F8064618F0B3
:109C6000100F39D0FB69B34253D0109712963B784E
:109C7000042B26D0002110A8FDF764FF044658BB32
:109C8000002110A8FEF75FF90446A0B3042823D1F1
:109C900023E00624CEE7D7F8109009F13400FCF752
:109CA0000CFF0646049009F13800FCF711FFCDE9DE
:109CB00006013B6993F8213003F002038DF80F3061
:109CC000CDE7DDE90623CDE914239DF80F308DF8AB
:109CD0004730CFE70026062434B924A8FEF70DFA52
:109CE000044600B94EB97CB1284600F09EFB7FE7E0
:109CF00000260724F0E70724EEE70022314602A8F9
:109D0000FDF780FF0446EEE70F98FEF73DFF04469F
:109D1000EAE70724E8E711246AE700002DE9F04F9D
:109D200099B00190022203A901A8FDF753FA039B01
:109D30000493044618B1204619B0BDE8F08F4FF4E3
:109D40008C6000F06EFB0646002800F0E480039B68
:109D5000D86000F500721A61019904A8FEF775FD3C
:109D6000054640B1042807D19DF85B3013F0200F61
:109D700002D0062502E00825042D04D0304600F06C
:109D800054FB2C46D7E7002104A8FDF718FE039AE0
:109D900053895B02089300230993814600B9072485
:109DA000B9F1010F25D0B9F1FF3F29D01CB34CB355
:109DB000002C7FD0002C40F0A780039B1A78042A47
:109DC0007DD0139D554905F11600FCF7ACFE4A46BF
:109DD00029460398FCF7FDFF1023EB72039B012239
:109DE000DA702546002DC9D10398FEF7CDFE054651
:109DF000C4E70224D7E71046FDF762F90446D6E728
:109E00000124D4E7039F49463846FCF7ABFF0546DB
:109E100007F1480A4FF4007200215046FCF7ACFEEF
:109E2000039B1B78042B18D1039B5F89002FBFD0A5
:109E300005F10108039B5D640122DA700398FDF7C8
:109E40003FF904460028B3D14FF400720021504678
:109E5000FCF792FE013F4546E8E70B2220215046E1
:109E6000FCF78AFE4FF02E0B87F848B0102387F8D6
:109E700053302A4907F15E00FCF755FE4A46514629
:109E80000398FCF7A6FF07F16808202251464046D8
:109E9000FCF766FE87F869B0069A03980378032BEF
:109EA00003D04146FCF795FFBEE7C36B9342F8D160
:109EB0000022F6E704A8FEF769FD04467AE7186970
:109EC00016490C30FCF72FFE039B186949463430C5
:109ED000FCF729FE039B186908993830FCF723FE2C
:109EE000039B186908992830FCF71DFE039B1A692B
:109EF000032182F821101B6910221A710DEB020058
:109F0000FEF7CCF805466DE70022494604A8FDF7A8
:109F100079FE254632E711240DE700BF00006953A2
:109F20002DE9F041BCB0019000916846FDF75CF866
:109F3000022213A901A8FDF74DF9044618B12046E5
:109F40003CB0BDE8F081139B28934FF48C6000F087
:109F500068FA0546002800F0D680139BD86000F50B
:109F600000721A61019928A8FEF76FFC044620B917
:109F70009DF8EB3013F0A00F24D124B9022128A8BA
:109F8000FCF716FE0446002C6ED1139B1A78042AA7
:109F90001AD0152237990B3103A8FCF7E1FD5022A6
:109FA00028A90DEB0200FCF7DBFD009914A8FEF7D1
:109FB0004CFC0446002853D1169A2A9B9A4249D059
:109FC00008244FE00624DEE74022196903A8FCF7C5
:109FD000C7FD502228A90DEB0200FCF7C1FD009936
:109FE00014A8FEF732FC044658B9169A2A9B9A42E6
:109FF00001D0082436E0209A349B9A4203D00824EA
:10A0000030E004282ED114A8FEF7C0FC044648BB5B
:10A01000139B1C6994F8018094F8237004F12400C8
:10A02000FCF746FD0646402203A92046FCF798FDB2
:10A03000139B1B6983F80180139B1A6982F82370B4
:10A04000186931462430FCF76AFD14A8FEF726F89B
:10A05000044607E0209A349B9A4209D0082401E084
:10A06000042805D0002C43D0284600F0DEF966E72E
:10A0700014A8FEF78BFC04460028F3D1239E13227C
:10A080000DF10E0106F10D00FCF76AFD9DF80C3094
:10A0900043F02003F372139B0122DA70F37A13F07A
:10A0A000100FDFD02A9A169B9A42DBD0139C3146C0
:10A0B0002046FCF77BFE01462046FCF753FE014696
:10A0C00008B90224D0E72046FDF723F8139B03F1DB
:10A0D000680104460028C5D193F869202E2AC1D111
:10A0E000169A1846FCF775FE139B0122DA70B9E741
:10A0F00028A8FEF702F804460028B5D11398FEF709
:10A1000043FD0446B0E7112419E72DE9F04182B080
:10A1100080460E46174604460025731EAB4211DDED
:10A120006B46012201A93846FEF758FF009B012B20
:10A1300008D19DF804300D2BEFD004F8013B013518
:10A140000A2BEAD1002323701DB1404602B0BDE8BE
:10A15000F0810020FAE70EB42DE9F0479DB00146EA
:10A1600025AC54F8045B08A8FCF782FF1B9403E0BD
:10A1700008A8FFF73CF925462C4614F8011B0029D6
:10A1800000F0FA802529F3D102352178302904D056
:10A190002D2906D0002700240EE0A51C6178012798
:10A1A000F9E7A51C61780227F5E704EB840401EBCD
:10A1B0004404303C15F8011BA1F13003DBB2092B3C
:10A1C000F3D96C2901D04C2903D147F0040715F8C5
:10A1D000011B002900F0D080A1F16103DBB2192B33
:10A1E00003D8A1F12003DBB200E00B46A3F1420249
:10A1F000162A53D8DFE802F0563B435252525252CD
:10A200005252525252585252520C524352525000D1
:10A210001B9B1A1D1B92D3F80080002600E001361C
:10A2200018F80630002BFAD117F0020F10D105E014
:10A2300020210DEB0100FFF7DAF83E46771CA6421D
:10A24000F6D33E4604E008F1010808A8FFF7CFF86E
:10A2500098F800100029F6D105E020210DEB01004F
:10A26000FFF7C5F83E46771CA642F6D384E71B9B52
:10A270001A1D1B92197808A8FFF7B9F87CE70A2085
:10A2800017F0040F12D01B9A161D1B961268442B50
:10A2900018D04FF0000C2BE01020F1E708A8FFF7D2
:10A2A000A6F869E70220EBE70820E9E7442B04D091
:10A2B0001B9A161D1B961268E9E71B9A161D1B9622
:10A2C0001268E4E7002AE4DA524247F00807E0E7C0
:10A2D00027263344DBB20CF1010630330DF170094F
:10A2E000E14409F8703CC64510D81F2E0ED8B4467C
:10A2F0008646B2FBF0F600FB1623DBB290463246F0
:10A30000092BE8D97829E3D00726E2E717F0080FF0
:10A3100006D01CAB1E442D2306F8703C0CF102063F
:10A3200017F0010F03D04FF0300AB04607E04FF0AE
:10A33000200AFAE7514608A8FFF759F8C84617F06F
:10A34000020F04D108F10109A045F3D3C846013E2C
:10A350001CAB334413F8701C08A8FFF748F8002E14
:10A36000F5D108F10106A045BFF406AF514608A893
:10A37000FFF73DF8B046F4E708A8FFF75FF81DB017
:10A38000BDE8F04703B07047104B5B7AE3B970B497
:10A39000044603F0FF000D4B5D7AEDB200265E55DA
:10A3A0005D7A03EB85056C605C7A1C4422725A7AF4
:10A3B000541CE4B25C7230320A703A234B702F2383
:10A3C0008B70CE7070BC7047012070477801002000
:10A3D00008B50022FFF7D8FF08BD00000D4B5B7ADF
:10A3E0009BB10378303BDBB20A4A02EB830252682E
:10A3F0006AB1084A02EB83010020486013441872D6
:10A40000537A013BDBB25372704701207047012041
:10A41000704700BF7801002008B50021FFF7DEFF7C
:10A4200008BD08B503F0C0F908BD08B503F0C4F9CC
:10A4300008BD08B5D0F8B83213B11B68984708BDFD
:10A440000320FCE708B5D0F8B8320BB15B68984739
:10A45000002008BD38B5044600F2AA25284600F0C1
:10A4600024F90123C4F89432B4F8B032C4F8983215
:10A4700094F8AA1201F01F03012B0DD0022B10D06B
:10A480002BB101F080012046F7F770F903E029466F
:10A49000204600F0C5FA38BD2946204600F0F8FAFB
:10A4A000F9E72946204600F027FBF4E738B50446D3
:10A4B0000D4631BB1346D0F89422032A01D008463A
:10A4C00038BDD0F85C11D0F8602191420CD8D0F89A
:10A4D000B8321B691BB190F89C22032A0FD020468A
:10A4E00000F019FC2846EBE7891AC0F85C118A4293
:10A4F00028BF0A46194600F006FC2846E0E79847C0
:10A50000EDE7D0F8B8329B692BB190F89C22032A72
:10A5100003D19847D4E70320D2E70320D0E738B52A
:10A5200004460D46002948D11346D0F89422022A49
:10A5300005D094F8A032012B3AD0284638BDC26924
:10A54000016A8A4211D88A421BD0D4F8B832DB683B
:10A550001BB194F89C22032A27D080212046F7F7CC
:10A5600005F9204600F0E2FBE3E7521AC261194602
:10A5700000F0C1FB00231A4619462046F7F716F9EA
:10A58000D7E783699942E0D8D0F898229342DCD289
:10A590000022114600F0AFFB0021C4F898120B46D0
:10A5A0000A462046F7F702F9C3E720469847D4E762
:10A5B000002384F8A0322846C0E7D0F8B8325B699F
:10A5C0002BB190F89C22032A03D19847B6E70320C9
:10A5D000B4E70320B2E770B50446012380F89C324B
:10A5E0000023C0F894324360C0F8A432D0F8BC32E3
:10A5F00023B1D0F8B8325B6800219847402300228D
:10A6000011462046F7F7A7F80126A4F86461402513
:10A61000C4F860512B46002280212046F7F79BF8B2
:10A62000A6842562002070BD01740020704790F858
:10A630009C3280F89D32042380F89C3200207047C1
:10A6400090F89C32042B01D00020704790F89D3286
:10A6500080F89C32F8E708B590F89C32032B01D0C3
:10A66000002008BDD0F8B832DB69002BF8D098473D
:10A67000F6E700207047002070470020704708B5BB
:10A68000012380F89C32D0F8B83213B15B680179AD
:10A690009847002008BD08B54B88012B00D008BDA5
:10A6A000C0F8A43200F037FBF9E70B7803704B7861
:10A6B00043708B78CA7843EA022343800B794A7946
:10A6C00043EA022383808B79CA7943EA0223C38059
:10A6D000704710B504468021F7F748F8002120465E
:10A6E000F7F744F810BD30B583B004460D4600239B
:10A6F000ADF806304A88130A013B062B00F2AB8006
:10A70000DFE803F0041F33A9A98D9A00D0F8B43212
:10A710001B680DF10601007C9847EA88002A00F0CA
:10A72000A380BDF80630002B00F099809A4228BF24
:10A730001A46ADF806200146204600F0CFFA03B0D5
:10A7400030BD037C43B9D0F8B8329B6A0DF10600E6
:10A75000984702234370E0E7D0F8B832DB6A0DF186
:10A760000600984702234370D7E7D2B2052A52D891
:10A77000DFE802F003101D2A3744D0F8B4325B68DA
:10A7800023B10DF10601007C9847C6E72946FFF783
:10A79000A0FFD4E7D0F8B4329B6823B10DF10601D5
:10A7A000007C9847B9E72946FFF793FFC7E7D0F841
:10A7B000B432DB6823B10DF10601007C9847ACE7A9
:10A7C0002946FFF786FFBAE7D0F8B4321B6923B1F8
:10A7D0000DF10601007C98479FE72946FFF779FFB6
:10A7E000ADE7D0F8B4325B6923B10DF10601007C0E
:10A7F000984792E72946FFF76CFFA0E7D0F8B432FC
:10A800009B6923B10DF10601007C984785E7294635
:10A81000FFF75FFF93E72946FFF75BFF8FE7037CB6
:10A8200033B9D0F8B8325B6B0DF10600984774E786
:10A830002946FFF74EFF82E7037C43B9D0F8B832D0
:10A840001B6B0DF1060098470723437065E7294607
:10A85000FFF73FFF73E72946FFF73BFF6FE7294606
:10A860002046FFF736FF6AE7204600F054FA66E715
:10A8700038B504468B88F3B9CB88E3B94B887F2B76
:10A8800019D803F07F0590F89C32032B0CD080F888
:10A890009E522946F6F77AFF204600F03CFA35B181
:10A8A000022384F89C3209E0FFF713FF06E001233E
:10A8B00084F89C3202E02046FFF70BFF38BD000011
:10A8C00070B504460E468D782D4B1D70012D0FD8A6
:10A8D00090F89C32022B0FD0032B23D0FFF7F9FE08
:10A8E000274B19782046FFF7ADFD0325284670BD9C
:10A8F000FFF7EFFE0325F9E78DB145602946FFF725
:10A9000098FD054620B131462046FFF7E2FEEDE70F
:10A91000204600F000FA032384F89C32E6E700F0BA
:10A92000FAF9E3E7CDB141688D4225D0C9B2FFF70E
:10A9300089FD134B197861602046FFF77AFD0546C3
:10A94000B0B131462046FFF7C4FE21792046FFF71B
:10A9500079FD022384F89C32C8E7022380F89C32F8
:10A9600045602946FFF76EFD204600F0D4F9BDE7AB
:10A97000204600F0D0F9B9E700F0CDF90025B5E7A1
:10A980008401002008B5CB88012B0AD190F89C32B5
:10A99000022B09D9032B09D10122011D00F09EF9D8
:10A9A00001E0FFF796FE08BD5BB213B9FFF791FE19
:10A9B000F9E70146002341F8083F012200F08EF933
:10A9C000F1E708B590F89C32013B022B12D8CB88F6
:10A9D000022B0CD10123C360D0F8A4320BB10323A6
:10A9E000C360022200F10C0100F078F908BDFFF706
:10A9F00070FEFBE7FFF76DFEF8E708B590F89C32B4
:10AA0000013B022B09D84B88012B00D008BD002345
:10AA1000C0F8A43200F07FF9F8E7FFF75AFEF5E737
:10AA200038B50C7804F06004202C06D0402C04D0FB
:10AA300054B1FFF74EFE002404E0D0F8B8329B6812
:10AA400098470446204638BD4D78092D1DD8DFE8CB
:10AA500005F012191C161C08051C0F0BFFF743FE0E
:10AA6000F0E7FFF705FFEDE7FFF72AFF0446E9E708
:10AA7000FFF788FFE6E7FFF7A4FF2C46E2E7FFF7C2
:10AA80000AFEDFE7FFF7B9FFDCE7FFF722FED9E7B1
:10AA900070B505460C460B7803F06003202B07D0F9
:10AAA000402B05D023B1FFF714FE0026304670BDC1
:10AAB00095F89C32013B022B18D82379012B0FD833
:10AAC000D5F8B8329B682146284698470646E38861
:10AAD000002BEBD10028E9D1284600F01CF9E5E76E
:10AAE00021462846FFF7F5FD0026DFE721462846E8
:10AAF000FFF7EFFD0026D9E7F8B506460D468B882F
:10AB00000C7804F06004202C08D0D9B2402C05D079
:10AB10006CB12946FFF7DDFD002406E0D6F8B83217
:10AB20009B6829463046984704462046F8BD6F7812
:10AB3000012F2ED0032F05D0002F56D02946FFF726
:10AB4000C8FDF2E790F89C32022B05D0032B12D0FF
:10AB50002946FFF7BEFDE8E709B1802904D129465F
:10AB60003046FFF7B6FDE0E7F6F700FE80213046FD
:10AB7000F6F7FCFDD9E76B8823B919B1802901D01C
:10AB8000EB881BB1304600F0C6F8CEE7F6F7EEFDD5
:10AB9000F8E790F89C32022B05D0032B12D02946FF
:10ABA000FFF797FDC1E709B1802904D12946304656
:10ABB000FFF78FFDB9E7F6F7D9FD80213046F6F7AC
:10ABC000D5FDB2E76B88002BAFD111F07F0F09D113
:10ABD000304600F0A0F8D6F8B8329B6829463046D7
:10ABE0009847A2E7F6F7CAFDF2E790F89C22022AFE
:10ABF00006D0032A29D02946FFF76BFD3C4694E78F
:10AC000009B1802913D113F0800F15D101F07F0114
:10AC100001EB8101890001F5A87131440431002361
:10AC20000B600222304600F059F83C467DE7294689
:10AC3000FFF74FFD3C4678E701F07F0101EB810112
:10AC40008900103131440431E9E75BB2002B1FDB8E
:10AC500001F00F0202EB820200EB8202B2F86421E3
:10AC600022B3002B27DB01F07F0303EB83039C005F
:10AC700004F5A8743444043409B1802924D1002394
:10AC8000236002222146304600F028F83C464CE77B
:10AC900001F00F0202EB820200EB8202928C002A8A
:10ACA000DFD12946FFF715FD3C463EE72946FFF771
:10ACB00010FD3C4639E701F07F0303EB83039C0062
:10ACC000103434440434D7E73046F6F723FD10B18E
:10ACD00001232360D5E700232360D2E710B5134694
:10ACE0000222C0F894228361C3610A460021F6F76C
:10ACF00055FD002010BD08B513460A460021F6F7A1
:10AD00004DFD002008BD08B513460A460021F6F7A0
:10AD10004DFD002008BD08B50423C0F8943200237F
:10AD20001A461946F6F73AFD002008BD08B5052376
:10AD3000C0F8943200231A461946F6F737FD002072
:10AD400008BD000010B582B0194B1B683BB300244E
:10AD50000194184B1A6C42F001021A641B6C03F048
:10AD600001030193019BF8F7B5FE134BA3FB0023EE
:10AD70009B09013B11484FF0804202600422C260EF
:10AD8000436004618460FAF7CFFF68B10C4B602226
:10AD900083F81C234FF080521A6002B010BD00F0FF
:10ADA000D9F8034B1860D2E70448FAF786FEEDE7BE
:10ADB0008801002000380240D34D6210501A002054
:10ADC00000E100E02DE9F0410546884617461E46A1
:10ADD000104B1B68D3B1102002F0E6FC0446C0F80B
:10ADE0000880027B67F3000205600135456066F369
:10ADF000820202730146074B186800F0C4F8237BF7
:10AE000043F0020323732046BDE8F081FFF79AFF69
:10AE1000E1E700BF8801002018B1027B6FF3410217
:10AE20000273704730B1026801324260027B42F027
:10AE3000020202737047007BC0F3400070470000BD
:10AE400000B583B00023019301A90F4B186800F0EF
:10AE500089F805E001A90C4B186800F086F878B174
:10AE600001A9094B186800F08AF848B1027B12F07A
:10AE7000020FEFD04268002AECD0013A4260E9E7C5
:10AE800003B05DF804FB00BF8801002008B54FF057
:10AE90008042136923F001031361FFF7D1FF08BD5E
:10AEA0002B4B1868002852D010B582B000240194B2
:10AEB00001A900F057F809E0026842609B689847D2
:10AEC00001A9234B186800F050F8F0B101A9204BFC
:10AED000186800F054F803460028F1D0027B12F005
:10AEE000020F0CD041680029EAD112F0010FE3D023
:10AEF000027B6FF3410202730134E4B2DEE712F029
:10AF0000040FDDD00134E4B2DAE70CB902B010BDB1
:10AF100001A90F4B186800F025F806E001A90C4BB9
:10AF2000186800F022F80028F0D001A9084B186832
:10AF300000F025F8037B13F0020FEFD113F0040F9C
:10AF4000ECD00146024B186800F033F8DEE770479A
:10AF50008801002008B50C2002F026FC0022426087
:10AF6000026008BD43680B6070470B682BB15868DE
:10AF70000860003818BF012070470020704708683B
:10AF800000B10068704738B504460D46082002F04D
:10AF90000BFC05600023436023682BB96060A06050
:10AFA00023680133236038BDA368002BF7D05860B5
:10AFB000F5E701B338B502460C460568B5B14068FF
:10AFC000A0B1002190B10368A34202D001464068BD
:10AFD000F8E74468013D156001B14C605368834255
:10AFE00005D09368834204D002F0E6FB38BD54607C
:10AFF000F7E79160F8E77047014BD868704700BFEA
:10B00000901A002070B584B025492648FEF7F3FC5D
:10B01000002842D142F21075002423492148FEF74E
:10B0200073FD70BB204B9B7E5BB31F4B1B7B13F0F0
:10B03000100FF2D11D4B93E8030002908DF80C1015
:10B0400002A8F5F7CFF806461948F5F7CBF886427F
:10B05000E3D2811B1831144B19443246023102A845
:10B0600003F02DF80028D8D10A2201A9104803F0D6
:10B0700031F9844200D20446854200D8284605466C
:10B08000CBE744B1E4B2601CC4B20648FEF72AFD27
:10B09000204604B070BD0124F7E76FF00F00F8E719
:10B0A00078040108781E0020A01A002080040108FE
:10B0B000BA1A002030B589B00D4C2046FEF79CFA34
:10B0C000002584F8A0524022294604F5177002F0AA
:10B0D000A3FBD4F89C32D4F8A4220649684602F0B7
:10B0E000B9FF684601F032FFC4F89C5209B030BD88
:10B0F000C01B002088040108014B93F8A802704788
:10B10000C01B0020024B002283F8A822704700BF1A
:10B11000C01B002038B504460B4B93F85C321BB1C2
:10B120000A4B2360002038BDFFF76CFF0028FADBD4
:10B13000054DC5F8A4020346054A064905F51770F2
:10B1400002F088FFECE700BFC01B00201C1E00209F
:10B15000780401089404010808B500210748FEF7A7
:10B160000AFD042800D008BD0448FEF7D7FD0028DA
:10B17000F9D100210148FEF7FEFCF4E7780401084C
:10B1800030B583B005460C46244BD3F89C2242F2DE
:10B190000F739A4207D9214BD3F8AC0208B1FFF7DD
:10B1A0003BFEFFF787FF6846FFF7B4FF002831DB5F
:10B1B0001A4B93F8A0324BB9322200991748FDF789
:10B1C00057FDD0B9154B012283F8A02201AB2246CE
:10B1D00029461248FDF7F2FF044670B90F4B996BF0
:10B1E000DA6B0A4314BF0122002283F8AA22D3F8A3
:10B1F000AC0220B1FFF716FE204603B030BD00239D
:10B200000122074942F21070FFF7DCFD034BC3F83F
:10B21000AC02F1E74FF0FF30EFE700BFC01B0020AA
:10B22000B5B0000808B5044BD3F8AC0210B1FFF775
:10B2300002FE08BD0020FCE7C01B002000B583B063
:10B2400000F030F910B900F047F968B9FFF784FF52
:10B2500010F0FF0F0BD101A8FFF75CFF002809DBFE
:10B26000002003B05DF804FB4FF0FF30F9E74FF02A
:10B27000FF30F6E74FF0FF30F3E7000008B5074B6B
:10B2800093F8A03203B908BD0448FEF7F5F800288A
:10B29000F9D1024B002283F8A922F4E7C01B002059
:10B2A00030B5C1B000210091FC2201A802F0B4FA2F
:10B2B000224B93F8A832DBB100246946204801F004
:10B2C000B2FD002821DD81B26846FFF759FF044630
:10B2D000D8B91A4BD3F858220132C3F85822D3F800
:10B2E0009C220132C3F89C22012283F8A922E4E7C0
:10B2F000FFF7A4FF78B9114B012283F8A82200229E
:10B3000083F8A92200F09EFCD6E7002C05DB0B4B4E
:10B3100093F8A9327BB941B030BD0A2000F012F891
:10B32000064C002584F8A85284F8A052F5F7BEFE1A
:10B33000C4F85852EFE7FFF7A1FFECE7C01B00206D
:10B3400000000020F8B5002414E014466E0005EB60
:10B35000450302EB83031A8901321A81FFF74CFE81
:10B36000354404EB8504E060114B01221A70F8BDEE
:10B370000134E4B21F2CF7D8254604EB44030C4AF1
:10B3800002EB83035B688342DFD0002BF0D1084FD0
:10B39000660004EB440307EB83035860FFF72CFEC1
:10B3A000354407EB8505E860A7F88441DCE700BF7A
:10B3B000C81E002030B5ADF5197D0C4615461A465D
:10B3C00003B90222014602A8FDF752FC30B102A8DF
:10B3D000FEF712F900200DF5197D30BD01AB2A46AC
:10B3E000214602A8FDF7EAFEF1E7F0B5ADF5197DBB
:10B3F0000F4615461C461122014602A8FDF738FCEF
:10B40000064640B102A8FEF7F7F8301E18BF01202B
:10B410000DF5197DF0BD2246002302A8FEF701F9C3
:10B4200006460028EED101AB2A46394602A8FDF7B0
:10B43000D5FDE7E770B582B0064614461D4621B13A
:10B440000A460023FEF7EDF8E0B901AB02222146DF
:10B450003046FDF7C3FDC0B9019BCBB123786278BC
:10B4600042EA03222A80531E9BB2FE2B13D801AB63
:10B47000A11C3046FDF7B2FD80B92B8802332B802A
:10B4800002B070BD4FF0FF30FAE76FF00100F7E750
:10B490006FF00300F4E76FF00200F1E76FF00300D4
:10B4A000EEE70000014B93F848027047502000205F
:10B4B00008B5024B5878FBF7B7FA08BD50200020BA
:10B4C00008B50448002180F848124FF4127202F0C7
:10B4D000A3F908BD5020002008B5012206490748FD
:10B4E000FDF798FB20B9054B012283F8482208BDDF
:10B4F0004FF0FF30FBE700BFB004010850200020F0
:10B500004268136843F0160313604268536943F0BE
:10B51000800353614268136823F4802313604368F7
:10B520004FF480725A60036804334268936000F1FC
:10B5300021024368DA604268136881680B4343F470
:10B54000A0631360C268136801690B4343F480630E
:10B550001360C268536943F0800353617047000071
:10B56000F0B4C468E6B2103E184DA5FB06752D096F
:10B57000174F7F5D5F2E24D924F47F7525F00305D6
:10B58000043525F47F7525F00305266826F00106AD
:10B59000266026680069304340F4013040F04000E6
:10B5A00020606360A260E1603F23BB40AB60236822
:10B5B00043F016032360236843F001032360F0BCCB
:10B5C000704724F47F7525F00305DAE7ABAAAAAA31
:10B5D000A004010800238B4210D210B5C21892F8C3
:10B5E000214092F82422944204D10133DBB28B42F1
:10B5F000F4D302E00820FFF7A5FE10BD704778B134
:10B6000010B50446B0F822320BB9002010BDD0F8B6
:10B610002C3303B198470023A4F822320120F5E728
:10B6200000207047F8B5044690F82833002B39D035
:10B6300003681D6815F0100F30D05A681A6822F0A0
:10B6400010021A6043685E68D6F5807626D090F8BE
:10B6500020206AB3002780F820703A46042143482E
:10B66000F8F797FC6268136823F001031360314612
:10B670002046FFF7AFFF04F12103324639461E464C
:10B68000184602F0C9F86368DE6063684FF48072A0
:10B690005A606268136843F00103136015F0080FE5
:10B6A0002CD1F8BD0268136823F00E031360F8E78D
:10B6B0001A6822F001021A6000F121073246394669
:10B6C00000F2211002F080F8A4F822624FF4807694
:10B6D00032460021384602F09FF82046FFF78FFFE0
:10B6E000234A1368013313606368DF6063685E6038
:10B6F0006268136843F001031360CFE722681368A0
:10B7000023F00803136023685A68DA6822F40052B1
:10B71000DA602268536943F0C00353612268D3683A
:10B7200043F40053D3606268136823F0010313608D
:10B7300004F121026368DA6063684FF480725A6032
:10B740006268136843F0140313606268136843F07F
:10B75000010313600320FFF7F5FD064B9C42A0D1C7
:10B76000002204210148F8F714FC9AE7000802407F
:10B770008C010020B815002008B50168CA6822F4C1
:10B780000052CA600168CA6842F01C02CA600168BF
:10B790004A6942F0C0024A610168CA6842F4005234
:10B7A000CA60002280F82020FFF7AAFE08BD000032
:10B7B000644B5B6813F0007F04D0624AD36843F0A7
:10B7C0000073D3605F4B5B6813F4800F04D05D4A55
:10B7D000D36843F48003D3605A4B5B6813F0006F67
:10B7E00004D0584AD36843F00063D360554B5B687C
:10B7F00013F0806F04D0534AD36843F08063D36062
:10B80000504B1B6813F4002F04D04E4A936843F446
:10B81000002393604B4B1B6813F4803F04D0494ACC
:10B82000936843F480339360464B1B6813F4001F06
:10B8300004D0444A936843F400139360414B1B685F
:10B8400013F4801F04D03F4A936843F4801393603D
:10B850003D4B1B6813F0007F04D03B4A936843F0D4
:10B8600000739360384B1B6813F4800F04D0364A82
:10B87000936843F480039360334B1B6813F0006FAD
:10B8800004D0314A936843F0006393602E4B1B68E9
:10B8900013F4007F04D02C4A936843F40073936040
:10B8A000294B1B6813F0400F04D0274A936843F0DC
:10B8B00040039360244B1B6813F4006F04D0224AAA
:10B8C000936843F4006393601F4B5B6813F0080FA9
:10B8D00004D01D4AD36843F00803D3601A4B5B6859
:10B8E00013F0010F04D0184AD36843F00103D3606A
:10B8F000154B5B6813F0200F04D0134AD36843F054
:10B900002003D360104B1B6813F4002F04D00E4AA1
:10B91000936843F4002393600B4B1B6813F4803F40
:10B9200004D0094A936843F480339360064B1B6844
:10B9300013F4001F04D0044A936843F40013936087
:10B94000704700BF0064024000600240C3685B684B
:10B950009BB910B5044679B100681346021D204614
:10B96000FFF7FEFD2268536943F0800353612268AC
:10B97000136823F04003136010BD704710B50446F0
:10B98000012204210648F8F704FBB4F8242304F547
:10B9900009712046FFF7DAFF012384F8203010BD3B
:10B9A00000080240F8B50446002580F828530160DD
:10B9B00042608360069BC360079B0361089BC36171
:10B9C00080F82050099BC0F82C33FFF7D5FE04F116
:10B9D00021074FF4807632462946384601F01CFF95
:10B9E0006268136823F0010313606368DF606368B3
:10B9F0005E606268136843F0160313606268136840
:10BA000043F001031360012384F82833C4F83C5346
:10BA1000F8BD000008B501F007FC024BC3E90001C6
:10BA200008BD00BFB0220020F0B5C5B01446D0F864
:10BA300040230132C0F8402304F10C05ADB2254B80
:10BA4000A3FB0263DB0BC3EB0343D31A9EB2224A70
:10BA5000904239D04027214A106852684FEA152C8D
:10BA60008DF800C08DF80150350A8DF802508DF820
:10BA700003303B0A8DF804308DF80570030A8DF809
:10BA800006308DF80700030E8DF80830000C8DF895
:10BA90000900130A8DF80A308DF80B20130E8DF86B
:10BAA0000C30120C8DF80D2022460DF10E0001F025
:10BAB0008BFE04F10E0292B26946094801F052F978
:10BAC000002803DB45B0F0BD3027C4E70B20FFF7AB
:10BAD00039FCF7E70180008078110020B0220020B7
:10BAE0000000002070B5044600F22115B0F8226273
:10BAF00001F0DAFC00B970BD324629462046FFF756
:10BB000093FFF8E7F0B5C7B006463246FF2106A816
:10BB1000FEF7FBFA0446002837D01D4A6B4607CAD9
:10BB200003C31A706946204602F0DBFA0028ECD005
:10BB30003246FF2106A8FEF7E8FA04460028E4D0C2
:10BB4000282102F0A7FA0028F2D0013001F0E9FC28
:10BB500007463A21204602F09DFA0028E8D001303D
:10BB600001F0DFFC05462C21204602F093FA002864
:10BB7000DED0013001F0D5FC03970495059003A9B0
:10BB8000044B1868FFF7FFF9D2E747B0F0BD00BFDC
:10BB9000A8040108A022002070B5C4B005462A46BA
:10BBA000FF2104A8FEF7B1FA0646002837D06C46FC
:10BBB0001C4B0FCB84E80F002146304602F091FA6F
:10BBC0000028ECD02A46FF2104A8FEF79EFA04467E
:10BBD0000028E4D001F0A5FC134B18602C2120466E
:10BBE00002F058FA04460028ECD00134204601F057
:10BBF00098FC0D4B58602C21204602F04BFA00288F
:10BC0000E0D0013001F08DFC074B98601B68002BE1
:10BC1000D8D0054B5B68002BD4D00028D2D044B0DC
:10BC200070BD00BFB4040108A422002010B4034674
:10BC3000034C07CC186059609A605DF8044B70475C
:10BC4000A422002000B5ADF5177D01220B496846FE
:10BC5000FDF70EF818B10DF5177D5DF804FB684689
:10BC6000FFF750FF002200236846FDF7DAFC684624
:10BC7000FFF792FF6846FDF7BFFCECE7C40401083C
:10BC8000124B1B89B3F5204F1ED303F5C0435B0055
:10BC90009BB20E4A5289520092B2222B14D810B590
:10BCA000D118222902DDC3F1220292B21033074CCF
:10BCB0002344C11C181D01F087FD222204F1140148
:10BCC0006068FFF7B1FE10BD704700BFB8220020CA
:10BCD00083780533994201D00020704701207047D6
:10BCE000F8B5254B5C68B4F8226294F8225194F8B8
:10BCF0002121B4F826339A421AD104F22117082ED2
:10BD000017D01D4B1B789BB11B4B1B895BB11A4B8A
:10BD10005B8943B131463846FFF7DAFF18B1033D7E
:10BD2000EDB2012D23D9144B00221A701A815A81C9
:10BD3000F8BD033DEDB2012DFAD8104D324639461B
:10BD4000284601F041FD012305F80C3C94F823112D
:10BD500094F8243143EA012325F8043C94F8251192
:10BD600094F8263143EA012325F8023CE0E7314606
:10BD70003846FFF785FFD6E7B8220020C42200200E
:10BD800008B501F091FB00B108BDFFF7A9FFFBE783
:10BD900008B5084B5860A0F826132222002103F1B1
:10BDA000140001F039FD002208210348F8F7F1F8EA
:10BDB00008BD00BFB82200200008024008B5054BAE
:10BDC0001B68002283F8202004210348F8F7E1F8DB
:10BDD00008BD00BFF02200200008024010B50A4C48
:10BDE0002068FFF7CBFD2468D4F83C0310B1FFF7BF
:10BDF00019F810BD0023012204493220FEF7E2FFAA
:10BE0000C4F83C03F5E700BFF0220020BDBD0008E8
:10BE100008B501F47043B3F5005F04D0B3F5805F5B
:10BE200011D0002008BD104B93F8E2342BB1520022
:10BE30000E4901F0C9FC0020F4E75200002101F096
:10BE4000EBFC0020EEE7202A0BD8C1F30B0101F533
:10BE50003D715200044B03EB410101F0B5FC0020A1
:10BE6000E0E74FF0FF30DDE7F0220020D32700208D
:10BE700008B5124BB3F8DC23D3F8D813186800F0D8
:10BE8000EDFEA0B94FF4004001F0A8FA0B4BD3F837
:10BE9000800310B1FEF7C6FF0BE000230122084922
:10BEA0000F20FEF78FFF054BC3F8800301E0FFF77B
:10BEB00049FA024B002283F8D42308BDF022002067
:10BEC000DDBD000800F22111B0F82222044BC3F8B6
:10BED000D813A3F8DC23012283F8D423704700BFD2
:10BEE000F022002010B5A4B0114AD2F8C433B2F940
:10BEF000E42593421AD39B1A00930D49D1F8CC3311
:10BF0000019301F5617102A802F0D1F8482422469C
:10BF100069460DEB040001F057FC002322460DEBAF
:10BF200004010448FFF746FA24B010BD0093E4E78B
:10BF3000F0220020D40401080378407840EA03206E
:10BF4000400080B270470000F8B52F4BB3F9E4759C
:10BF5000002F57D006460024254628E02A4B002211
:10BF600083F8E625BFB27F1B3FB2002D3ED0002FE5
:10BF700031DD05F59C61244E31443A46033106F229
:10BF8000E34001F02FFCA6F8E4751F4B93F8E6356B
:10BF9000A34232D31C4A1B1B82F8E635D2F8CC33BD
:10BFA0001C44C2F8CC432846F8BD0134E4B2164B19
:10BFB00093F8E635A342D5D905F59C60124B184499
:10BFC0000330FFF7B9FF03460028C7D02B44DDB28A
:10BFD000B442EAD1C6E70D4E4FF4807200213046DC
:10BFE00001F01AFC0023A6F80131CEE7064B002031
:10BFF000A3F8E40583F8E605D6E7034B002283F8AF
:10C00000E625D0E70020CFE7F0220020D32700204C
:10C01000124BD3E9982352EA030117D00F4991F844
:10C02000DE13A9B10D49D1F8C40300218B4208BF2A
:10C03000824201D000207047084BB3F8E0344BB97E
:10C04000064BB3F9E4353BB100207047012070473F
:10C05000002070470020704701207047F022002028
:10C0600038B5062252BA2B4BA3F8E825162252BA4D
:10C07000A3F8EA250022A3F8EC257D2252BAA3F802
:10C08000EE25032252BAA3F8F025022252BAA3F8F1
:10C09000F225D3F8C823D3F8CC13521A52BAA3F816
:10C0A000F425FFF7BFF808BB0024FFF725F808B117
:10C0B00044F0020464BA174DA5F8F64501F070F992
:10C0C00040BAA5F8F805D5F8E8368BB1D5F8EC26D6
:10C0D00072B1D5F8F01659B15BBAA5F8FA3552BA73
:10C0E000A5F8FC2549BAA5F8FE1510E00124DCE707
:10C0F0004FF4487252BA074BA3F8FA254FF4FA727C
:10C1000052BAA3F8FC25FA2252BAA3F8FE25FFF78B
:10C1100081FC38BDF0220020F8B5124C2046FDF716
:10C120006BFA04F55F773846FDF755FD002584F876
:10C13000D65300F05FFF0646C4F8BC53A4F8DC55A4
:10C14000A4F8D85440222946384601F065FB4FF444
:10C150009072294604F5167001F05EFBFFF780FF30
:10C160003046F8BDF8220020054B0022C3F8E8262F
:10C17000C3F8EC26C3F8F02683F8DF23704700BF2E
:10C18000F022002008B5084BD3F8D003FFF7DCFEFF
:10C19000002804DC044B0022C3F8D02308BDFFF7BD
:10C1A000A1FEFFF75DFFF5E7F0220020091A01313B
:10C1B000034BC3F8D013002283F8E224704700BF7A
:10C1C000F022002070B504461546C1F30B0001F4BF
:10C1D0007041B1F5805F07D0B1F5005F1DD0B1F5BA
:10C1E000004F33D0002070BD00F54570520021464D
:10C1F0001B4B03EB400001F0E7FA012DF2D9238835
:10C200005BBA9BB2012BEDD1608840BAA18849BAD4
:10C2100089B280B2FFF7CAFFE4E700F54D70104E17
:10C220005200214606EB400001F0CEFAD6F87836EF
:10C230001BB9D6F87C36002BD4D0FEF7F3FF0028CC
:10C24000D0D1074B012283F8E023CBE700F55570EE
:10C2500052002146024B03EB400001F0B5FAC1E762
:10C26000F022002030B58FB0322101A800F08EFE00
:10C27000044660B1184B002283F88423C3F8C4231A
:10C28000C3F8C823C3F8CC2320460FB030BD1349F0
:10C2900001A801F03DFF054601461148F3F798FF5C
:10C2A00058B90E49002001F033FF0028ECD001F00E
:10C2B00038F9094BC3F8C803E6E707480023C0F87C
:10C2C000C433C0F8CC332B46064A074900F56170E9
:10C2D00001F0C0FEE5E700BFF0220020DC04010809
:10C2E0007926002078040108E004010810B592B016
:10C2F000002400944422214601A801F08DFA23462F
:10C30000482269460E48FFF770F8044658B10D4BB5
:10C310000022C3F8C423C3F8CC230B48FFF786FCE4
:10C32000204612B010BD0748009BC0F8C433019BE3
:10C33000C0F8CC3302A900F5617001F0B8FEECE75B
:10C34000D4040108F0220020D829002008B51049A3
:10C35000FDF711FC042811D0012811D00D4BD3E9B1
:10C36000982352EA03010ED00A49D1F8C4030021F0
:10C370008B4208BF824208D0002008BD0120FCE7A4
:10C380004FF0FF30F9E70120F7E70120F5E700BFA4
:10C3900050250020F022002038B50546FFF762FF47
:10C3A00000281FDB1148FFF7D1FF00280FDD00F048
:10C3B00021FE0E4C40220021204601F02DFA4FF4C0
:10C3C00090720021A4F5927001F026FAE6E70028A9
:10C3D0000ADB012205492846FCF74AFC20B14FF050
:10C3E000FF3001E04FF0FF3038BD00BF7426002061
:10C3F00030B484B003460D460888A0F10E0292B214
:10C40000072A26D00B2A51D100228DF804201A7C4D
:10C410008DF805205A7C8DF806209A7C8DF807202F
:10C42000DA7C8DF808201A7D8DF809205A7D8DF868
:10C430000A209A7D8DF80B20DA7D8DF80C201A7E6B
:10C440008DF80D205A7E8DF80E209A7E8DF80F20E3
:10C450001FE000228DF80420197C8DF80510597C0E
:10C460008DF80610997C8DF807108DF80820D97C7E
:10C470008DF809108DF80A20197D8DF80B108DF8B4
:10C480000C20597D8DF80D108DF80E209A7D8DF8B9
:10C490000F2001AC07CCC3F80E00C3F81210C3F88C
:10C4A00016201A232B8004B030BC7047013020F0D6
:10C4B00001000880F7E72DE9F0418AB000AF884617
:10C4C000EC460B880E2B50D0837B3B71C37B7B717A
:10C4D000037CBB71437CFB71837C3B72C37C7B72AE
:10C4E000837DBB72C37DFB72037E3B73437E7B7394
:10C4F000837EBB73C37EFB73037F3B74437F7B747C
:10C50000837FBB74C37FFB7490F822303B7590F837
:10C5100023307B7590F82430BB7590F82530FB757F
:10C5200090F826303B7690F827307B7690F82E30C6
:10C53000BB7690F82F30FB763E1D00F10E0407F11C
:10C54000240E35460FCD20606160A260E3602E4668
:10C5500010347545F5D12B8823803023A8F800309E
:10C56000E5462837BD46BDE8F081013323F00103DD
:10C570000B80E546F5E708B50B8801335A105B0AD6
:10C58000037042700279437943EA02231BB2302BD5
:10C5900002D0402B03D008BDFFF72AFFFBE7FFF7CF
:10C5A0008AFFF8E710B5254BD3F8D033DBB9234B1E
:10C5B00093F8DE33D3B10024FFF72AFD00BB1F4BF5
:10C5C000B3F8E034FF2B03D91C4B0022A3F8E0247E
:10C5D0001A4BB3F8E034EBB114F1040F01D0002C86
:10C5E00025DB204610BDFFF7CDFDE0E71448FFF73F
:10C5F000D3FE0446F0B9114B012283F8DE23DBE7BA
:10C600000E4BB3F9E43513B16FF00104E9E7FFF71E
:10C6100083FDF9E70B4BA3F59C61A3F1FF02D1F871
:10C62000C413A3F59B60FEF705FF0446D4E7FFF7AC
:10C6300073FDD6E74FF0FF34D3E700BFF0220020B0
:10C64000F8220020D027002038B5FFF7ABFF0028E4
:10C6500030DB1E4C2146A4F1FF00FFF78CFFB4F93C
:10C660000401228812FA80F5ADB2C5F1FA052DB2A7
:10C67000002D1FDB00F59C60A4F59C64204404F2AF
:10C68000E131033001F0A0F894F8E635013384F885
:10C69000E635236CC4F8C433B4F8E034B4F8E425C8
:10C6A0001344A4F8E435FFF7DBFC0023A4F8E034DE
:10C6B0009D42CADC064BB3F9E435002B03DD044B85
:10C6C000012283F8E224002038BD00BFD0270020DB
:10C6D000F022002030B583B00E4CB4F878365BBA47
:10C6E000B4F87A2652BA43EA0243B4F87C2652BA26
:10C6F000B4F87E566DBA184642EA0541CDE900010C
:10C70000DDE9000100F04AFD002384F8E03303B0C6
:10C7100030BD00BFF022002008B50A4B93F8E23488
:10C720006BB9084B93F8DF3333B9FFF7DFFD28B956
:10C73000044B012283F8DF23FFF786FF08BD0020AA
:10C74000FCE700BFF022002008B50E4B93F8D4336D
:10C750003BB90C4B93F8E03333B9FEF7CDFC30B95D
:10C7600008BDFFF785FBF4E7FFF7B4FFF5E7FEF739
:10C7700099FE18B9FEF7B0FE0028F1D1FFF7CCFF03
:10C78000EEE700BFF02200202DE9F04788B0FFF768
:10C7900067FC144CD4F86052D4F8C46394F8E6757E
:10C7A000B4F9E48594F8DE930F4BD3F800A000F0C1
:10C7B000F7FDD4F8CC330693D4F8C833059304902E
:10C7C000CDF80CA0CDF80890CDF804800097334642
:10C7D0002A4604F56171054801F04EFB08B0BDE83A
:10C7E000F08700BFF022002000280040E804010884
:10C7F00010B50F4B1860A0F826130E4AC0F834236A
:10C800000D4AC0F83823002483F8E24483F8DE435D
:10C8100083F8DF43C3F8D043C3F880434FF48072FA
:10C82000214603F2E34000F0F7FF204610BD00BFB1
:10C83000F022002011BE0008C5C10008024A136999
:10C8400001331361704700BFE82900202DE9F04152
:10C85000C0B006460C468B78CF7847EA03270B79A1
:10C860004A7942EA03220FFA82F88D79CB7945EAB8
:10C8700003250621204600F031FA85422AD123788B
:10C8800086F82432637886F82532D6F834333BB301
:10C890005FFA88F4224639466846984740B2002835
:10C8A0001BDBD4B1670086F826723D46F91C06F5FD
:10C8B000097000F013FA0337374487F82402023472
:10C8C00006EB4404000A84F824020535A6F8245334
:10C8D000002002E0FFF7B2FF002040B0BDE8F08189
:10C8E0000620FEF72FFD4FF0FF30F6E72DE9F0436D
:10C8F000C1B005460C468B7891F8038048EA0328BE
:10C900000B794E7946EA03268F79CB7947EA0327DC
:10C910000621204600F0E2F9874238D136B223786A
:10C9200085F82432637885F82532D5F83433002B26
:10C930004ED05FFA86F906F07F0241466846984776
:10C9400047B2002F2ADB4FEA49042246694605F226
:10C95000272000F039FFB9F1000F1BD085F82642DF
:10C96000F6B27600F11C05F5097000F0B7F9033452
:10C970002C4484F8240209F1020905EB4909000A54
:10C9800089F824020536A5F82463002702E0FFF7A2
:10C9900055FF0027384641B0BDE8F0830720FEF779
:10C9A000D1FC637863F07F0385F82532062385F890
:10C9B0002632032105F5097000F090F985F8270269
:10C9C000000A85F828020523A5F824330027E1E7AB
:10C9D0000620FEF7B7FC4FF0FF37DBE7F0B583B07A
:10C9E00005460C468B78CF7847EA03270A794B79BE
:10C9F00043EA0223ADF806308E79CB7946EA032666
:10CA00000621204600F06AF9864226D1D5F838334F
:10CA10003BB3012239460DF10600984740B2D0B928
:10CA2000237885F82432062385F82532A37885F803
:10CA30002632E37885F82732237985F8283263791E
:10CA400085F82932A37985F82A32E37985F82B32E3
:10CA50000823A5F8243303B0F0BDFFF7EFFE002054
:10CA6000F9E70520FEF76EFC4FF0FF30F3E72DE904
:10CA7000F84306460C4617468B7891F8038048EA3F
:10CA800003280A794B7943EA02230FFA83F989795B
:10CA9000CB1DE55C01F10803E35C45EA03250731A2
:10CAA000204600F01BF985422ED1237886F82432E7
:10CAB000102386F82532092F2AD9D6F8383353B3F4
:10CAC0005FFA89F73A464146E01D984745B22DBBCB
:10CAD0003FB3A37886F82632E37886F827323B12F4
:10CAE00086F8283286F82972062106F5097000F0CA
:10CAF000F5F886F82A02000A86F82B020823A6F821
:10CB000024332846BDE8F883FFF798FE0025F8E7B0
:10CB10004FF0FF35F5E74FF0FF35F2E74FF0FF3507
:10CB2000EFE70325EDE70000024AD3680133D36045
:10CB3000704700BFE8290020024A936801339360E0
:10CB4000704700BFE829002010B504460B7880F834
:10CB500024324B7863F07F0380F8253280F8262258
:10CB6000032100F5097000F0B9F884F82702000AE3
:10CB700084F828020523A4F82433002010BD38B51A
:10CB80000446CB798D7945EA03250B7880F8243269
:10CB9000082380F82532002380F8263280F82732D7
:10CBA0000B7980F828324B7980F82932062100F57C
:10CBB000097000F093F8854209D184F82A02000A2E
:10CBC00084F82B020823A4F82433002038BDFFF793
:10CBD00035FE4FF0FF30F9E738B504460D46FFF754
:10CBE00035FE10F0FF0205D029462046FFF7ACFFC6
:10CBF000002038BDFFF798FFFAE738B504460D4628
:10CC0000FFF774FE10F0FF0205D029462046FFF71B
:10CC10009BFF002038BDFFF787FFFAE738B50446D1
:10CC20000D46FFF7DBFE30B1C2B229462046FFF7C2
:10CC30008BFF002038BDFFF777FFFAE738B50446D1
:10CC40000D46FFF714FF30B1C2B229462046FFF768
:10CC50007BFF002038BDFFF767FFFAE770B5164687
:10CC60000A78B0F826339A4201D0012070BD0546FB
:10CC70000C46FFF761FF072E2DD96378033B0D2B80
:10CC800022D8DFE803F0070C2111211621212121F0
:10CC90002121211B21462846FFF79EFFE6E721467A
:10CCA0002846FFF7AAFFE1E721462846FFF7B6FF2F
:10CCB000DCE721462846FFF762FFD7E7F2B22146BC
:10CCC0002846FFF7BBFFD1E7012221462846FFF7A0
:10CCD0003BFF0020CAE70120C8E7000030B4FF2274
:10CCE00015464B1E9CB249B110F8013B5340054A12
:10CCF000D25C6A400449CD5C2146F2E742EA052055
:10CD000030BC7047C4050108C4060108F8B51546D3
:10CD100083681344C268934221D804460E460069D2
:10CD200043196768BB4210D22A4600F04DFD2369C3
:10CD30002B4423616268934202D3E2689B1A236109
:10CD4000A2682A44A2600020F8BD3F1A3A4600F0CB
:10CD50003BFDEA1BF119206800F036FDE7E74FF0D4
:10CD6000FF30F1E722B370B582B004460D46164697
:10CD7000083283681344C26893421CD8002301938D
:10CD800003690833009341688B4201D39B1A0093D7
:10CD9000ADF80460082269462046FFF7B7FF68B97E
:10CDA000324629462046FFF7B1FF50B902B070BDA8
:10CDB0004FF0FF3070476FF00100F7E76FF00200AF
:10CDC000F4E76FF00300F1E7F8B583682BB304468E
:10CDD0000E461546934223D341698B184768BB42E0
:10CDE00010D8304600F0F0FC63692B446361626840
:10CDF000934202D3E2689B1A6361A268521BA2604D
:10CE00000020F8BD7F1A3A46304600F0DDFCEA1BF0
:10CE10002168F01900F0D8FCE6E74FF0FF30F0E7AA
:10CE20004FF0FF30EDE770B582B006460C460023A8
:10CE30000093019308226946FFF7C6FF80B90546B3
:10CE4000BDF80420FF2A0FD87169009B99420ED1CA
:10CE500021463046FFF7B8FF18B9BDF8045000E08E
:10CE60000025284602B070BD4FF0FF35F9E74FF0BE
:10CE7000FF35F6E77F2817D999B1FF2813D88038F6
:10CE80000A4B33F81000704701339BB27F2B04D854
:10CE9000064A32F813208242F6D103F18000C0B274
:10CEA00070470023F2E70020704700BFC407010865
:10CEB000B0F5805F07D2234B1A88002A40D09042F9
:10CEC0003ED3F0B406E0204BF6E72B461A88CAB1F1
:10CED000904217D31D1D5B88190ADBB29C18A04233
:10CEE00004DB0029F1D105EB4303EFE7082909D85A
:10CEF000DFE801F0050A101316191C1F2200861A1C
:10CF000035F81600F0BC7047821A02F00103C01A0F
:10CF100080B2F7E7103880B2F4E7203880B2F1E74A
:10CF2000303880B2EEE71A3880B2EBE7083080B2D2
:10CF3000E8E7503880B2E5E7A0F5E35080B2E1E7DA
:10CF4000704700BFC4080108B80A010838B5044694
:10CF500033220B490B48FBF78BFE70B9094D224673
:10CF600009492846FDF7F7F804462846FCF744FB34
:10CF7000002C00DD0024204638BD4FF0FF34FAE7D6
:10CF8000740B0108102A0020800B010830B5C9B0CD
:10CF900004460D4669461548FCF7EDFDF8B9012237
:10CFA00012491348FBF764FEE0B9114A29462046AE
:10CFB000FDF7ABF870B12046F3F714F901280CDD4A
:10CFC000431E0022E25414460948FCF715FB204694
:10CFD00049B030BD6FF00104F6E70024F4E74FF0EC
:10CFE000FF34F4E74FF0FF34F1E700BF740B0108A2
:10CFF000102A002010B5ADF5B96D4FF41674224615
:10D000000021DCA800F008FC2246002146A800F020
:10D0100003FC274A43AB07CA03C323F8022B120CB5
:10D020001A70244B93E803000190ADF80810012218
:10D0300043A9DCA8FBF71CFE002836D1132201A966
:10D0400046A8FBF715FE30B9DCAA4FF4807103A89F
:10D05000FDF75BF810E0DCA8FCF7CEFA6FF00100FA
:10D0600020E0DCAA4FF4807103A8FDF74EF803AA74
:10D07000114946A8FDF76FF8DDE9EA01DDE9E02393
:10D08000994208BF9042ECD1DCA8FCF7B5FA46A85B
:10D09000FCF7B2FA43A8FCF79EFD43A901A8FCF7F0
:10D0A0003FFF00200DF5B96D10BD4FF0FF30F9E7DF
:10D0B000740B0108880B0108840B010808B5054BA7
:10D0C0001860054B1868002302221946806800F09A
:10D0D000FBFE08BD682C002024000020022801D897
:10D0E0000120704708B500F021FA092303600020F1
:10D0F00008BD000010B5013801280AD814464FF0C9
:10D10000FF3392B207480068F8F781FF40B9204624
:10D1100010BD00F00BFA092303604FF0FF30F7E772
:10D120000520F5E7682C0020022801D80020704770
:10D1300008B500F0FBF9092303604FF0FF3008BD8C
:10D1400008B500F0F3F9092303604FF0FF3008BD84
:10D1500008B548B94FF0FF33012208480068F8F7D6
:10D16000C7FF40B9012008BD00F0E0F909230360C2
:10D170004FF0FF30F7E70520F5E700BF682C0020EF
:10D1800008B5022804D84FF400534B60002008BDB6
:10D1900000F0CCF909230360F8E7000030B593B044
:10D1A000CDE90001684600F0EBF903AD04460FCC71
:10D1B0000FC50FCC0FC523682B609DF814308DF878
:10D1C00034309DF810308DF835309DF80C308DF8E6
:10D1D000363000220DA91348F9F749F9099B0BB91C
:10D1E000072309939DF824308DF830309DF81C30CA
:10D1F00001338DF831309DF818308DF83230089BAE
:10D20000643B8DF83330074C00220CA92046F9F717
:10D21000ADF943F2F22200212046F9F763FA13B088
:10D2200030BD00BFBC14002070B590B0134C00227C
:10D230000AA92046F9F710FA00220FA92046F9F7AB
:10D2400033FA9DF828509DF829409DF82A009DF852
:10D250003E609DF83D309DF83F20643200210791EB
:10D26000089109910692013B059304960395029457
:10D27000019001A800F0B0FB10B070BDBC140020FC
:10D2800010B5194CE06CF3F74DF911A3D3E9002365
:10D29000F3F7C2F90022154BF3F7BEF90EA3D3E959
:10D2A0000023F3F701F80EA3D3E90023F3F7DEFA26
:10D2B00000220F4BF2F7FAFFF3F7C0FB0D4B58803B
:10D2C000A36843F08043A36010BD00BFAFF30080AC
:10D2D0006666666666660A4052B81E85EB51E83F90
:10D2E0007B14AE47E17A643F002001400000303FEC
:10D2F00000803940B42C002070B584B00025009522
:10D30000019502950395104C104B23604FF4803328
:10D310006360A5602561257684F82050E5620C4B9A
:10D32000A362E5600126E66184F83050666120461C
:10D33000F9F779FA10230093019602956946204681
:10D34000F9F79CFA04B070BD6C2C0020002001405D
:10D350000100000F00B583B0002301930D4B5A6C00
:10D3600042F480725A645B6C03F480730193019BF6
:10D37000FFF7C2FF084B9A6842F080429A609A68B1
:10D3800042F001029A60054B01221A7003B05DF869
:10D3900004FB00BF0038024000200140B42C0020F4
:10D3A00008B50C4B1B782BB10A4B5B682BB1094BB2
:10D3B000588808BDFFF7CEFFF6E7FFF761FF0023AF
:10D3C0001A46054941F28830FDF7FCFC014B5860D4
:10D3D000EDE700BFB42C002081D2000808B501465B
:10D3E00001220248F6F7D5FD08BD00BF0004024047
:10D3F00008B5014600220248F6F7CBFD08BD00BF84
:10D400000004024030B587B00024019402940394D4
:10D4100004940594094D22464FF440412846F6F7FE
:10D42000B8FD4FF440430193012302930394049405
:10D4300001A92846F6F726FC07B030BD00040240DB
:10D4400008B5FEF735F870B1FDF75CFEF3F72EFE78
:10D45000FEF78AFE4FF48040FFF7CAFF4FF400400A
:10D46000FFF7C6FF08BD4FF48040FFF7B7FFF5E7B1
:10D4700030B587B000240194029403940494059479
:10D48000084D224601212846F6F783FD012301932A
:10D4900002940394049401A92846F6F7F3FB07B01D
:10D4A00030BD00BF0008024008B5074B1B782BB108
:10D4B00001210648F6F766FD18B908BDFFF7D8FF49
:10D4C000F6E70120F9E700BFBC2C0020000802406D
:10D4D000DFF834D0002103E00C4B5B58435004319B
:10D4E0000B480C4B42189A42F6D30B4A02E0002339
:10D4F00042F8043B094B9A42F9D3F9F787FA00F056
:10D500001BF8F3F7A9FE704700000220A00F0108E6
:10D5100000000020EC000020F0000020CC2C0020B7
:10D52000FEE70A22002100F0D5BE0000014B18687A
:10D53000704700BF2400002070B50D4D0D4C641BDA
:10D54000A4100026A64209D10B4D0C4C02F00EFF90
:10D55000641BA4100026A64205D170BD55F8043BFB
:10D5600098470136EEE755F8043B98470136F2E755
:10D57000980F0108980F0108980F01089C0F0108E7
:10D5800038B50B4B1D68EB6B044653B9242000F0F3
:10D590000BF90246E86320B9064B0748322101F037
:10D5A00099F9E96B2046BDE8384000F007B800BFA4
:10D5B00024000020940B0108AB0B01082DE9F34176
:10D5C0000746019101F0C4FB01998046384601F0FD
:10D5D000C3FB43699A07044603F26C7605D16422C3
:10D5E00096FBF2F302FB13637BBB4FF4C87396FB0D
:10D5F000F3F503FB1565B5FA85F56D09684B302227
:10D6000002FB053500F018FF00F022FF654B1B6898
:10D6100053B3D8F80430B34219D1D8F80010D7E981
:10D620000067D8E90823D1B9964277EB030323DAE0
:10D63000D8E91223964277EB0303B4BF01230023FA
:10D6400023621BDBD8F828101AE00125D6E7304604
:10D6500000F04AFE0028E0D14FF0FF3304E096428C
:10D6600077EB030302DA00232362EBE7D8E9122306
:10D67000964277EB0303F6DA01232362D8F85010C1
:10D680004FF461633C2091FBF3F603FB16136168D2
:10D6900093FBF0F200FB12302368891AA2686160E4
:10D6A0001B1A921B3B2B2360A26035DD01316160A8
:10D6B0003C3B236063683B2B34DD0132A2603C3B82
:10D6C0006360A368172B33DDE2690132E261A2696E
:10D6D0000132062AC8BF0022A261E268183B01326B
:10D6E000A3602369E26055F823108A420EDD0B2BFC
:10D6F000A2EB0102E26003F1010209BF636922614A
:10D700000022013302BF22616361E26100F09AFEF0
:10D71000204602B0BDE8F081002BCBDA0139616010
:10D720003C33C6E7002BCCDA013AA2603C33C7E7B2
:10D73000002BEBDAE269013AE261A269013A48BFE3
:10D740000622A261E2681833013AE260A360002A6F
:10D75000DCD12369013B05D42361236955F82330CB
:10D76000E360D3E70B23236163695A1E626103F20E
:10D770006B72930705D1642192FBF1F301FB132334
:10D7800063B94FF4C87192FBF1F301FB1323B3FAB1
:10D7900083F35B0903F5B673E361DEE70123F9E781
:10D7A000880C0108B4010020024B0146186800F003
:10D7B00009BB00BF24000020024B0146186800F09E
:10D7C000B1BA00BF240000200A44914200F1FF33A7
:10D7D00000D1704710B511F8014B03F8014F914289
:10D7E000F9D110BD884210B501EB020402D9844280
:10D7F000234607D8431EA14208D011F8012B03F895
:10D80000012FF8E7024401468A4200D110BD13F807
:10D81000014D02F8014DF7E702440346934200D15F
:10D82000704703F8011BF9E7F7B501683B29044687
:10D8300011D93C22684601F06BF8019A636800999F
:10D84000002A0B446360BBBF3C3203F1FF3322600C
:10D850002260B8BF636061683B2911D93C226846E9
:10D8600001F056F8019AA3680099002A0B44A360BE
:10D87000BBBF3C3203F1FF3362606260B8BFA3609C
:10D88000A168172911D91822684601F041F8019AB8
:10D89000E3680099002A0B44E360BBBF183203F130
:10D8A000FF33A260A260B8BFE36021690B2911D9E0
:10D8B0000C22684601F02CF8019A63690099002A4D
:10D8C0000B446361BBBF0C3203F1FF332261226161
:10D8D000B8BF63616369990720D1642193FBF1F2BA
:10D8E00001FB1232E2B903F26C734FF4C87193FB7F
:10D8F000F1F201FB1233002B14BF1C231D23E2683D
:10D90000002A0FDC334F0B2664204FF4C875D4F87F
:10D910000CC0BCF1000F31DD03B0F0BD1C23EEE7FD
:10D920001D23ECE72B4F4FF0000C64254FF4C87615
:10D93000D4E90312012A14BF57F822001846814285
:10D94000EADD0132091A0C2AE1602261F0D1636933
:10D950005A1C9107C4E904C237D192FBF5F105FBCB
:10D960001122002A33D103F26D7393FBF6F206FB0A
:10D970001233002B14BF1C231D23D9E72169013961
:10D980002161013114D16369591E8A07C4E9046118
:10D9900017D191FBF0F200FB1211A1B903F26B73E6
:10D9A00093FBF5F205FB1233002B14BF1C231D2340
:10D9B0002269012A14BF57F822201A466244E26005
:10D9C000A5E71C23F4E71D23F2E71C23B0E71D2382
:10D9D000AEE700BF280C01082DE9F04F8BB00546DB
:10D9E00001F0B6F907462846FFF71EFFD5E90023E8
:10D9F0004FF03C0AA8686E690AFB03234FF4616A82
:10DA00000AFB003AD5E90343C34A52F82320013CFC
:10DA1000012B144411DDB1070FD1642296FBF2F300
:10DA200002FB136343B906F26C714FF4C87291FBA9
:10DA3000F2F302FB131303B9013406F51C53103340
:10DA400044F620629342EC6100F26181462E77DD5C
:10DA5000462340F26D1E64214FF4C8709A0769D1C5
:10DA600093FBF1F201FB1232002A66D103F26C7CC7
:10DA70009CFBF0F200FB12C2002A14BF72464FF466
:10DA8000B77201339E421444E8D1A44B4FEAEA7BBB
:10DA9000C3FB04AB00F0D0FC00F0DAFCA04BD3F8E1
:10DAA0000090B9F1000F3FD0D5F8209068697B68ED
:10DAB000B9F1010F00F26C70C846A8BF4FF0010821
:10DAC00083427FD13B6D1946DA17CDE90012D7E9C1
:10DAD0001212CDE90212DDE90201BA6A801A61EB85
:10DAE000E2718245CDE906017BEB010171DA009814
:10DAF000396A091A04910198796A61EB000105916C
:10DB00003968002975D0DDE9040182457BEB01010C
:10DB100005DBDDE9060182457BEB01016FDBB9F135
:10DB2000000F4FF000096FDABB6A1AEB030A4BEBE8
:10DB3000E37BAEE040F26D12A3E74FF4B772A0E7CB
:10DB4000A3D0452340F26D1E64214FF4C87012E04B
:10DB500062BB93FBF1F201FB123252BB03F26C7C0D
:10DB60009CFBF0F200FB12C2002A14BF72464FF475
:10DB7000B772A41A013B9E4203F00302E8DBDAB954
:10DB8000642296FBF2F302FB1363C3B906F26C71D5
:10DB90004FF4C87291FBF2F302FB1313002B40F217
:10DBA0006D1308BF4FF4B773E41A6EE740F26D12BD
:10DBB000DFE74FF4B772DCE740F26D13F4E74FF4A0
:10DBC000B773F1E700F090FB00287FF47BAFC1460C
:10DBD00054E000980299091A08910198039961EBA1
:10DBE00000010991DDE9080182457BEB0101EEDBD3
:10DBF0007DE7DDE9040182457BEB010189DBB9F1B9
:10DC0000000F3FDB4FF0010988EA0908B8F1010F66
:10DC100034D1B9F1000F4FD0D31A2A68D5F80C804F
:10DC20001A441AEB030A2A6028464BEBE37BFFF702
:10DC3000FBFDEA68B2EB080220D0012A3EDC901C12
:10DC4000D8BF0122EB69D318144440D5721E910746
:10DC500037D1642192FBF1F301FB1323A3BB06F23E
:10DC60006B764FF4C87296FBF2F302FB1366002E3C
:10DC700040F26D1318BF4FF4B673EB61B9F1010FA9
:10DC80007FF452AF3B6D1AEB030A4BEBE37B4FF093
:10DC9000010900F0D7FB0434072394FBF3F3C3EB33
:10DCA000C303E41A48BF0734C5F82090AC6150465E
:10DCB00059460BB0BDE8F08F9B1AAEE74FF0FF322C
:10DCC000C0E74FF4B673D8E740F26D13D5E7B2075B
:10DCD00017D1642196FBF1F201FB1262A2B906F2A0
:10DCE0006C764FF4C87196FBF1F201FB1266002EC0
:10DCF00040F26D1208BF4FF4B7729342A8BF9B1A4F
:10DD0000BBE740F26D12F8E74FF4B772F5E74FF05A
:10DD1000FF3A4FF0FF3BCAE7580C01088051010061
:10DD2000B401002037B5002948D051F8043C0190D7
:10DD3000002BA1F10404B8BFE41801F027F9204A30
:10DD400001981368154633B96360146003B0BDE8E9
:10DD5000304001F021B9A3420BD9216862189342E7
:10DD600004BF1A685B68636004BF521822602C60AD
:10DD7000ECE71A465B680BB1A342FAD91168551853
:10DD8000A5420BD1246821445418A3421160DDD16F
:10DD90001C685B68536021441160D7E702D90C23EB
:10DDA0000360D3E7256861198B4204BF19685B687B
:10DDB000636004BF491921605460C7E703B030BDF8
:10DDC00090010020F8B5CD1C25F0030508350C2D79
:10DDD00038BF0C25002D064601DBA94203D90C23D0
:10DDE00033600020F8BD01F0D1F821490A681446DB
:10DDF0009CB9204F3B6823B92146304600F054F8C7
:10DE000038602946304600F04FF8431C23D10C23DC
:10DE10003360304601F0C0F8E3E723685B1B17D49A
:10DE20000B2B03D923601C44256004E06368A242E5
:10DE30000CBF0B605360304601F0AEF804F10B00EC
:10DE4000231D20F00700C21ACCD01B1AA350C9E72B
:10DE500022466468CCE7C41C24F00304A042E3D04B
:10DE6000211A304600F020F80130DDD1CFE700BFA5
:10DE700090010020940100200FB40A4B13B51C68D8
:10DE800024B1A36913B9204600F070FE05AB049AD3
:10DE9000A1680193204601F00BFA02B0BDE81040E2
:10DEA00004B070472400002038B5064D0023044616
:10DEB00008462B6002F04AFA431C02D12B6803B1DA
:10DEC000236038BDC82C00202DE9F7431D465D4B6B
:10DED0001F6804460E46904627B1BB6913B9384601
:10DEE00000F044FE584B9C4267D17C68B8F1020FA9
:10DEF00006D0B8F1010F00F29F80002DC0F29C8087
:10DF0000636EDB0705D4A389980502D4A06D00F0E9
:10DF1000D5FF2146384600F095FD616B41B104F113
:10DF20004403994202D03846FFF7FCFE00236363A6
:10DF30000023A3616360A389190603D521693846CC
:10DF4000FFF7F0FEA38923F44A6323F00303B8F13B
:10DF5000020FA3816CD001AB6A462146384600F01F
:10DF6000B0FFA3891843A081002D30D1009D284621
:10DF7000FFF71AFC0646002855D1DDF80090A945A8
:10DF80004AD14FF0FF350022A26004F1470222601F
:10DF900022610122B4F90C306261626E43F0020327
:10DFA000D207A38105D413F4007F02D1A06D00F045
:10DFB00087FF284603B0BDE8F083244B9C4201D183
:10DFC000BC6893E7224B9C4208BFFC688EE7002E9A
:10DFD000CDD0BB6913B9384600F0C8FDB8F1010FC8
:10DFE00008BFA389266004BF43F00103A381A2896F
:10DFF00012F00803C4E904651CD0D30741BF002315
:10E000006D42A360A56158BFA560656E15F001055E
:10E0100015D112F4007FC8E74846FFF7C5FB064656
:10E020000028AED04D46A38943F08003A381D0E7FA
:10E030000025A8E7A360E8E74FF0FF35B9E7002522
:10E04000B7E700BF24000020000F0108200F0108DF
:10E05000E00E01080EB400B59CB01DAB0290069016
:10E060006FF00041094807910491094953F8042BC6
:10E0700005910068019302A900F0F0FF029B0022C5
:10E080001A701CB05DF804EB03B070472400002048
:10E090000802FFFFC9B2034610F8012B1AB18A42E9
:10E0A000F9D118467047002918BF0023F9E7034645
:10E0B00011F8012B03F8012B002AF9D1704710B594
:10E0C0006AB10139841810F8013B11F8012F93420D
:10E0D00003D1A04201D0002BF5D1981A10BD1046F3
:10E0E000FCE7F0B50C7864B103461A7818465E1C5C
:10E0F0000AB9104605E0944208D10D4615F8012FE3
:10E1000002B9F0BD13F8017F9742F7D03346ECE730
:10E11000164B73B51E68B46D0546FCB950200191CD
:10E12000FFF742FB0199B065024620B9104B114838
:10E13000572100F0CFFBC0E90044C0E90244C0E928
:10E140000444C0E90A44C0E90C44C0E90E44C0E9F3
:10E150001044C0E91244846104774462B26D012323
:10E16000284602B0BDE8704000F006B82400002048
:10E17000940B0108E80C0108F0B508B9106888B1E3
:10E180000446204614F8015B0F4617F8016B1EB9D0
:10E1900065B91560284605E0B542F6D1002BF0D1EF
:10E1A00014600370F0BD1C460CE015B914F8013B77
:10E1B0000E4616F8015BAB42F7D1002BF3D00023DB
:10E1C00004F8013C1460EDE7012B2DE9F04701D084
:10E1D000242B06D9FFF7AAF9162303600020BDE817
:10E1E000F0873A4F8E4676461EF8014BE55D15F0F6
:10E1F0000805F8D12D2C34D19EF800404FF00108CD
:10E2000006F1020E002B5CD0102B0CD1302C0AD161
:10E210009EF8004004F0DF04582C4DD19EF80140D8
:10E2200010230EF1020E08F1004C0CF1FF3C002609
:10E23000BCFBF3F9354603FB19CAA4F13007092FDB
:10E2400018D83C46A34224DD002E1FDBA9451DD370
:10E2500001D1A2451ADB05FB034501261EF8014B3F
:10E26000EBE72B2C08BF9EF80040A84608BF06F13C
:10E27000020EC7E7A4F14107192F01D8373CE1E7A7
:10E28000A4F16107192F04D8573CDBE74FF0FF36A4
:10E29000E4E7002E05DA22230360654642B92846EA
:10E2A0009DE7B8F1000F00D06D42002AF7D00EB103
:10E2B0000EF1FF311160F2E73024002BB3D10823B7
:10E2C000B1E7302CA4D00A23ADE700BFDF0D010871
:10E2D000FFF77ABF13460A46014602480068FFF777
:10E2E00073BF00BF240000202DE9F74F804600F0E7
:10E2F0002FFD40F2B173984540F398806FF4F663B8
:10E3000043449B1040F26D12A8F2B27502FB053532
:10E310006FF06302A8F26D7393FBF2F31D444FF4A8
:10E32000C8736FF4C86298FBF3F703FB1787424486
:10E33000B7FA87FCB2FBF3F208F00303154464223A
:10E34000C0F8048098FBF2F64FEA5C1C02FB1686CC
:10E35000044600F1500B00934FF0070E227A6369D8
:10E360004A2A28D10099EA1801B906B90FBB3B2BFC
:10E37000D4BF0023012313445A1EA3692C4901FB77
:10E380000232A36A13441A46DB17C4E9082328346F
:10E39000A345E3D1D0E90845D0E91223944275EBB7
:10E3A0000303B4BF012300230360012003B0BDE8D1
:10E3B000F08F0023DFE7442A01D1EA18DDE7009A55
:10E3C00072BB002E0CBFE0464FF001081949E2680D
:10E3D00001924FF0300A0AFB08182A464FF0000954
:10E3E000A8F10408019909F10109494558F829A043
:10E3F00018DC02F1040898FBFEF9C9EBC909A8EB87
:10E400000909B3EB0909236903F1FF3348BF09F197
:10E410000709C3EBC3034B44534505DA1A44ACE781
:10E42000E046D3E75244DDE7073BF5E70020BDE7D0
:10E4300080510100880C0108014800F03EBD00BF7A
:10E44000C42C0020014800F03ABD00BFC42C0020BD
:10E45000014B186800F002B8240000202DE9F04FAD
:10E460008DB0074600F074FCAE49AF4E0546384605
:10E4700000F066FC044670B9AC4BAD4A1860AD4B79
:10E480001860AD4B3068C3E90022FFF795F934609E
:10E490000DB0BDE8F08F316800295FD13068FFF71B
:10E4A0008BF92046F1F79EFE411C3846FFF78AFCA7
:10E4B0003060002857D12378A04AA1493A2B08BFE1
:10E4C00001340AAE3346204601F0B6F90028DFDDFC
:10E4D0000A9BE718E35C2D2B49D101374FF0FF343D
:10E4E0000DF1200A0DF11E0B4FF00008CDE9016A75
:10E4F00094490396CDF800B0334607AA3846ADF8E4
:10E500001E80ADF8208001F097F94045C0DDBDF8D0
:10E510001E30BDF82020DFF838923C2101FB032299
:10E52000BDF81C304FF4616101FB03235C43AC6216
:10E53000814C824B23600A9B81491F444A463346E3
:10E54000384601F079F9404516DC23686360774B63
:10E55000AA6A1A60774BC3F8008099E7F1F738FE92
:10E5600000289BD194E72146FFF7A1FDA3E72B2BC1
:10E5700008BF01370124B3E70A9BC4F80490FC18D4
:10E58000FB5C2D2B40F08B8001344FF0FF370023D4
:10E59000ADF81C30ADF81E30ADF820300A93CDE94F
:10E5A00002A6CDE900B66749334607AA204601F026
:10E5B00043F9002878DCAF6AA7F561670A9B2F65ED
:10E5C0001C442F464FF0000923782C2B08BF013440
:10E5D00094F80080B8F14D0F78D10DF12603CDE904
:10E5E000016309AB00935849039633460DF12202AB
:10E5F000204601F021F903287FF44AAFBDF822102C
:10E600004B1E0B2B3FF644AFBDF82420531E042BAA
:10E610003FF63EAFBDF82630062B3FF639AFC7E9CF
:10E62000031287F808807B610A9B04EB030802232E
:10E63000ADF81C300023ADF81E30ADF820300A9341
:10E6400098F800302F2B09D1CDE902A6CDE900B60C
:10E650003E49334607AA404601F0EEF8BDF81E30A9
:10E66000BDF820203C2101FB0322BDF81C304FF4F3
:10E67000616101FB0323BB610A9C28374444B9F163
:10E68000000F20D06868FFF72FFE284BAA6A1A6097
:10E690002B6D9B1A274A18BF01231360F8E62B2B1A
:10E6A00008BF0134012772E7BDF81E30BDF82020F5
:10E6B0003C2101FB0322BDF81C304FF4616101FBDA
:10E6C00003235F437AE74FF001097DE7B8F14A0F72
:10E6D00006BF0134434644230A220BA92046059372
:10E6E00001F09AF9DDF82C80059BADF82600A045D5
:10E6F00014D14D23B9F1000F07D12B72032102234E
:10E70000C5E90313C5F8149091E785F830300B2262
:10E710000123C5E90D230023EB6388E780B23B7238
:10E72000786184E7660D0108B0010020B80100207F
:10E73000690D0108B401002088000020A301002019
:10E740006D0D0108900D01087C0D01088F0D010869
:10E7500098010020F8B50E461446054618B18369A5
:10E760000BB900F003FA214B9C422BD16C68A369D2
:10E77000A360A3891A072FD523696BB32369206887
:10E78000C01A6369F6B28342374604DC2146284644
:10E7900000F058F930BBA368013BA36023685A1C02
:10E7A00022601E7063690130834204D0A389DB07B5
:10E7B00006D50A2E04D12146284600F043F988B92F
:10E7C0003846F8BD0A4B9C4201D1AC68CFE7094BF3
:10E7D0009C4208BFEC68CAE72146284600F00CF8C6
:10E7E0000028CBD04FF0FF37EAE700BF000F010849
:10E7F000200F0108E00E0108324B70B51D68064677
:10E800000C4625B1AB6913B9284600F0AFF92E4B81
:10E810009C420FD16C68A389B4F90C2019072CD441
:10E82000DD0611D40923336042F04003A3814FF089
:10E83000FF303EE0254B9C4201D1AC68EBE7244B16
:10E840009C4208BFEC68E6E7580712D5616B41B1FE
:10E8500004F14403994202D03046FFF763FA0023E3
:10E860006363A38923F02403A381002363602369E6
:10E870002360A38943F00803A38123694BB9A389CB
:10E8800003F42073B3F5007F03D02146304600F037
:10E890003DFBA089B4F90C2010F001030AD000233D
:10E8A000A36063695B42A361236943B910F08000F0
:10E8B000BAD170BD810758BF6369A360F4E7002037
:10E8C000F7E700BF24000020000F0108200F010817
:10E8D000E00E01081FB514461A46094B1B68054691
:10E8E000D8684CB1074B0091CDE9013406492B465D
:10E8F00000F0BAF901F0ACF8044B1C46F3E700BF96
:10E9000024000020A20D0108AF0D0108DD0D010853
:10E91000002910B591FBF2F402FB141306DB002B67
:10E9200001DA01349B1AC0E9004310BD002BC4BFBB
:10E9300004F1FF349B18F6E78A892DE9F04105467A
:10E9400010070C4658D44B68002B05DC0B6C002BD1
:10E9500002DC0020BDE8F081E66A002EF9D0002339
:10E9600012F480522F682B6032D0606DA3895A0751
:10E9700005D56368C01A636B0BB1236CC01A002302
:10E980000246E66A216A2846B047431CA38906D19D
:10E9900029681D292CD82A4ACA40D60728D5002222
:10E9A0006260D9042269226004D5421C01D12B681F
:10E9B00003B96065616B2F600029CAD004F144037C
:10E9C000994202D02846FFF7ADF900206063C1E705
:10E9D000216A01232846B047411CC7D12B68002B70
:10E9E000C4D01D2B01D0162B01D12F60B1E7A38914
:10E9F00043F04003A381ADE70F69002FA9D093072F
:10EA00000E6808BF4B690F6018BF0023A6EB07080C
:10EA10008B60B8F1000F9CDD216AA66A43463A4636
:10EA20002846B047002806DCA38943F04003A381B1
:10EA30004FF0FF308EE70744A8EB0008E9E700BF7E
:10EA40000100402038B50B6905460C4613B9002576
:10EA5000284638BD18B183690BB900F087F8144B0C
:10EA60009C421BD16C68B4F90C30002BEFD0626E65
:10EA7000D00704D4990502D4A06D00F01FFA2846EF
:10EA80002146FFF759FF636EDA070546E0D4A389F4
:10EA90009B05DDD4A06D00F013FAD9E7054B9C422D
:10EAA00001D1AC68DFE7044B9C4208BFEC68DAE7B1
:10EAB000000F0108200F0108E00E0108002310B527
:10EAC0000446C0E90033C0E90433836081814366B2
:10EAD000C2818361194608225C30FEF79DFE054B1A
:10EAE0006362054BA362054BE362054B246223631B
:10EAF00010BD00BF91F80008B7F80008EFF8000853
:10EB000013F90008014900F0C1B800BF45EA000848
:10EB100070B54A1E682555430E4605F17401FFF78E
:10EB200051F9044640B10021C0E900160C30A06044
:10EB300005F16802FEF770FE204670BD014800F046
:10EB4000BDB900BFC52C0020014800F0B9B900BF15
:10EB5000C52C0020014800F0B1B900BFC02C002036
:10EB6000014800F0ADB900BFC02C002010B504462C
:10EB7000FFF7F0FFA3691BB1BDE81040FFF7F0BF3E
:10EB8000C4E912332365134B134A1B68A262A342E4
:10EB900004BF0123A361204600F020F860602046F6
:10EBA00000F01CF8A060204600F018F80022E06099
:10EBB00004216068FFF782FFA06801220921FFF7A6
:10EBC0007DFFE06802221221FFF778FF0123A36195
:10EBD000D2E700BF900B010805EB0008F8B5074627
:10EBE000FFF7ACFF1E4B1E68B36913B93046FFF741
:10EBF000BDFF4836D6E90134013B03D533680BB37A
:10EC00003668F7E7B4F90C50D5B9164BE36004F158
:10EC10005800656600F050F9FFF796FFC4E901550A
:10EC2000C4E904552560A5610822294604F15C0069
:10EC3000FEF7F2FDC4E90D55C4E912552046F8BDB2
:10EC40006834D9E704213846FFF762FF0446306094
:10EC50000028D5D1FFF778FF0C233B60EEE700BF1B
:10EC6000900B01080100FFFF0EB403B5014603AB92
:10EC7000054853F8042B0068019300F019FB02B01B
:10EC80005DF804EB03B07047240000202DE9F84341
:10EC90000646884600F148040027D4E90195B9F1F9
:10ECA000010905D52468002CF7D13846BDE8F88362
:10ECB000AB89012B07D9B5F90E30013303D02946B2
:10ECC0003046C04707436835E9E700002DE9F84FB3
:10ECD00007468946164600F0D3FE184B1C689A4634
:10ECE00034B14B46984613F8011B39B13D29F9D18F
:10ECF000384600F0CBFE0020BDE8F88FA8EB0908ED
:10ED0000A34654F8040B0028F2D042464946FFF7C8
:10ED1000D6F90028F4D154F8043C03EB080513F8A5
:10ED200008303D2BECD1DAF80030ABEB03039B103D
:10ED30003846336000F0AAFE681CDDE7E8000020DA
:10ED400007B501AAFFF7C2FF03B05DF804FB00009E
:10ED500000487047900000202DE9F041D0E900679D
:10ED60000C46514A002330463946F1F787FE3946B2
:10ED700005464D4A30460023F1F780FE002ABCBF0D
:10ED800002F5A83202F5C0724FF4616105F52F203B
:10ED9000B2FBF1F301FB13224FF03C01ACBF00F6D4
:10EDA0006C2000F66B20A360B2FBF1F301FB132291
:10EDB00063602260C31C072293FBF2F2C2EBC20223
:10EDC0009B1A48BF07330028A361B8BFA0F50E33D4
:10EDD0003649AEBF90FBF1F1A3F52C7393FBF1F133
:10EDE000334B03FB010048F6AC62B0FBF2F2024485
:10EDF00040F2B45CB0FBFCF3D21A40F26D172D4B1D
:10EE0000B0FBF3F36426D31AB3FBF7F5B3FBFCF3C3
:10EE1000B5FBF6F2D31A034407FB1533992003EB35
:10EE2000830C0CF1020C03F1010EBCFBF0F77843EC
:10EE300002304FF00508B0FBF8F0AEEB000040F2F6
:10EE4000F95EF44594BF4FF0020C6FF0090C674473
:10EE50004FF4C87C0CFB0151012F98BF0131B3F571
:10EE6000997F0CD3A3F59973E361A1F26C71002330
:10EE7000E060C4E9047123622046BDE8F08115F02A
:10EE8000030F02D106FB12525AB94FF4C876B5FBF4
:10EE9000F6F206FB1252B2FA82F252093B331344E5
:10EEA000E2E70122FAE700BF80510100B13A020017
:10EEB0004FC5FDFFB03A020070477047704770477A
:10EEC000704770B50E46B1F90E10002996B0144681
:10EED0001D4607DA00232B60B3891A0610D44FF4BD
:10EEE00080630EE06A4600F0D7FD0028F2DB019A4D
:10EEF00002F47042A2F500535A425A412A60EEE7EA
:10EF000040230020236016B070BD00008B8973B5CC
:10EF10009D0706460C4607D504F14703236023618D
:10EF20000123636102B070BD01AB6A46FFF7C9FF00
:10EF3000009905463046FEF745FF48B9B4F90C3054
:10EF40009A05EFD423F0030343F00203A381E3E720
:10EF50000D4BB362A389206043F08003A381009B23
:10EF60006361019B20615BB1B4F90E10304600F083
:10EF7000A5FD28B1A38923F0030343F00103A38176
:10EF8000A0890543A581CDE705EB00080148FFF7FF
:10EF900095BF00BFC12C00200148FFF791BF00BF03
:10EFA000C12C00202DE9F0478E689E4282460C4617
:10EFB00090461F4638D88A8912F4906F32D025685F
:10EFC0000969A5EB0109656905EB450505EBD575F3
:10EFD00001334B446D109D4238BF1D46530531D55A
:10EFE0002946FEF7EFFE064650B90C23CAF800305A
:10EFF000A38943F04003A3814FF0FF30BDE8F087C1
:10F0000021694A46FEF7E0FBA38923F4906343F0AD
:10F010008003A381266165614E44A5EB0905266046
:10F02000A5603E46BE4200D93E4632462068414673
:10F03000FEF7D8FBA36822689B1B3244A3602260C2
:10F040000020DBE72A4600F05BFD06460028E1D100
:10F0500021695046FEF766FEC7E700002DE9F04F34
:10F0600098468B891B069DB007460D4614460ED563
:10F070000B6963B94021FEF7A5FE2860286120B91D
:10F080000C233B604FF0FF30D1E040236B61002345
:10F09000099320238DF82930CDF80C803023DFF838
:10F0A000A8818DF82A304FF0010923469A4613F8BB
:10F0B000012B0AB1252AF9D1BAEB040B0BD05B4620
:10F0C000224629463846FFF76DFF013000F0AA803E
:10F0D000099A5A4409929AF80030002B00F0A28055
:10F0E00000234FF0FF32CDE905230AF1010A049312
:10F0F00007938DF853301A935446052214F8011BD8
:10F100005148F1F77DF8049AD8B9D00644BF2023BE
:10F110008DF85330110744BF2B238DF853309AF8E4
:10F1200000302A2B15D0079A544600204FF00A0CC5
:10F13000214611F8013B303B092B4ED9B0B1079263
:10F1400014E0A0EB080309FA03F313430493A24667
:10F15000D2E7039B191D1B680391002BBBBF5B42C9
:10F1600042F0020207930793B8BF049223782E2B34
:10F170000CD163782A2B35D1039B1A1D1B6803928F
:10F18000002BB8BF4FF0FF3302340593DFF8C8A05F
:10F19000217803225046F1F733F840B14023A0EB29
:10F1A0000A0003FA00F0049B03430134049314F8AB
:10F1B000011B26488DF828100622F1F721F80028B7
:10F1C00038D0234B1BBB039B073323F007030833C3
:10F1D0000393099B3344099367E70CFB02320C4607
:10F1E0000120A5E700230134059319464FF00A0CCE
:10F1F000204610F8012B303A092A03D9002BC5D03C
:10F200000591C3E70CFB012104460123F0E703ABA2
:10F2100000932A460F4B04A93846AFF30080421CE6
:10F220000646D6D1AB895B063FF52CAF09981DB0D9
:10F23000BDE8F08F03AB00932A46064B04A938467D
:10F2400000F0D4F9EBE700BF400F01084A0F0108B6
:10F2500000000000A5EF0008460F01089368013B7D
:10F26000002B10B4936008DA9469A34201DB0A29E9
:10F2700003D15DF8044BFFF76DBA1368581C10609A
:10F28000197008465DF8044B7047F8B506460F46FE
:10F290001446D518AC4201D1002007E014F8011B38
:10F2A0003A463046FFF7DAFF431CF3D1F8BD0000C1
:10F2B0002DE9F04F0D469DB014469846064618B10C
:10F2C00083690BB9FFF752FC894B9D421BD17568CE
:10F2D0006B6ED90705D4AB899A0502D4A86DFFF7E8
:10F2E000EDFDAB891B0701D52B69EBB929463046EB
:10F2F000FFF782FAC0B16B6EDC070ED54FF0FF301E
:10F300001DB0BDE8F08F7B4B9D4201D1B568DFE7B2
:10F31000794B9D4208BFF568DAE7AB899805EDD4D3
:10F32000A86DFFF7CDFDE9E70023099320238DF8B1
:10F330002930CDF80C803023DFF8C0818DF82A30D9
:10F340004FF0010923469A4613F8012B0AB1252AEA
:10F35000F9D1BAEB040B0BD05B4622462946304666
:10F36000FFF793FF013000F0AA80099A5A440992EE
:10F370009AF80030002B00F0A28000234FF0FF32FB
:10F38000CDE905230AF1010A049307938DF8533060
:10F390001A935446052214F8011B5848F0F730FF21
:10F3A000049AD8B9D10644BF20238DF853301307EF
:10F3B00044BF2B238DF853309AF800302A2B15D0F8
:10F3C000079A544600204FF00A0C214611F8013BE1
:10F3D000303B092B4ED9B0B1079214E0A0EB0803E3
:10F3E00009FA03F313430493A246D2E7039B191DC2
:10F3F0001B680391002BBBBF5B4242F002020793E4
:10F400000793B8BF049223782E2B0CD163782A2B54
:10F4100035D1039B1A1D1B680392002BB8BF4FF018
:10F42000FF3302340593DFF8E4A02178032250462D
:10F43000F0F7E6FE40B14023A0EB0A0003FA00F02B
:10F44000049B03430134049314F8011B2C488DF8EA
:10F4500028100622F0F7D4FE00283FD0294B1BBB12
:10F46000039B073323F0070308330393099B3B44B3
:10F47000099367E70CFB02320C460120A5E7002345
:10F480000134059319464FF00A0C204610F8012B61
:10F49000303A092A03D9002BC5D00591C3E70CFBEC
:10F4A000012104460123F0E703AB00932A46164BE3
:10F4B00004A93046AFF300800746781CD6D16B6EA6
:10F4C000D90705D4AB899A0502D4A86DFFF7F8FCDB
:10F4D000AB895B063FF512AF099811E703AB0093C8
:10F4E0002A46094B04A9304600F080F8E4E700BF43
:10F4F000000F0108200F0108E00E0108400F01086D
:10F500004A0F0108000000008BF20008460F0108B6
:10F510002DE9F047164699468A680B69DDF8208088
:10F520009342B8BF1346336091F8432007460C4618
:10F530000AB1013333602368990642BF336802334E
:10F540003360256815F0060506D104F1190AE36851
:10F5500032689B1AAB4226DC94F84320131E2268C3
:10F5600018BF012392062BD404F1430249463846C2
:10F57000C04701301ED02368E568326803F00603F7
:10F58000042B08BFAD1AA36822690CBF25EAE575F4
:10F5900000259342C4BF9B1AED1800261A34B542C9
:10F5A0001AD1002008E00123524649463846C04798
:10F5B000013003D14FF0FF30BDE8F0870135C6E7D9
:10F5C000E1185A1C302081F84300224494F8451079
:10F5D00082F843100233C7E70123224649463846E2
:10F5E000C0470130E6D00136D9E700002DE9FF47DA
:10F5F0000C469146277E0C99782F80469A4604F156
:10F60000430207D8622F0AD8002F00F0D880582F65
:10F6100000F0A38004F1420684F842703AE0A7F1BA
:10F620006303152BF6D801A050F823F085F60008E7
:10F6300099F6000815F6000815F6000815F60008FA
:10F6400015F6000899F6000815F6000815F60008EA
:10F6500015F6000815F60008A5F70008C9F6000819
:10F6600087F7000815F6000815F60008C7F7000828
:10F6700015F60008C9F6000815F6000815F600088A
:10F680008FF700080B681A1D1B680A6004F1420618
:10F6900084F842300123A3E0256808682E0600F1B3
:10F6A00004030AD505680B60002D03DA2D236D4293
:10F6B00084F843305E480A2319E015F0400F0568CE
:10F6C0000B6018BF2DB2EFE70B682568181D0860A6
:10F6D000280601D51D6802E06906FBD51D8854483F
:10F6E0006F2F0CBF08230A23002184F8431066689B
:10F6F000A660002EA2BF216821F0040121600DB98F
:10F70000002E4DD01646B5FBF3F103FB1157C75D34
:10F7100006F8017D2F46BB420D46F4D9082B0BD1CC
:10F720002368DF0708D5236961689942DEBF30236B
:10F7300006F8013C06F1FF36921B2261CDF800A0CD
:10F740004B4603AA21464046FFF7E2FE01304CD16A
:10F750004FF0FF3004B0BDE8F087354884F84570BD
:10F7600023680E681F0656F8045B0E6014D5D9078F
:10F7700044BF43F0200323601DB9236823F0200316
:10F7800023601023B0E7236843F02003236078232D
:10F79000284884F84530E3E75E0648BFADB2E6E7A7
:10F7A0001646BBE70B68266860691D1D0D603506AF
:10F7B0001B6801D5186002E07106FBD51880002394
:10F7C00023611646BAE70B681A1D0A601E68626854
:10F7D00000213046F0F714FD08B1801B60606368BB
:10F7E0002361002384F84330A8E723693246494661
:10F7F0004046D0470130ABD023689B0713D4E06864
:10F80000039B9842B8BF1846A4E7012332464946F5
:10F810004046D04701309BD00135E36803995B1A1D
:10F82000AB42F2DCEBE7002504F11906F5E700BF77
:10F83000510F0108620F01080EB410B59FB021AC42
:10F840004FF4017154F8042B0192ADF81C10049090
:10F850000890F0F7C7FC0C4B059009900D930B48EE
:10F86000019A006803940023119316934FF6FF73D7
:10F87000ADF81E3004A9234600F0C2F91FB0BDE860
:10F88000104003B0704700BFB3F800082400002008
:10F8900010B50C46B1F90E1000F076FC0028ABBF95
:10F8A000636DA3891B1823F48053ACBF6365A381E8
:10F8B00010BD002070472DE9F0411F468B89DB0504
:10F8C00005460C46164605D5B1F90E100223002256
:10F8D00000F004F9A389B4F90E1023F48053A38136
:10F8E00032463B462846BDE8F04100F09FB810B5CF
:10F8F0000C46B1F90E1000F0F1F8431CA38915BFB6
:10F90000606523F4805343F48053A38118BFA3811F
:10F9100010BDB1F90E1000F0A3B800002DE9F043BE
:10F920003B4E86468C4660461CF8014BA55D15F0A3
:10F930000805F8D12D2C34D19CF800404FF0010877
:10F9400000F1020C002B5ED0102B0CD1302C0AD110
:10F950009CF8000000F0DF0058284FD19CF80140CF
:10F9600010230CF1020C4FF0FF370025B7FBF3F723
:10F9700003FB07F96FEA09092846A4F13006092EAE
:10F9800018D83446A34224DD002D1FDB87421DD347
:10F9900001D1A1451ADB00FB034001251CF8014BF6
:10F9A000EBE72B2C08BF9CF80040A84608BF00F1ED
:10F9B000020CC7E7A4F14106192E01D8373CE1E754
:10F9C000A4F16106192E04D8573CDBE74FF0FF3550
:10F9D000E4E7002D07DA2223CEF800304FF0FF30A5
:10F9E00042B9BDE8F083B8F1000F00D04042002AD0
:10F9F000F7D00DB10CF1FF311160F2E73024002B8C
:10FA0000B1D10823AFE7302CA2D00A23ABE700BF67
:10FA1000DF0D0108FFF782BF13460A460146024880
:10FA20000068FFF77BBF00BF2400002038B5074DFA
:10FA300004460846114600222A601A46FDF75AFB82
:10FA4000431C02D12B6803B1236038BDC82C0020B1
:10FA500008B5062000F00CFC012000F085FC000039
:10FA600038B5064D0023044608462B60FDF75CFBC5
:10FA7000431C02D12B6803B1236038BDC82C002081
:10FA80000148FFF71BBA00BFBF2C00200148FFF759
:10FA900017BA00BFBF2C002038B5074D002304461D
:10FAA000084611462B60FDF76BFB431C02D12B6807
:10FAB00003B1236038BD00BFC82C002038B5064D07
:10FAC0000023044608462B60FDF708FB431C02D1C7
:10FAD0002B6803B1236038BDC82C002038B5074D12
:10FAE00004460846114600222A601A46FDF728FB04
:10FAF000431C02D12B6803B1236038BDC82C002001
:10FB0000F8B5074614460E4621B9BDE8F84011463F
:10FB1000FEF758B922B9FEF705F925462846F8BD83
:10FB200000F0FCFBA0420FD221463846FEF74AF90E
:10FB300005460028F2D031462246FDF745FE314603
:10FB40003846FEF7EFF8E9E73546E7E738B54B1CEE
:10FB5000144603D14FF0FF35284638BD938923F072
:10FB600020039381636B5268CDB28BB1A36B934238
:10FB700008DD23685A1E226003F8015C63680133C4
:10FB80006360E9E7214600F08FFB0028F1D0E1E750
:10FB90002169236851B1994208D213F8011CA94286
:10FBA00004D1013B013223606260D5E7C4E90F3222
:10FBB00004F1440363630323A363234603F8465F0E
:10FBC00023600123DCE710B50C46496B69B104F1F1
:10FBD0004403994201D0FEF7A5F8236C636000202E
:10FBE000606313B1E36B236010BD236923600023BE
:10FBF0006360A38943F02003A3814FF0FF30F3E754
:10FC00002DE9F04F0C46ADF5237D0021CDE94411DF
:10FC1000B249A0910DF10408B149B24FDFF8C89282
:10FC2000CDF818810646A191009392F800A0BAF190
:10FC3000000F00F051811AF8073013F0080302F1A9
:10FC4000010519D06368002B0FDD23681A78BA5CB0
:10FC5000120701D42A46E8E7459A013245926268C4
:10FC60000133013A62602360ECE7A19B21463046F4
:10FC700098470028E9D0EDE7BAF1250F40F08380DE
:10FC80004193439353782A2B02BF1023951C419331
:10FC90000A22AB461BF8011BA1F13003092B1DD929
:10FCA00091480322F0F7ACFA40B10123A0EB090020
:10FCB00003FA00F0419B184341905D4615F8013B63
:10FCC000782B06D8572B10D8252B5CD056D8002B74
:10FCD00074D0032347930A23429381E0439B02FBA2
:10FCE0000313303B43935D46D3E7A3F15802202A28
:10FCF000EFD801A151F822F0CBFD0008D3FC000899
:10FD0000D3FC000829FE0008D3FC0008D3FC00083F
:10FD1000D3FC0008D3FC0008D3FC0008D3FC000887
:10FD2000D3FC00083FFE000815FE000883FD000814
:10FD300083FD000883FD0008D3FC000819FE0008BD
:10FD4000D3FC0008D3FC0008D3FC0008D3FC000857
:10FD50004FFE000821FE0008C3FD0008D3FC000888
:10FD6000D3FC00084BFE0008D3FC000815FE000879
:10FD7000D3FC0008D3FC0008CBFD0008453B022B58
:10FD8000A7D805232BE06368002B0DDD23681A78C4
:10FD9000524540F0A180013362682360459B013ADF
:10FDA00001336260459355E7A19B21463046984751
:10FDB0000028EBD04498002840F084804FF0FF30BA
:10FDC00086E0419A42F020024192419A42F4007248
:10FDD000419210226F2B429234BF03230423479396
:10FDE0006368002B41DD419B590604D423681A78CF
:10FDF000BA5C120740D4479B022B4FDC6B4622466D
:10FE000041A9304600F074F8012865D002287FF43B
:10FE100021AFCFE70A22DDE7002342930323DEE789
:10FE2000082342930423DAE72946404600F0BEF94E
:10FE3000419B43F04003419305460123CFE7419B9B
:10FE400043F0400341930023C9E70223C7E74198E9
:10FE5000C3063FF5FFAE009B459A191D00911B6834
:10FE6000C0074CBF1A801A60F4E6A19B21463046B9
:10FE700098470028B7D09DE7459A013245926268BD
:10FE8000013A002A626002DD01332360AEE7A19BE4
:10FE90002146304698470028A8D08BE7042B06DC83
:10FEA0006B46224641A9304600F07AF8ACE70F4B8A
:10FEB000002B3FF4CFAE6B46224641A93046AFF34C
:10FEC0000080A1E7A38913F0400F18BF4FF0FF3067
:10FED0000DF5237DBDE8F08F4498F9E74DFB000850
:10FEE000C7FB0008DF0D0108460F010800000000F5
:10FEF0002DE9F84315468A6880460C4632B98A696E
:10FF0000002A0CBF01224FF0FF328A602268DFF81E
:10FF10008C90D1065FBF1A68111D19601668002702
:10FF2000A06988B1012807D12B681A7863699B5CA6
:10FF300053B927BBBDE8F883022820D12B681B7872
:10FF400013F809301B071AD42368DA065EBF2B6842
:10FF50001B7806F8013B2A686B6801322A60A268A8
:10FF6000013B013A6B600137A26042B1002BD7DC44
:10FF7000D4F880312946404698470028D0D02368DD
:10FF800013F0100305D1E2680132E260A26902B108
:10FF9000337023691F4427610020CBE7DF0D010880
:10FFA0002DE9F04F9846744B0C468246164693E86E
:10FFB000070087B003AB83E80700704BA169704A64
:10FFC000032918BF1A46A36801925A1EB2F5AE7FE4
:10FFD00088BF6FF4AE75274682BF03EB050940F278
:10FFE0005D13A36057F81C3B43F4506398BF4FF078
:10FFF000000923603D464FF0000B316803AB0978E0
:020000040801F1
:1000000053F82B000222F0F7FBF828B3BBF1010FE5
:1000100059D162682AB92268082342F400726360E9
:100020002260226822F4A0622260A268511EA160B0
:1000300092B13268511C3160127805F8012B726858
:10004000013A002A726007DCD4F88021314650461C
:100050009047002840F085800BF1010BBBF1030FA6
:10006000CBD163680BB90A23636063684549606953
:10007000C91A00F09BF84FF0000BA3682268002B10
:100080003DD03168606991F800C010F80C0000287C
:1000900035D0BCF1300F24D1100522D50BF1010B66
:1000A000B9F1000F03D0013309F1FF39A360736880
:1000B000013B002B73601BDD336801333360A368A1
:1000C000013BA360D9E7BBF1020FAED1226802F475
:1000D000C061B1F5007FBFD11023636042F480722C
:1000E000A2E722F4106222600B7805F8013BDEE7FC
:1000F000D4F880313146504698470028DFD0236835
:10010000D9050DD5BD4209D915F8011CD4F87C31AB
:1001100032465046984705F1FF394D46BD4228D03A
:10012000226812F0100213D12A706368019E3946CA
:100130005046B047D8F8003021681A1DC8F8002092
:1001400011F0200F1B680FD01860E3680133E360E3
:10015000ED1BAB4425695D442561002007B0BDE877
:10016000F08F4FF0000BCAE7CA074CBF1880186029
:10017000EBE70120F2E700BF8403010815FA00084D
:10018000D1E200088C0F010838B5074D0446084637
:10019000114600222A601A46FCF7DAFF431C02D1FE
:1001A0002B6803B1236038BDC82C002070B50B78D4
:1001B00004465E2B0BBF4B78481C881C002208BFEE
:1001C0000122611E04F1FF0501F8012FA942FBD1B4
:1001D0000BB9013870BD82F00101E154421C12F8E4
:1001E000015C2D2D02F1FF36104606D05D2DF1D0B9
:1001F0000DB93046EEE72B46EFE716785D2EFAD0C4
:10020000B342F8DC1846013086422154FBDCD84367
:1002100030445D1CB342A8BF00202B180232DEE739
:100220001F2938B504460D4604D9162303604FF044
:10023000FF3038BD426C12B152F821304BB9204624
:1002400000F030F82A4601462046BDE8384000F06C
:1002500017B8012B0AD0591C03D1162303600120C3
:10026000E7E7002442F82540284698470020E0E7C9
:10027000024B01461868FFF7D3BF00BF24000020DF
:1002800038B5074D00230446084611462B6000F0A0
:1002900055F8431C02D12B6803B1236038BD00BF61
:1002A000C82C002000F042B82DE9F0410C46496B03
:1002B00004F1440399421DD14FF48061FDF782FDA2
:1002C00018B94FF0FF30BDE8F0814FF48063A363AD
:1002D00094F84630606380F8FF3394F8453080F836
:1002E000FE3394F8443080F8FD3300F2FD30206096
:1002F0000020E8E7A66B77003A46FFF701FC0546C9
:100300000028DED000EB0608014632464046FDF7E5
:100310005BFAC4E90D57C4F80080E9E751F8043CE2
:10032000181F002BBCBF0B58C0187047024B582237
:100330001A604FF0FF307047C82C0020024B582243
:100340001A604FF0FF307047C82C0020044A05495E
:100350001368002B08BF0B461844106018467047FE
:10036000C0010020D02C0020FEE700BFF8B500BF80
:10037000F8BC08BC9E467047F8B500BFF8BC08BC86
:040380009E467047DE
:10038400730F0108760F0108790F0108A5140008FE
:10039400CD140008D5140008F91400081D15000830
:1003A40000061016000610160000000000000000F1
:1003B4000102030406070809000000000102030407
:1003C40052414D00EB769045584641542020200080
:1003D400222A3A3C3E3F7C7F000000002B2C3B3D10
:1003E4005B5D0000818183838585878789898B8B09
:1003F4008D8D8F8F919193939595979799999B9BB9
:100404009D9D9F9FA1A1A3A3A5A5A7A7A9A9ABABA8
:10041400ADADAEAFB0B1B2B3B4B6B6B8B8B9BABB9D
:10042400BCBEBEBFC0C1C2C3C4C5C7C7C8C9CACB8E
:10043400CCCDCECFD1D1D3D3D5D5D7D7DDD9DADB77
:10044400DCDDE0DFE0E2E2E4E4E6E6E8E8EAEAEC68
:10045400ECEEEEEFF0F2F2F4F4F6F6F8F8FAFAFC59
:10046400FCFDFEFF01030507090E10121416181CEB
:100474001E0000002F6C6F67000000002E6C6F6779
:100484000000000025642E6C6F672C20256C75001D
:1004940025732F25642E6C6F67000000000610166C
:1004A400000610165B72616E6765735D00000000E4
:1004B4005B77656C64696E675F636F6566665D0034
:1004C4002E696E7075745F636F6E666967000000F5
:1004D4002E7361646B6F00002C00000025732F25C0
:1004E4007300000066696C653A2025730A73697AA3
:1004F400653A202020202020202020202020202099
:1005040025386C640A726561645F7074723A2020E5
:10051400202020202020202025386C640A7061636C
:100524006B65747320696E206275666665723A2025
:100534002538640A6F75747075745F6C656E6774C2
:10054400683A20202020202538640A69735F666990
:100554006C655F6F70656E65643A202020202564A9
:100564000A74696D653A2020202020202020202054
:1005740020202020256C780A74656D706572617482
:100584007572653A2020202020202025750A70618C
:10059400636B6574733A20202020202020202020C3
:1005A40020256C750A7061636B6574735F73656E87
:1005B4006465643A20202020256C750A0A00000036
:1005C40000C1814001C0804101C0804100C181401F
:1005D40001C0804100C1814000C1814001C080410F
:1005E40001C0804100C1814000C1814001C08041FF
:1005F40000C1814001C0804101C0804100C18140EF
:1006040001C0804100C1814000C1814001C08041DE
:1006140000C1814001C0804101C0804100C18140CE
:1006240000C1814001C0804101C0804100C18140BE
:1006340001C0804100C1814000C1814001C08041AE
:1006440001C0804100C1814000C1814001C080419E
:1006540000C1814001C0804101C0804100C181408E
:1006640000C1814001C0804101C0804100C181407E
:1006740001C0804100C1814000C1814001C080416E
:1006840000C1814001C0804101C0804100C181405E
:1006940001C0804100C1814000C1814001C080414E
:1006A40001C0804100C1814000C1814001C080413E
:1006B40000C1814001C0804101C0804100C181402E
:1006C40000C0C101C30302C2C60607C705C5C404EE
:1006D400CC0C0DCD0FCFCE0E0ACACB0BC90908C85E
:1006E400D81819D91BDBDA1A1EDEDF1FDD1D1CDC4E
:1006F40014D4D515D71716D6D21213D311D1D010BE
:10070400F03031F133F3F23236F6F737F53534F4AD
:100714003CFCFD3DFF3F3EFEFA3A3BFB39F9F8381D
:1007240028E8E929EB2B2AEAEE2E2FEF2DEDEC2C0D
:10073400E42425E527E7E62622E2E323E12120E07D
:10074400A06061A163A3A26266A6A767A56564A46D
:100754006CACAD6DAF6F6EAEAA6A6BAB69A9A868DD
:1007640078B8B979BB7B7ABABE7E7FBF7DBDBC7CCD
:10077400B47475B577B7B67672B2B373B17170B03D
:10078400509091519353529296565797559594542D
:100794009C5C5D9D5F9F9E5E5A9A9B5B995958989D
:1007A400884849894B8B8A4A4E8E8F4F8D4D4C8C8D
:1007B40044848545874746868242438341818040FD
:1007C40052040204530403045104010454040404B1
:1007D4005504050456040604570407045804080481
:1007E400590409045A040A045B040B045C040C0451
:1007F4005E040E045F040F044E042E044A042A040B
:10080400300410043104110446042604340414048E
:10081400350415044404240433041304AB00BB005E
:100824009125922593250225242545042504380481
:1008340018046325512557255D253904190410250D
:10084400142534252C251C2500253C253A041A049E
:100854005A25542569256625602550256C25A40054
:100864003B041B043C041C043D041D043E041E0400
:100874003F0418250C25882584251F044F04802552
:100884002F044004200441042104420422044304AC
:10089400230436041604320412044C042C041621D6
:1008A400AD004B042B0437041704480428044D04FA
:1008B4002D044904290447042704A700A025A00007
:1008C40061001A03E0001703F8000703FF000100AA
:1008D40078010001300132010601390110014A0199
:1008E4002E017901060180014D004302810182013C
:1008F40082018401840186018701870189018A01BB
:100904008B018B018D018E018F0190019101910169
:1009140093019401F60196019701980198013D0213
:100924009B019C019D0120029F01A001A001A20145
:10093400A201A401A401A601A701A701A901AA017A
:10094400AB01AC01AC01AE01AF01AF01B101B20129
:10095400B301B301B501B501B701B801B801BA01DA
:10096400BB01BC01BC01BE01F701C001C101C20150
:10097400C301C401C501C401C701C801C701CA013B
:10098400CB01CA01CD011001DD0101008E01DE01A0
:100994001201F3010300F101F401F401F80128014B
:1009A400220212013A020900652C3B023B023D027D
:1009B400662C3F0240024102410246020A015302F0
:1009C400400081018601550289018A0158028F0184
:1009D4005A0290015C025D025E025F0293016102B1
:1009E400620294016402650266026702970196013D
:1009F4006A02622C6C026D026E029C01700271022A
:100A04009D01730274029F017602770278027902D3
:100A14007A027B027C02642C7E027F02A6018102A0
:100A24008202A9018402850286028702AE01440281
:100A3400B101B20145028D028E028F029002910231
:100A4400B7017B030300FD03FE03FF03AC030400B3
:100A54008603880389038A03B1031103C2030200D6
:100A6400A303A303C4030803CC0303008C038E0372
:100A74008F03D8031801F2030A00F903F303F40304
:100A8400F503F603F703F703F903FA03FA03300453
:100A9400200350041007600422018A043601C104B3
:100AA4000E01CF040100C004D004440161052604F2
:100AB400000000007D1D0100632C001E9601A01E95
:100AC4005A01001F0806101F0606201F0806301FC3
:100AD4000806401F0606511F0700591F521F5B1FBF
:100AE400541F5D1F561F5F1F601F0806701F0E00F6
:100AF400BA1FBB1FC81FC91FCA1FCB1FDA1FDB1FAA
:100B0400F81FF91FEA1FEB1FFA1FFB1F801F0806BF
:100B1400901F0806A01F0806B01F0400B81FB91FC5
:100B2400B21FBC1FCC1F0100C31FD01F0206E01F51
:100B34000206E51F0100EC1FF21F0100FC1F4E21FD
:100B44000100322170211002842101008321D0246C
:100B54001A05302C2F04602C0201672C0601752C19
:100B64000201802C6401002D260841FF1A030000B5
:100B74002E66696C655F6C697374000025730A00E6
:100B8400257300002E74656D70000000280000209D
:100B94005245454E54206D616C6C6F6320737563D0
:100BA400636565646564002F6D6E742F776F726B77
:100BB40073706163652F776F726B73706163652FF8
:100BC4004743432D392D706970656C696E652F6AD2
:100BD400656E6B696E732D4743432D392D706970B3
:100BE400656C696E652D3230305F323032303035AD
:100BF40032315F313539303035333337342F737216
:100C0400632F6E65776C69622F6E65776C69622FEE
:100C14006C6962632F74696D652F6C636C74696DA4
:100C2400652E63001F0000001C0000001F00000070
:100C34001E0000001F0000001E0000001F00000036
:100C44001F0000001E0000001F0000001E00000026
:100C54001F000000000000001F0000003B00000017
:100C64005A0000007800000097000000B500000062
:100C7400D4000000F3000000110100003001000066
:100C84004E0100001F0000001C0000001F000000B7
:100C94001E0000001F0000001E0000001F000000D6
:100CA4001F0000001E0000001F0000001E000000C6
:100CB4001F0000001F0000001D0000001F000000B6
:100CC4001E0000001F0000001E0000001F000000A6
:100CD4001F0000001E0000001F0000001E00000096
:100CE4001F0000002F6D6E742F776F726B7370612D
:100CF40063652F776F726B73706163652F4743432E
:100D04002D392D706970656C696E652F6A656E6B1F
:100D1400696E732D4743432D392D706970656C6975
:100D24006E652D3230305F32303230303532315FE3
:100D3400313539303035333337342F7372632F6E96
:100D440065776C69622F6E65776C69622F6C696276
:100D5400632F737472696E672F737472746F6B2E62
:100D64006300545A00474D54002531305B5E302DEA
:100D7400392C2B2D5D256E004D256875256E2E258D
:100D84006875256E2E256875256E002F25687525D6
:100D94006E3A256875256E3A256875256E002C20F7
:100DA40066756E6374696F6E3A2000617373657261
:100DB40074696F6E2022257322206661696C6564F4
:100DC4003A2066696C6520222573222C206C696E9A
:100DD40065202564257325730A0000202020202027
:100DE40020202020282828282820202020202020D7
:100DF40020202020202020202020208810101010C7
:100E0400101010101010101010101004040404041A
:100E14000404040404101010101010104141414146
:100E2400414101010101010101010101010101012E
:100E34000101010101011010101010104242424240
:100E440042420202020202020202020202020202FE
:100E54000202020202021010101020000000000022
:100E6400000000000000000000000000000000007E
:100E7400000000000000000000000000000000006E
:100E8400000000000000000000000000000000005E
:100E9400000000000000000000000000000000004E
:100EA400000000000000000000000000000000003E
:100EB400000000000000000000000000000000002E
:100EC400000000000000000000000000000000001E
:100ED400000000000000000000000000000000000E
:100EE40000000000000000000000000000000000FE
:100EF40000000000000000000000000000000000EE
:100F040000000000000000000000000000000000DD
:100F140000000000000000000000000000000000CD
:100F240000000000000000000000000000000000BD
:100F3400000000000000000000000000232D302B02
:100F44002000686C4C0065666745464700303132C6
:100F5400333435363738394142434445460030311D
:100F64003233343536373839616263646566002B51
:100F74002D00303000785800412D46612D663839F7
:0C0F840030313233343536375D00000068
:080F9000BCFBFE7F0100000024
:040F9800B501000897
:040F9C0091010008B7
:100FA000900B0020900F00200000000000040000C3
:100FB000900B0020900B00200101000010000000A9
:100FC0000024F4002800002000000000000F0108A9
:100FD000200F0108E00E01080000000000000000E2
:100FE0000000000000000000000000000000000001
:100FF00000000000000000000000000000000000F1
:1010000000000000000000000000000000000000E0
:1010100000000000000000000000000000000000D0
:101020000000000000000000690D0108690D0108C2
:1010300001000000000000004A0000000000000065
:1010400000000000000000000000000000000000A0
:101050000000000000000000000000000000000090
:101060004A00000000000000000000000000000036
:101070000000000000000000000000000000000070
:0C1080000000000000000000BC01002087
:040000050800D4D14A
:00000001FF
